:020000040800F2
:1000000000060020E1020008E3020008E302000805
:10001000E3020008E3020008E3020008E30200082C
:10002000E3020008E3020008E30200083577000855
:10003000E3020008E3020008E3020008E30200080C
:10004000E3020008E3020008E3020008E3020008FC
:10005000E3020008E3020008418600086D860008FC
:1000600099860008C5860008F18600082D4600081C
:100070005546000881460008AD460008D9460008EC
:10008000014700082D470008E3020008E3020008CA
:10009000E3020008E3020008E30200081D870008ED
:1000A000E3020008E3020008E3020008E30200089C
:1000B000E3020008E3020008E3020008E30200088C
:1000C000E3020008E3020008E3020008E30200087C
:1000D000E3020008E3020008E302000809880008C0
:1000E00081870008E3020008E3020008E302000839
:1000F000E3020008E3020008E30200085947000891
:10010000E3020008E302000845880008E302000853
:10011000E30200081D880008E3020008E30200086B
:1001200085470008AD470008D94700080548000882
:1001300031480008E3020008E3020008E302000877
:10014000E3020008E3020008E3020008E3020008FB
:100150005948000885480008B1480008E302000833
:10016000E3020008E3020008E3020008E3020008DB
:10017000E302000821830008E3020008E30200080C
:10018000E3020008E302000831880008E3020008E7
:10019000E3020008E3020008E3020008E3020008AB
:1001A000E3020008E3020008E3020008E30200089B
:1001B000E3020008E3020008E3020008E30200088B
:1001C000E3020008E3020008E3020008E30200087B
:1001D000E30200080D830008E3020008E3020008C0
:1001E000E3020008E3020008E3020008E30200085B
:1001F000E3020008E3020008E3020008E30200084B
:10020000E3020008E3020008E3020008E30200083A
:10021000E3020008E3020008E3020008E30200082A
:10022000E3020008E3020008E3020008E30200081A
:10023000F5870008E3020008E3020008E302000873
:10024000E3020008E3020008E3020008E3020008FA
:10025000E3020008E3020008E3020008E3020008EA
:10026000E3020008E3020008E3020008E3020008DA
:10027000E3020008E3020008E3020008E3020008CA
:10028000E3020008E3020008E3020008E3020008BA
:10029000E3020008E3020008E3020008E3020008AA
:1002A000E3020008E3020008E3020008E30200089A
:1002B000E3020008E3020008E3020008E30200088A
:1002C000E3020008E3020008E3020008E30200087A
:1002D000E3020008E3020008E3020008E30200086A
:1002E00002E000F000F8FEE772B6374880F30888B5
:1002F000364880F3098836483649086040F20000E5
:10030000CCF200004EF63471CEF200010860BFF36B
:100310004F8FBFF36F8F40F20000C0F2F0004EF637
:100320008851CEF200010860BFF34F8FBFF36F8F8B
:100330004FF00000E1EE100A4EF63C71CEF20001E3
:100340000860062080F31488BFF36F8F07F054FA1B
:1003500006F0B6FB4FF055301F491B4A91423CBF97
:1003600041F8040BFAE71D49184A91423CBF41F895
:10037000040BFAE71A491B4A1B4B9A423EBF51F83D
:10038000040B42F8040BF8E700201849184A914280
:100390003CBF41F8040BFAE707F06CFA06F014FCD6
:1003A000144C154DAC4203DA54F8041B8847F9E7A6
:1003B00000F0C4F9114C124DAC4203DA54F8041B9E
:1003C0008847F9E707F054BA000600200022002011
:1003D0000000000808ED00E00000002000060020FA
:1003E000E09C0008002200207422002078220020D7
:1003F00034670020E0020008E0020008E002000884
:10040000E00200082DE9F04F2DED108AC1F80CD064
:10041000D0F80CD0BDEC108ABDE8F08F002383F338
:1004200011882846A047002006F02CF9FEE706F0C8
:1004300085F800DFFEE7000053B94AB9002908BF7C
:1004400000281CBF4FF0FF314FF0FF3000F074B9AF
:10045000ADF1080C6DE904CE00F006F8DDF804E01B
:10046000DDE9022304B070472DE9F047089D0446FA
:100470008E46002B4DD18A42944669D9B2FA82F257
:1004800052B101FA02F3C2F1200120FA01F10CFA93
:1004900002FC41EA030E94404FEA1C48210CBEFBCB
:1004A000F8F61FFA8CF708FB16E341EA034306FB54
:1004B00007F199420AD91CEB030306F1FF3080F0E3
:1004C0001F81994240F21C81023E63445B1AA4B230
:1004D000B3FBF8F008FB103344EA034400FB07F7D2
:1004E000A7420AD91CEB040400F1FF3380F00A8113
:1004F000A74240F207816444023840EA0640E41B08
:1005000000261DB1D4400023C5E900433146BDE8B3
:10051000F0878B4209D9002D00F0EF800026C5E955
:10052000000130463146BDE8F087B3FA83F6002E6D
:100530004AD18B4202D3824200F2F980841A61EBE5
:10054000030301209E46002DE0D0C5E9004EDDE703
:1005500002B9FFDEB2FA82F2002A40F09280A1EBEB
:100560000C014FEA1C471FFA8CFE0126200CB1FB40
:10057000F7F307FB131140EA01410EFB03F0884239
:1005800008D91CEB010103F1FF3802D2884200F2C6
:10059000CB804346091AA4B2B1FBF7F007FB101158
:1005A00044EA01440EFB00FEA64508D91CEB0404F6
:1005B00000F1FF3102D2A64500F2BB800846A4EB51
:1005C0000E0440EA03409CE7C6F12007B34022FA3C
:1005D00007FC4CEA030C20FA07F401FA06F31C436B
:1005E000F9404FEA1C4900FA06F3B1FBF9F8200C78
:1005F0001FFA8CFE09FB181140EA014108FB0EF0BE
:10060000884202FA06F20BD91CEB010108F1FF3A0D
:1006100080F08880884240F28580A8F10208614419
:10062000091AA4B2B1FBF9F009FB101144EA014127
:1006300000FB0EFE8E4508D91CEB010100F1FF34D2
:100640006CD28E456AD90238614440EA0840A0FB6A
:100650000294A1EB0E01A142C846A64656D353D040
:100660005DB1B3EB080261EB0E0101FA07F722FA64
:1006700006F3F1401F43C5E9007100263146BDE88D
:10068000F087C2F12003D8400CFA02FC21FA03F3F0
:10069000914001434FEA1C471FFA8CFEB3FBF7F071
:1006A00007FB10360B0C43EA064300FB0EF69E4296
:1006B00004FA02F408D91CEB030300F1FF382FD22F
:1006C0009E422DD9023863449B1B89B2B3FBF7F6D7
:1006D00007FB163341EA034106FB0EF38B4208D9B0
:1006E0001CEB010106F1FF3816D28B4214D9023EF1
:1006F0006144C91A46EA004638E72E46284605E70F
:100700000646E3E61846F8E64B45A9D2B9EB0208DF
:1007100064EB0C0E0138A3E74646EAE7204694E76F
:100720004046D1E7D0467BE7023B614432E73046A2
:1007300009E76444023842E7704700BF38B501F06A
:10074000FFF901F0C1FB06F0DBFE054606F0E8FF0D
:100750000446D0B90F4B9D4219D001339D4241F25E
:10076000883504BF01240025002006F0D3FE0CB11B
:1007700000F078F801F048FB00F026FD08B100F029
:1007800071F8284600F01CF9F9E70025ECE705466A
:10079000EAE700BF010007B008B501F09DF9A0F13C
:1007A00020035842584108BD07B541F21203022107
:1007B00001A8ADF8043001F0ADF903B05DF804FB19
:1007C00038B5302383F31188174803680BB106F05E
:1007D0003DF80023154A4FF47A71134806F02CF8BF
:1007E000002383F31188124C236813B12368013B63
:1007F0002360636813B16368013B63600D4D2B7820
:1008000033B963687BB9022001F060FA3223636078
:100810002B78032B07D163682BB9022001F056FA1D
:100820004FF47A73636038BD78220020C107000856
:100830009823002090220020084B187003280CD821
:10084000DFE800F008050208022001F031BA0220BA
:1008500001F01EBA024B00225A607047902200201D
:1008600098230020F8B5504B504A1C4619680131B6
:1008700000F0998004339342F8D162684C4B9A425D
:1008800040F291804B4B9B6803F1006303F500330A
:100890009A4280F08880002001F06CF90220FFF776
:1008A000CBFF454B0021D3F8E820C3F8E810D3F87C
:1008B0001021C3F81011D3F81021D3F8EC20C3F89D
:1008C000EC10D3F81421C3F81411D3F81421D3F881
:1008D000F020C3F8F010D3F81821C3F81811D3F89A
:1008E0001821D3F8802042F00062C3F88020D3F8AA
:1008F000802022F00062C3F88020D3F88020D3F853
:10090000802042F00072C3F88020D3F8802022F0CB
:100910000072C3F88020D3F8803072B64FF0E02325
:10092000C3F8084DD4E90004BFF34F8FBFF36F8FB6
:10093000224AC2F88410BFF34F8F536923F48033E7
:100940005361BFF34F8FD2F8803043F6E076C3F3A4
:10095000C905C3F34E335B0103EA060C29464CEA92
:1009600081770139C2F87472F9D2203B13F1200F5C
:10097000F2D1BFF34F8FBFF36F8FBFF34F8FBFF332
:100980006F8F536923F4003353610023C2F8503250
:10099000BFF34F8FBFF36F8F302383F311888546EA
:1009A00080F308882047F8BD0000020820000208F4
:1009B000FFFF0108002200200044025800ED00E083
:1009C0002DE9F04F93B0B44B2022FF2100900AA8EC
:1009D0009D6801F0C3F9B14A1378A3B90121B04869
:1009E00011700360302383F3118803680BB105F0A5
:1009F0002DFF0023AB4A4FF47A71A94805F01CFF84
:100A0000002383F31188009B13B1A74B009A1A604F
:100A1000A64A1378032B03D000231370A24A536015
:100A20004FF0000A009CD3465646D146012001F003
:100A30003FF924B19C4B1B68002B00F0268200205C
:100A400001F04AF80390039B002BF2DB012001F038
:100A50001FF9039B213B1F2BE8D801A252F823F07A
:100A6000E10A0008090B00089D0B00082D0A000888
:100A70002D0A00082D0A00082F0C0008FF0D0008A1
:100A8000190D00087B0D0008A30D0008C90D000812
:100A90002D0A0008DB0D00082D0A00084D0E000885
:100AA000810B00082D0A0008910E0008ED0A0008CD
:100AB000810B00082D0A00087B0D00082D0A000894
:100AC0002D0A00082D0A00082D0A00082D0A00082A
:100AD0002D0A00082D0A00082D0A00089D0B0008A9
:100AE0000220FFF759FE002840F0F981009B022107
:100AF00005A8BAF1000F08BF1C4641F21233ADF849
:100B0000143001F007F891E74FF47A7000F0E4FF39
:100B1000071EEBDB0220FFF73FFE0028E6D0013F77
:100B2000052F00F2DE81DFE807F0030A0D1013360F
:100B30000523042105A8059300F0ECFF17E004212C
:100B40005548F9E704215A48F6E704215948F3E7E4
:100B50004FF01C08404608F1040801F00DF804218C
:100B6000059005A800F0D6FFB8F12C0FF2D10120B6
:100B70004FF0000900FA07F747EA0B0B5FFA8BFB0F
:100B800001F038F926B10BF00B030B2B08BF002442
:100B9000FFF70AFE4AE704214748CDE7002EA5D01B
:100BA0000BF00B030B2BA1D10220FFF7F5FD07463D
:100BB00000289BD00120002600F0DCFF0220FFF778
:100BC0003BFE1FFA86F8404600F0E4FF0446B0B151
:100BD000039940460136A1F140025142514100F0D3
:100BE000E9FF0028EDD1BA46044641F21213022172
:100BF00005A83E46ADF8143000F08CFF16E72546F8
:100C00000120FFF719FE244B9B68AB4207D9284609
:100C100000F0B2FF013040F067810435F3E70025B2
:100C2000224BBA463E461D701F4B5D60A8E7002E62
:100C30003FF45CAF0BF00B030B2B7FF457AF02209C
:100C4000FFF7FAFD322000F047FFB0F10008FFF691
:100C50004DAF18F003077FF449AF0F4A08EB0503C7
:100C6000926893423FF642AFB8F5807F3FF73EAFC0
:100C7000124BB845019323DD4FF47A7000F02CFF3E
:100C80000390039A002AFFF631AF039A0137019BC4
:100C900003F8012BEDE700BF002200209423002081
:100CA00078220020C107000898230020902200200D
:100CB00004220020082200200C2200209422002080
:100CC000C820FFF769FD074600283FF40FAF1F2D2E
:100CD00011D8C5F120020AAB25F003008449424532
:100CE000184428BF4246019201F012F8019AFF21F0
:100CF0007F4801F033F84FEAA803C8F387027C4924
:100D00002846019301F032F8064600283FF46DAF03
:100D1000019B05EB830533E70220FFF73DFD00282B
:100D20003FF4E4AE00F064FF00283FF4DFAE00279C
:100D3000B846704B9B68BB4218D91F2F11D80A9B2D
:100D400001330ED027F0030312AA134453F8203CBA
:100D500005934046042205A9043701F015F98046A1
:100D6000E7E7384600F008FF0590F2E7CDF8148079
:100D7000042105A800F0CEFE02E70023642104A8A8
:100D8000049300F0BDFE00287FF4B0AE0220FFF710
:100D900003FD00283FF4AAAE049800F01FFF059061
:100DA000E6E70023642104A8049300F0A9FE0028CC
:100DB0007FF49CAE0220FFF7EFFC00283FF496AED4
:100DC000049800F00DFFEAE70220FFF7E5FC002899
:100DD0003FF48CAE00F01CFFE1E70220FFF7DCFCE3
:100DE00000283FF483AE05A9142000F017FF074642
:100DF0000421049004A800F08DFE3946B9E73220A2
:100E000000F06AFE071EFFF671AEBB077FF46EAE00
:100E1000384A07EB0903926893423FF667AE022017
:100E2000FFF7BAFC00283FF461AE27F003074F44F8
:100E3000B9453FF4A5AE484609F1040900F09CFE0F
:100E40000421059005A800F065FEF1E74FF47A70E3
:100E5000FFF7A2FC00283FF449AE00F0C9FE0028CD
:100E600044D00A9B01330BD008220AA9002000F0CD
:100E70007DFF00283AD02022FF210AA800F06EFF53
:100E8000FFF792FC1C4805F003FC13B0BDE8F08F9F
:100E9000002E3FF42BAE0BF00B030B2B7FF426AE92
:100EA0000023642105A8059300F02AFE07460028C8
:100EB0007FF41CAE0220FFF76FFC804600283FF451
:100EC00015AEFFF771FC41F2883005F0E1FB0598A3
:100ED00000F0D8FF46463C4600F08CFFA6E50646EB
:100EE0004EE64FF0000901E6BA467EE637467CE65C
:100EF0009422002000220020A086010070470000FC
:100F000070470000704700002DE9F04100F5803780
:100F1000044616463B7C5BB9C0681030204400F0A4
:100F2000F7FEE5683544B5F5004FE56002D816B127
:100F3000BDE8F081DEB905F07F0605F11000002163
:100F4000C6F180062044F6B232462E4400F006FF79
:100F5000A06804F11008324600F10060414600F537
:100F6000003006F06DF830B901233B74E0E74FF430
:100F700000463546ECE7A26805F1100140463244D0
:100F80002144A260E268521BE26000F0C1FE022030
:100F9000BDE8F04100F09ABE183000F0E9BC000056
:100FA00010B5044601F00CF8204610BD10B50446FB
:100FB00001F006F8204610BDC0B2A0F14103052B98
:100FC00002D83738C0B27047A0F16103052B94BF37
:100FD00057383038F6E7000070B504461546084625
:100FE00003220C4900F09EFE014688B908346E1CAD
:100FF00015F91100FFF7E0FF024616F91100013163
:10100000FFF7DAFF102940EA021004F8010BEFD1D4
:1010100070BD00BF989200082DE9F04FADF53F7DFF
:101020000746416801222AA802F0ACFE002840F0E1
:1010300087800646824681461125DFF80C81DFF85D
:101040000CB101AB4FF4805241462AA802F0FAFFDE
:10105000002875D1019AB2F5805F71D8002A65D059
:101060000446019A9442ECD2282D0FD008DC132DAF
:101070002DD01E2D39D0112D13D00134A4B2F0E79C
:10108000322D2DD0372D2FD02D2DF6D13B68121BB0
:1010900008EB040138461B692D259847BDF804402C
:1010A000EBE7121B022A09D9594608EB040000F0AD
:1010B00039FE18B902342825A4B2DEE718F8043046
:1010C0003A2B3DD00A2B1CBFA1461325D5E718F8B3
:1010D00004300A2B34D03A2B04BFA2463225CCE789
:1010E00018F80430202BC8D0264618F804300A2BF4
:1010F0001AD1AAEB090208EB090102A811254F2A0F
:1011000028BF4F2208F0B4F8A21B08EB060116A86E
:101110004F2A28BF4F2208F0ABF83B6816AA02A955
:10112000DB6838469847A8E71E25A6E73B6838469F
:1011300004491B69984701200DF53F7DBDE8F08FFC
:101140000020F9E79A930008A02300209C92000851
:1011500000F1180110B5044686B00846019100F070
:10116000F1FB2046FFF758FF60B1019902A800F09B
:1011700049FC102204F1080102A808F039F8B0FA7D
:1011800080F0400906B010BD70B504460025EEB2EF
:10119000304600F0FFFC58B100213046013500F028
:1011A00009FD08B9002070BD022000F08FFDEEE7B8
:1011B0002046FFF731FF0028F4D004F58034207C6E
:1011C00080F00100EFE70000F0B5C9B006F0B0F91B
:1011D00000F012FF18B90025284649B0F0BD694655
:1011E0002A4802F0F1FF00284BD1294C204603F099
:1011F0001BF8284803F018F8274803F015F8214693
:10120000224803F08DF80028E5D1702000F0D2FECE
:10121000064610B1214B44600360336830469B683A
:101220009847054600282ED01A4F1948394603F032
:1012300077F805460028CED1194800F0BBFE0446D9
:1012400038B1184B4760036000F58033C0E90255A0
:101250001D74236820469B689847054628B10E49AF
:101260000C4803F05DF80028B5D1336830465B6860
:1012700098471CB1236820465B68984700F0A4FE9D
:10128000AAE70025FAE70446EFE700BFA0920008AE
:10129000B0920008C7920008DD9200080093000891
:1012A000140001001C9300082DE9F04FD44A8DB0C2
:1012B0000B68D0F804A001931A440368D14E1A4475
:1012C000D1F81C90DFF8B4C3DFF8B4B3D0E902342E
:1012D000634003EA0A03634013444A6802920AEB3C
:1012E0007363029CC84A2244C468224484688AEA20
:1012F00004051D40654015448A68039203EB35558B
:10130000039CC24A2244846822448AEA03042C4093
:1013100084EA0A041444CA6805EBF43404921644BF
:1013200083EA0502224056445A4032440E6905962B
:1013300004EBB222059FB64E3E441E4485EA0403E8
:1013400013406B4033444E69069602EB7363069F6D
:10135000B04E3E442E4484EA02051D4065403544AB
:101360008E69079603EB3555079FAB4E3E442644E6
:1013700082EA03042C4054403444A84E4E4405EB0A
:10138000F434164483EA050222405A4032440E6A7D
:10139000089604EBB222089FA14E3E441E4485EA03
:1013A000040313406B4033444E6A099602EB7363A7
:1013B000099F9C4ED1F830E03E44D1F83880F34488
:1013C0002E4484EA02051D40654035448E6AA6F528
:1013D000244703EB35550A964F3F274482EA03041E
:1013E0002C4054403C44CF6A0B9705EBF4340B9EE1
:1013F0008D4F3744029E174483EA050222405A402B
:101400003A448A4F774404EBB2221F4485EA04032E
:1014100013406B403B444F6BBC4402EB7363654429
:1014200084EA020C0CEA030C8CEA040C6544DFF835
:1014300054C2C44403EB3555A44482EA03042C404F
:1014400054406444D1F83CC0794905EBF43461441C
:10145000114483EA050222405A400A44754904EBCC
:10146000B2223144079E194484EA02032B406340B0
:101470000B44714902EBF36331440B9E0D4482EA45
:1014800003012140514029446C4D03EBF151354497
:10149000019E254483EA010414405C402C44684DBD
:1014A00001EBB4443544069E154481EA04021A4017
:1014B0004A402A44634D04EB323235440A9E1D44AF
:1014C00084EA02030B4063402B445F4D02EBF3635D
:1014D0003544059E0D4482EA0301214051402944D0
:1014E0005A4D03EBF1516544254483EA010414404D
:1014F0005C402C44564D01EBB4443544099E1544E0
:1015000081EA04021A404A402A44524D04EB323226
:101510003544049E1D4484EA02030B4063402B447F
:101520004D4D02EBF36345440D4482EA0301214033
:1015300051402944494D03EBF1513544089E2C4458
:1015400083EA010515405D402C44454D01EBB44450
:101550003544039E2A4481EA04051D404D402A4437
:10156000404D04EB32323D442B4484EA020593445F
:101570000D4065402B443C4D02EBF3633544069E21
:10158000294482EA0305254055402944374D03EBA1
:10159000F1514D442C4483EA010515405D4025443A
:1015A00001EBB54581EA050404EA03024A405A44C6
:1015B000A6F5B82B089E05EB3232ABF2BE6B544059
:1015C0005B4423442A4C344402EB33730B9E0C449B
:1015D00085EA020159402144264C344403EB715101
:1015E000029E254482EA03044C402544224C444494
:1015F00001EB3545144483EA01026A40224443E08A
:1016000078A46AD7EECEBDC156B7C7E8DB702024F8
:10161000AF0F7CF52AC68747134630A8019546FDD3
:10162000D8988069AFF7448BBED75C892211906B44
:101630002108B44962251EF640B340C0515A5E26C7
:10164000AAC7B6E95D102FD65314440281E6A1D88B
:10165000C8FBD3E7E6CDE121D60737C3870DD5F424
:10166000ED145A4505E9E3A9F8A3EFFCD9026F6729
:1016700081F6718722619D6D0C38E5FD937198FDAF
:101680008A4C2A8D8E4379A6934C344405EB722202
:10169000059E1C4481EA0503534023448F4C344487
:1016A00002EB33730A9E0C4485EA0201594021443F
:1016B0008B4C4C4403EB7151254482EA03044C40AB
:1016C0002C44884D354401EB3444019E154483EA93
:1016D000010262402A44844D3D4404EB72221D44C1
:1016E00081EA040353402B44804D354402EB3373AD
:1016F000049E294484EA02055D4029447C4D35441A
:1017000003EB7151079E254482EA03044C402C44AC
:10171000784D354401EB3444099E2A4483EA01059F
:1017200065401544744A324404EB7525039E134406
:1017300081EA04026A401A44704B734405EB32722A
:101740000B4484EA0501514019446D4B634402EB9C
:1017500071511C4485EA02034B401C44694B3344DD
:1017600001EB3444019E1D4482EA010363402B4493
:10177000654D04EB73233544069E154463EA01026C
:1017800062402A44614D03EBB2624D4462EA0409AF
:1017900029445F4D89EA0309454449442C445D4D81
:1017A00002EBB1513544049E61EA03081D4488EA06
:1017B0000208444401EB744464EA02034B402B44A6
:1017C000554D04EBF323754463EA010E15448EEA8C
:1017D000040E0EEB0502514D03EBB262354462EA92
:1017E000040E29440A9D8EEA030EA5F580164C4D81
:1017F0007144A6F6833602EBB151264461EA030434
:1018000054403444029E01EB7444354464EA0206B9
:101810001D444E407319089E424D04EBF32335449A
:1018200063EA01061544664072193F4D03EBB2624C
:10183000654462EA040629443C4D5E403144079EFB
:1018400002EBB151354461EA03062C44384D564051
:101850003D443444059E1D4401EB744464EA020394
:101860004B402B44334D04EBF32335440B9E15447E
:1018700063EA010262402A442F4D03EBB262354411
:10188000039E0D4462EA0401594029442B4D02EBAA
:10189000B15135442A4E254461EA030454402C4496
:1018A000099D01EB74442E4464EA02051E4485EA56
:1018B00001039D1903681A440AEB040303EBF523A3
:1018C0000260436083681C44C36819448460C1603B
:1018D0000DB0BDE8F08F00BF44EABEA4A9CFDE4B37
:1018E000604BBBF670BCBFBEC67E9B28FA27A1EA40
:1018F0008530EFD4051D880439D0D4D9E599DBE6CD
:10190000F87CA21F6556ACC4442229F497FF2A43F1
:10191000A72394AB39A093FCC3595B6592CC0C8F81
:10192000D15D84854F7EA86FE0E62CFE144301A3B1
:10193000A111084E827E53F735F23ABDBBD2D72AA9
:1019400091D386EB094B036003F18833436003F1C5
:101950002943A3F59613A3F68B638360A3F1883321
:10196000C3600023C0E90433704700BF012345670B
:101970002DE9F8431446026905460E46E300C2F31A
:10198000C50800F118079B18036122BF43690133A2
:10199000436112F4FC7F436903EB5473436114D039
:1019A000C8F1400907EB08004C4504D22246BDE8C7
:1019B000F84307F02DBC403C4A464E4407F028FC53
:1019C000444439462846FFF76FFCA04606EB04095D
:1019D000B8F13F0FA9EB08010AD94022384607F0B9
:1019E00017FC39462846A8F14008FFF75DFCEFE7F1
:1019F000A1096FF03F02384602FB014206EB81115C
:101A0000D5E7000070B50B6901F1180506460C46D4
:101A1000C3F3C503EA18501C8022EA54C3F13F0205
:101A2000072A1FD8002100F099F929462046FFF720
:101A30003BFC38220021284600F090F92369294612
:101A40002046236563696365FFF72EFC214610225B
:101A5000304607F0DDFB204658220021BDE87040EB
:101A600000F07CB9C3F137020021E5E72DE9F84F1A
:101A70004FF47A7306460D46002402FB03F7DFF8A5
:101A80005080DFF8509098F900305FFA84FA5A1CC1
:101A900001D0A34210D159F824002A4631460368E8
:101AA000D3F820B03B46D847854205D1074B0120EB
:101AB00083F800A0BDE8F88F0134042CE3D14FF483
:101AC000FA7004F0E5FD0020F4E700BFE4330020E5
:101AD0001022002014220020002307B50246012115
:101AE0000DF107008DF80730FFF7C0FF20B19DF81A
:101AF000070003B05DF804FB4FF0FF30F9E700008A
:101B00000A46042108B5FFF7B1FF80F00100C0B21A
:101B1000404208BD074B0A4630B41978064B53F8CB
:101B20002140014623682046DD69044BAC4630BCA9
:101B3000604700BFE433002014220020A08601008B
:101B400070B50A4E00240A4D05F01EFA3080286850
:101B50003388834208D905F013FA2B680444013313
:101B6000B4F5003F2B60F2D370BD00BFE633002018
:101B7000A033002005F0E2BA00F1006000F500306B
:101B80000068704700F10060920000F5003005F039
:101B900057BA0000054B1A68054B1B889B1A8342F5
:101BA00002D9104405F0ECB900207047A0330020A2
:101BB000E633002038B50446074D29B12868204493
:101BC000BDE8384005F0F4B92868204405F0DEF996
:101BD0000028F3D038BD00BFA0330020002070479C
:101BE00000F1FF5000F58F10D0F80008704700009A
:101BF000064991F8243033B100230822086A81F89D
:101C00002430FFF7BFBF0120704700BFA43300207E
:101C1000014B1868704700BF0010005C194B013879
:101C20000322084470B51D68174BC5F30B042D0C37
:101C30001E88A6420BD15C680A46013C82421346CC
:101C40000FD214F9016F4EB102F8016BF6E7013AB9
:101C500003F10803ECD181420B4602D22C2203F897
:101C6000012B0424094A1688AE4204D1984284BF4D
:101C7000967803F8016B013C02F10402F3D1581A83
:101C800070BD00BF0010005C242200205C9300089F
:101C9000022804D1054B4FF400129A6170470128C5
:101CA000FCD1024B4FF40022F7E700BF00100258AE
:101CB000022803D1044B20229A6170470128FCD1ED
:101CC000014B0822F8E700BF00100258022805D196
:101CD000064A536983F02003536170470128FCD101
:101CE000024A536983F00803F6E700BF0010025868
:101CF00070B504464FF47A764CB1412C254628BF86
:101D0000412506FB05F0641B04F0C2FCF4E770BD3E
:101D1000002310B5934203D0CC5CC4540133F9E7DF
:101D200010BD0000013810B510F9013F3BB191F929
:101D300000409C4203D11AB10131013AF4E71AB1D3
:101D400091F90020981A10BD1046FCE703460246A0
:101D5000D01A12F9011B0029FAD170470244034638
:101D6000934202D003F8011BFAE770472DE9F843CC
:101D70001F4D14460746884695F8242052BBDFF8CD
:101D800070909CB395F824302BB92022FF2148464F
:101D90002F62FFF7E3FF95F824004146C0F10802E7
:101DA00005EB8000A24228BF2246D6B29200FFF780
:101DB000AFFF95F82430A41B17441E449044E4B2AE
:101DC000F6B2082E85F82460DBD1FFF711FF00285A
:101DD000D7D108E02B6A03EB82038342CFD0FFF711
:101DE00007FF0028CBD10020BDE8F8830120FBE7E6
:101DF000A4330020024B1A78024B1A70704700BFC0
:101E0000E433002010220020F8B5194C194803F0E3
:101E100047FF2146174803F06FFF24684FF47A709C
:101E2000154ED4F89020154DD2F80438114F43F0D8
:101E30000203C2F80438FFF75BFF2046104904F0A4
:101E400069F8D4F890200424D2F8043823F002036F
:101E5000C2F804384FF4E133336055F8040BB8424C
:101E600002D0314603F07AFE013CF6D1F8BD00BF46
:101E7000589B000818490020CC3300201422002071
:101E8000609B00080C4B70B50C4D04461E780C4B43
:101E900055F826209A420DD00A4B002118221846E8
:101EA000FFF75CFF0460014655F82600BDE870406E
:101EB00003F054BE70BD00BFE433002014220020A4
:101EC00018490020CC330020F8B571B6002301205A
:101ED0001A46194602F094FD0446802005F0CEF91A
:101EE000002849D00025254A80274FF4D06C3D2694
:101EF000136913F0C06F26D1D2F8103113F0C06F00
:101F000021D1236805F1006199602368D8602368B6
:101F10005F602368C3F800C021680B6843F00103C9
:101F20000B6021680B6823F01E030B6021680B68AF
:101F3000DB07FCD4237B8035616806FA03F3B5F533
:101F4000001F0B60D4D1204602F09AFDB5F5001FAA
:101F500011D000240A4E0B4D012005F0EFF8338814
:101F6000A34205D928682044013405F021F8F6E79A
:101F7000002005F0E3F861B6F8BD00BF0020005274
:101F8000E6330020A033002030B50A44084D9142CA
:101F90000DD011F8013B5840082340F30004013BE9
:101FA0002C4013F0FF0384EA5000F6D1EFE730BD78
:101FB0002083B8ED0121884238BF084605F096B964
:101FC00008B105F097B9704710B5084C01220849CF
:101FD000002001F0B3FE23783BB1064803F036FD44
:101FE000044803F069FD0023237010BDE83300208E
:101FF0006C930008C83600201D482DE9F041036DA0
:102000002BB901224FF48051503005F0DBFA194E04
:1020100033780BB1FFF7D8FF0324174F4FF00008B8
:10202000134D15492846C7F8048003F037FD2846AC
:1020300003F070FB48B1013C284603F03DFD14F06D
:10204000FF04EED1204634700FE00C4901220C4809
:1020500001F074FE014618B1284603F0F7FCEAE7E8
:10206000084800F011F801203070BDE8F08100BF91
:10207000C8360020E83300203C2200206C93000882
:10208000EC330020709300080FB4002004B07047B8
:102090000068704703460068596870470B0A017072
:1020A00043700B0C090E8370C1707047110A0270E7
:1020B00003714170110C120E8170C2701A0A4271C4
:1020C0001A0C1B0E8271C37170470000C36A02397B
:1020D000023B8B4283BF4389006C01FB030000205D
:1020E00070470000C2F307238A76CB760378032B70
:1020F00001BF120C0A75120A4A75704700F10B01F4
:102100000022D30143EA520310F8012B52FA83F361
:102110008842DAB2F5D110467047000010B5417818
:1021200004460020013102464901022A16BFA35C81
:10213000032203EBC03302F101021EBF9BB203EB8B
:10214000500398B29142F0D810BD000002684AB125
:10215000134613F8011B1F290DD93A29F9D1911CF7
:102160008B4202D04FF0FF3070471278302AF9D1FD
:10217000036000207047014B187870473836002004
:1021800038B50D46044618B9092000232B6038BD28
:102190000368002BF8D01A78002AF5D08188DA88F5
:1021A0009142F1D1587804F00FFC10F00100EBD10E
:1021B0002368EBE738B50D4640F25231144602F081
:1021C000B9F9FF2807D9012C0BD9030A022468703A
:1021D0002B70204638BD30B1002CFAD00124287075
:1021E000F7E70024F5E70446F3E700002DE9F8439C
:1021F0000026D0F8008005460C468E76836B002BB7
:102200004AD098F80030042B4BD13346354640274E
:1022100020E0B7F5187F80F0C480F90606F10106CA
:1022200008BF0237D05B02372BB900F5205292B2BB
:10223000B2F5006F0DD305F11A01C5F1FF0240EAB6
:1022400003402144FFF7B6FF002800F0AA800544B0
:1022500000200346D8F8102092F82310B142D8D8B5
:10226000002B40F09E80002D00F09B800023254431
:10227000AB766373D8F81020137903F03701DB06CF
:1022800021730BD402F13800FFF704FFC4E9000109
:1022900093896381D3892381BDE8F88300200146B7
:1022A000F4E7C36C01335ED1EA6B00232E26551E82
:1022B000184615F8011F013020290CD0052908BF48
:1022C000E521092804D10B2B9EBFE71801337E734B
:1022D000E718013379730B28EBD1E118002048731C
:1022E000A17E00294BD1002B40D06FF00C0604F1E9
:1022F0000D000825361B331810F8011B002938D0B3
:102300002E298BB24AD0A3F14101192903D8117BA0
:102310000D4200D020330373EDE7B9F1000F05D172
:1023200000F520539BB2B3F5006F0BD307F11A01F0
:10233000C7F1FF0240EA09402144FFF73BFF48B1E3
:102340000744002002368146D8F80C30985B0028FC
:10235000E3D13846B9F1000F4FF0000218BF00205A
:1023600023189A76A0E7B1463746EDE73F23A376D8
:102370000123234400219976137B03B96373D37A35
:1023800002F11C0003F03F0323730023FFF780FEDC
:1023900020606360D38A6381138B7CE710250B4632
:1023A000B9E73F230125A37660E7000038B505466D
:1023B000002435F8020B08B9204638BD02F0EEF8CB
:1023C0006308C2B203EBC43312FA83F39AB2C0F3C8
:1023D000072303EB520303EBC2339CB2E9E700008F
:1023E00037B5C37804461BB90025284603B030BD75
:1023F00000F14C01826C01234078019104F00AFB4A
:10240000054680B9A36BE070A06C226BC31A93429F
:10241000EAD2A3780199022BE6D102440123607825
:1024200004F0F8FAE1E70125DFE7000038B5836C36
:1024300005460C468B4210D0FFF7D2FF60B922460A
:10244000012305F14C01687804F0C0FA00281CBF94
:102450004FF0FF340120AC6438BD0020FCE70000E1
:1024600038B500230446C3704FF0FF338364FFF791
:10247000DDFF00284BD1B4F84A524AF655239D425D
:1024800007D10B22254904F14C0006F0B1FE0028CB
:102490003FD094F84C30EB2B03D01833DBB2012B38
:1024A0002ED84AF655239D4206D108221C4904F134
:1024B0009E0006F09DFE48B3B4F85730B3F5007F98
:1024C0001ED194F85930DBB15A1E1A4218D1B4F813
:1024D0005A30ABB194F85C30013B012B10D8B4F802
:1024E0005D306BB1B4F85F307F2B06D804F16C001F
:1024F000FFF7CEFDB0F5803F02D3B4F8623053B998
:102500004AF6552085420CBF0220032038BD042026
:10251000FCE70120FAE70020F8E700BF9C930008E1
:10252000A893000802392DE9F04701F007044FF0A5
:10253000010A466C05460AFA04F41746984606EB6B
:102540001136C1F3C809E4B2314628460136FFF717
:102550006DFF18B10120BDE8F087994605EB09022F
:1025600092F84C30234214BF01210021414513D081
:102570006340013F82F84C3085F803A0EBD0640043
:1025800014F0FF04EAD109F1010301244FF000091E
:10259000B3F5007FE1D1D7E70220DCE7012902464D
:1025A000F8B50C4640F28C800668F36A8B4240F224
:1025B00087803378013B032B00F28280DFE803F051
:1025C0000229384B04EB5405B16B304601EB552121
:1025D000FFF72CFF10B14FF0FF30F8BD6F1CC5F3B3
:1025E0000805B16B3046354401EB572195F84C5046
:1025F000FFF71CFF0028EED1C7F30807E3073E44AE
:1026000096F84C0045EA00204CBF0009C0F30B00CF
:10261000E3E7B16B304601EB1421FFF707FF002819
:10262000D9D1640004F4FF742644B6F84C00D4E712
:10263000B16B304601EBD411FFF7F8FE0028CAD188
:10264000A40006F14C0004F4FE742044FFF720FDC2
:1026500020F07040C1E7D0E90430D57953EA000199
:1026600001D0916801B95DBB9168022DA4EB010115
:102670000DD1013B728940F1FF305B0A43EAC05340
:10268000B3FBF2F399421BD81CD0601CA5E7032DC5
:1026900002D193698B42F8D8D3699BB9B16B3046AC
:1026A00001EBD411FFF7C2FE002894D1A0004C36F4
:1026B00000F4FE703044FFF7EBFC20F000408CE7A4
:1026C00001208AE76FF0004087E70000F8B5066850
:1026D00004460D463378042B0CBF4FF080524FF464
:1026E00000128A4201D80220F8BDCA06FBD18268D6
:1026F0000163D2B9022B13D83389B3EB551FF2D93A
:10270000F36BA363A36B6263002BECD003EB552345
:102710004C36C5F308050020A3633544E563E3E7C1
:10272000F36BC271002BE7D01A4677897F02BD4256
:10273000114604D23046FFF7C9FCA063E2E7204609
:10274000FFF72CFF431C024606D00128CBD9F36AC1
:102750008342C8D9ED1BEAE70120C5E701292DE92D
:10276000F04706460C46174608D9C36A8B4205D97E
:102770000378022B62D003D8012B22D0022552E02D
:10278000033B012BFAD8816B01EBD411FFF74EFE0E
:102790000546002847D1A40006F14C0304F4FE745A
:1027A0001C443378042B07D0204627F07047FFF7EE
:1027B0006FFC00F07040074339462046FFF76EFC7F
:1027C0002FE001EB5108816B01EB5821FFF72EFE42
:1027D000054640BB14F0010406F14C0908F1010A5A
:1027E000C8F3080808BFFBB230461FBF19F808300D
:1027F00003F00F023B0103F0F00318BF134309F885
:1028000008300123B16BF37001EB5A21FFF70EFE84
:10281000054640B9CAF3080A44B1C7F3071709F8D7
:102820000A700123F3702846BDE8F08719F80A30D2
:10283000C7F3032723F00F031F43F0E7816B01EB7E
:102840001421FFF7F3FD05460028ECD1640006F1E2
:102850004C0304F4FF741F551919C7F307274F7071
:10286000DFE70000F8B504460E461746E3690BB9EA
:102870001846F8BD012BA6EB0305206814BFAA1C5F
:102880003A46691CFFF76AFF0028F2D1E369013B71
:10289000E361EBE701292DE9F84306460C461746AC
:1028A000056802D80220BDE8F883EB6A8B42F9D9AB
:1028B0007AB9A14621463046A046FFF76FFE04468E
:1028C000B0B92B78042B02D1002F43D1F77100202F
:1028D000E9E72B78042B02D1C379022BE9D04FF022
:1028E000FF3239462846FFF739FF0028E1D0DAE702
:1028F0000128D7D0421C01D10120D4E72B78042B2A
:1029000019D1EA6AAB69023A93421CD308F1010279
:10291000A2420CD02B78042B08D10023A2EB090291
:1029200049462846FFF7FEFD0028BCD1A146EB6AC8
:10293000A342BFD8C5E7002241462846FFF70EFF55
:102940000028DED0AFE70133AB612B7943F0010300
:102950002B71DBE7F3798BB9B468BC4202D1022357
:10296000F371B4E721463046FFF718FE012899D9E4
:10297000431CC1D001348442EFD0A8E7032BA6D179
:10298000B368BB42A3D8B2691344BB429FD3E6E706
:1029900070B5C3790446032B06D181688369CD18CD
:1029A000A94203D10023E371002070BD4E1C2068B2
:1029B0003246FFF7D3FE0028F7D13146F0E700009A
:1029C0002DE9F74305460191FFF70AFD044600286B
:1029D00049D105F14C09019928464FF40072FFF7DF
:1029E00075FB2146A86407464846FFF7B7F96C898E
:1029F0006402B4F5004F28BF4FF40044B4F5007FE3
:102A00002FD9204604F07AFC804630B122460021BE
:102A1000640A0026FFF7A2F909E06408EEE72346FE
:102A2000BA194146687803F0F5FF18B926446B8956
:102A30009E42F4D3404604F071FC6889801B18BFA5
:102A4000012003B0BDE8F08301366B899E42F4D2C9
:102A50000123BA194946687803F0DCFF0028F3D057
:102A6000EBE70026F1E70120EBE70000F8B50446AC
:102A7000FFF7B6FC0546002842D12378032B37D157
:102A80002779012F34D104F14C0601464FF400722E
:102A90003046FFF763F955234122722184F84A3208
:102AA000AA2304F50D7084F84F2084F84B3252238A
:102AB00084F8301284F84C3084F84D30612384F867
:102AC000311284F84E3084F83332A16984F832220E
:102AD000FFF7E4FA616904F50E70FFF7DFFA626B45
:102AE0003B46314601326078A26403F093FF2571C2
:102AF00000226078114603F0B1FF003818BF0120B2
:102B0000F8BD000000232DE9F0430B6085B00F46AF
:102B10001546FFF71BFB061EC0F2B281804B53F82F
:102B20002640002C00F0AE813C6005F0FE052378C5
:102B30006BB1607803F048FFC70708D41DB110F0EF
:102B4000040500D00A25284605B0BDE8F08300231F
:102B5000F0B22370607003F023FFC10700F194818D
:102B60000DB14207EED400212046FFF779FC022880
:102B700040F099806E4604F2122304F2522132464C
:102B800018461033FFF784FA42F8040B8B42F7D152
:102B9000002556F8041B00297DD02046FFF760FC75
:102BA000012879D80128A26C40F0C08004F15703B5
:102BB00004F18C0113F8015B002D7BD18B42F9D11C
:102BC000B4F8B430B3F5807F74D194F8B830092BE1
:102BD00070D104F19400FFF75DFA4FF0FF3317183E
:102BE00041F10001BB4275EB010363D304F1A00086
:102BF000FFF74EFA94F8BA302063012BA37059D135
:102C000094F8B99003FA09F91FFA89F36381002B4C
:102C100050D0444B04F1A800FFF73AFA0646984218
:102C200048D8831C626304F1A400E362FFF730FA22
:102C300000EB020804F19C00C4F84080FFF728FA7A
:102C400010441FFA89F2A06306FB02F313EB08039A
:102C500045EB05029F4271EB02032BD32E4604F194
:102C6000AC00FFF715FAE06365B96389B34221D977
:102C7000E16B2046FFF72AFA81192046FFF7D6FBC1
:102C800098B90136631993F84C30812B14D0203554
:102C9000C5F30805E8E703200135042D7FF479AF7B
:102CA000042807D101E0042801D101254BE70128C0
:102CB0007FF678AF0D2546E705F1140004F14C06C8
:102CC0003044FFF7E5F901280546F3D9E36A83426A
:102CD000F0D96189821E236C02FB01336364A16B0E
:102CE000204601EBD511FFF7A1FB0028DDD105F04F
:102CF0007F0006EB8000FFF7CBF9431C03D00135C2
:102D0000A842ECD0D6E70425C4E90500064A2570A0
:102D100000251388E56101339BB21380E38012E73D
:102D20003C360020FDFFFF7F40360020B4F85730CE
:102D3000B3F5007FBED1B4F8626026B904F170002B
:102D4000FFF7A6F9064694F85C302663591EA37077
:102D50000129AFD894F859506581002DAAD0691E79
:102D60002942A7D1B4F85D8018F00F0FA4F80880AD
:102D7000A0D1B4F85F0018B904F16C00FFF788F92E
:102D8000B4F85A10002995D006FB03FE01EB181C7D
:102D9000F44460458ED3A0EB0C00A842B0FBF5F3E1
:102DA00088D33E48834285D84FF6F57083426DD96B
:102DB00003259F1C114402EB0C03032DE7626263A1
:102DC000A16323644CD1B4F8763053EA08037FF44E
:102DD00071AFBB0004F17800FFF75AF9E06303F22A
:102DE000FF13B6EB532FFFF465AF4FF0FF33032D06
:102DF000C4E905334FF08003237187D1B4F87C30E8
:102E0000012B83D1511C2046FFF710FB00287FF4D3
:102E10007DAFB4F84A224AF6552320719A427FF4D6
:102E200075AF1F4B04F14C00FFF732F998427FF465
:102E30006DAF03F1FF5304F50C70FFF729F903F5AB
:102E40000053203398427FF461AF04F50D70FFF713
:102E50001FF9A06104F50E70FFF71AF9606155E7DC
:102E6000B8F1000F3FF426AF7144022D4FEA47033B
:102E7000E1631EBFD91907F0010303EB5103AEE76D
:102E80000B2560E60C255EE603255CE640F6F5754D
:102E9000AB428CBF022501258BE700BFF5FFFF0F7A
:102EA000525261412DE9F84F07460568884649B9F5
:102EB0006E69C6B1EB6AB34298BF0126AB69A3B98C
:102EC000002405E0FFF76AFB0128044603D801242B
:102ED0002046BDE8F88F421C00F0D280EB6A8342A6
:102EE000F6D84646EAE70126E8E72A78EB6A042A9C
:102EF00040F08380A6F1020A023B4FF0010B9A4595
:102F000028BF4FF0000AD146696C284601EB193101
:102F1000FFF78CFA00283BD109F00703EA6AC9F3EE
:102F2000C8010BFA03F3901EDBB26A184C4609F194
:102F3000010992F84C20814502EA030233BF5B008D
:102F400000234FF40071DBB228BF9946B2B90234B6
:102F5000631E0333BCD80123214628461A46FFF7D7
:102F6000E1FA0228B3D0012800F08A80B8F1000FFE
:102F700013D10223FB710028A9D130E0CA450AD041
:102F8000002BD2D10131B1F5007FBDD20123CCE7B6
:102F90004FF0FF34DCE70024DAE7FB79022B07D19E
:102FA000731CA342E7D0BB68F31ABB610323FB7118
:102FB00008F10102FB69A24205D113B10133FB61A3
:102FC000D9E70223FBE70BB90123FB612246414607
:102FD0003846FFF747FC00284FD10123FB61EA6A1E
:102FE000AB69023A6C6193429CBF03F1FF33AB6162
:102FF0002B7943F001032B716AE7464514D1741C09
:103000003846A34298BF02242146FFF7C7FA012899
:103010003FF45DAF431C33D0E0B16B69012B03D9A2
:10302000EA6A934238BF1E4634460134EB6AA34233
:1030300003D8012E7FF644AF022421463846FFF71D
:10304000ADFA48B101283FF442AF013018D0B44284
:10305000EBD135E7002CE7D04FF0FF322146284670
:10306000FFF77CFB48B9B8F1000FB8D022464146C3
:103070002846FFF773FB0028B1D001287FF427AF63
:103080004FF0FF3424E700002DE9F84306680446BA
:10309000076B894633782037042B0CBF4FF08053E1
:1030A0004FF40013BB429CBF00238363836B73B157
:1030B000C7F30808B8F1000F3CD10133416B8363BB
:1030C00039B93389B3EB571F34D80023A3630420E5
:1030D0000AE07389013B13EA57232BD1FFF75EFA0D
:1030E0000128054602D80220BDE8F883421C01D120
:1030F0000120F9E7F36A834216D8B9F1000FE4D052
:10310000616B2046FFF7CEFE0546C8B10128EAD024
:10311000431CEDD001463046FFF752FC0028E7D1B2
:10312000E37943F00403E371294630466563FEF713
:10313000CDFFA0634C36002027634644E663D3E707
:103140000720D1E7F8B50E46002104460768FFF7CF
:10315000BDFA98B90546A16B3846FFF767F968B91B
:103160003A78E36B042A1B780CD11B060ED5054672
:1031700001212046FFF788FF0028ECD0042808BF73
:10318000072006E0E52B01D0002BF0D10135B54238
:10319000EED1F8BDC16C4B1C2DE9F0410446056829
:1031A000066B1FD1E5274FF00108A16B2846FFF7FA
:1031B0003DF998B92A78E36B042A09BF1A781F7081
:1031C00002F07F021A7085F80380236BB3420DD2A0
:1031D00000212046FFF758FF0028E6D0042808BF4A
:1031E000022003E0FFF772FA0028DBD0BDE8F0818F
:1031F0002DE9F04105460068A96B0669FFF716F94D
:10320000044620B9EB6B1A78852A03D002242046A5
:10321000BDE8F081324603F1200153F8040B8B42E4
:1032200042F8040BF9D1777801377F01A7F16003E9
:10323000B3F5007FEAD800212846FFF725FF0428D0
:103240000446E3D00028E2D1A96B2868FFF7EEF826
:1032500004460028DBD1EB6B1A78C02AD6D106F1E0
:10326000200203F1200153F8040B8B4242F8040BB7
:10327000F9D196F823300F222C33B3FBF2F3B7EBDE
:10328000431FC3D34FF0400800212846FFF7FCFE40
:1032900004280446BAD00028B9D1A96B2868FFF7E2
:1032A000C5F804460028B2D1EB6B1A78C12AADD11B
:1032B000B8F5187F09D206EB080203F1200153F894
:1032C000040B8B4242F8040BF9D108F12008474562
:1032D000DAD8B8F5187F9AD83046FEF71FFF738802
:1032E000834294D092E700000B68002210B503607F
:1032F00004460B6A83604B6AC261C37123F0FF030B
:10330000896AC0E90432C164FFF7E0F920B92046B8
:10331000BDE81040FFF76CBF10BD0000F8B50368B2
:10332000054601271C692046FEF7F8FEA070000A3A
:103330006678E0702846E96CFFF7C8F920B10228EA
:1033400028BF0220C0B2F8BDA96B2868FFF76EF84D
:103350000028F4D1EB6B04F1200254F8041B9442D2
:1033600043F8041BF9D12B68DF70002EE7D0002151
:103370002846013EFFF788FEE0E700002DE9F8430C
:103380004FF0FF0806460768042445464FF6FF79CC
:10339000B16B11B9002C73D063E03846FFF746F8E3
:1033A000044600285DD1F06B0378002B6ED03A788C
:1033B000042A11D1852B4DD1336B3046F364FFF7CE
:1033C00017FF044600284CD13B691B7903F03F03EB
:1033D000B3712046BDE8F883C27AE52B02F03F02C4
:1033E000B27143D02E2B41D022F0200108293DD0CC
:1033F0000F2A40D1590637D503F0BF05336B90F83B
:103400000D80F364437B434530D1428B72BB03781C
:103410000D21FC6823F04003DFF874E0013B4B43CF
:1034200001211EF801CB30F80CC009B3FF2B1DD8C9
:1034300024F813C06146013301320D2AF1D102781C
:10344000520605D521B1FF2B10D8002224F81320F5
:10345000013DEDB200213046FFF716FE044600287C
:1034600096D00023B363B4E7AB42CBD0FF25F1E79E
:10347000CC45E1D0FAE72DB9FEF740FE404501D139
:103480000024A6E74FF0FF33F364A2E70424E8E743
:10349000449400082DE9F04F002187B00446D0F88D
:1034A0000090FFF713F9804670B999F80030042BAB
:1034B00033D1D9F80C00FEF779FF07462046FFF715
:1034C0005DFF054620B18046404607B0BDE8F08F5D
:1034D000D9F810309A8CBA42F0D193F823B0402634
:1034E0005D4506D1D9F80C3033F81530002BE5D105
:1034F000EAE7F106D9F8103008BF0236985B01F010
:103500004DF8D9F80C30824633F8150001F046F832
:103510008245D3D102360135E2E74FF0FF0A4FF082
:10352000FF3B5546C4F84CB0A16B4846FEF77EFF02
:1035300000285CD1E66B3778002F77D0F27AE52F40
:1035400002F03F03A37103D0120704D50F2B04D060
:10355000C4F84CB04FE00F2B54D194F84B305806C0
:103560003FD4790645D5236B07F0BF0796F80DA029
:10357000E364737B53453ED1738B002B3BD135788D
:103580000121D9F80C3005F03F0501930D23013DD1
:103590005D43284B13F8012BB25A71B3FF2D0593ED
:1035A00029D81046049200F0F9FF6B1C0390029397
:1035B000019B33F8150000F0F1FF039981421AD105
:1035C000049A029D1146059B1B4A9342E2D133782F
:1035D0005A0604D519B1019B33F815305BB97D1E2D
:1035E000EDB200212046FFF74FFD00289CD0804619
:1035F0006AE7BD42BDD0FF25F3E74FF6FF70824278
:10360000E2D0F8E72DB93046FEF778FD50453FF49B
:103610005BAF94F84B30DB079AD40B2204F14001E6
:10362000304605F0E5FD002892D14DE74FF0040843
:103630004AE700BF44940008519400082DE9F04F78
:1036400090F84BB099B004461BF0A00540F068819B
:103650000668F26832F81530002B4AD13378042B13
:1036600040F087800F230E352046B5FBF3F5A91CEB
:10367000FFF768FD8146002877D1236B0135A3EB66
:103680004515E3795A07E56435D523F00403204650
:10369000E371FFF77DF950BB4FF0FF32616B2046BD
:1036A000FFF7E0F818BBA3682BB3214604A8FFF787
:1036B0001BFEE0B970894FF40071D4E90423E0FBEC
:1036C00001233069C4E904233830FEF7EFFC306988
:1036D000D4E904232830FEF7E9FCE379326904A831
:1036E00043F0010382F82130FFF718FE18B181463C
:1036F0003BE00135AEE7D6E90354402200212046E5
:10370000FEF72CFB8523012140222370C0234FF0BC
:10371000C10C04EB010884F8203000231E469E46AD
:10372000571C04F802C0F0B2023204F807E021B1DD
:1037300035F8131009B10133DBB20F0AA15408F8B0
:1037400002700232D706F2D135F813700136002F1D
:10375000E6D184F82330831C28466370FEF726FEEA
:1037600084F82400000A84F82500484619B0BDE812
:10377000F08F04F140070DF1100A1BF0010F97E8DC
:1037800007008AE8070000F0D38040234FF00108CB
:1037900084F84B30BC46F368B8F1050F9AE807008F
:1037A000ACE803002CF8022B4FEA12428CF8002000
:1037B00059D9981E424630F8021F002942D10DF116
:1037C0000F0C072102F00F0E914612090EF1300086
:1037D000392888BF0EF1370001390CF8010902D0F1
:1037E000B9F10F0FEED818AB7E205A1802F8580C1A
:1037F00038460022914206D010F801CB02F1010EAA
:10380000BCF1200F31D104F13F0C072902F1010274
:1038100097BF18AB20205818013198BF10F8580CEA
:10382000072A0CF80200F0D92046FFF733FE814644
:10383000002878D108F10108B8F1640FAAD14FF03F
:10384000070992E74FF0100C01F0010E49080EEB4A
:103850004202D30344BF82F4883282F02102BCF1D9
:10386000010CF1D1A7E74246A9E77246C2E7216BF6
:103870002046A1EB4511FEF729FF814600287FF481
:1038800074AF4FF6FF783846FEF738FC0190A16B15
:103890003046FEF7CBFD814600287FF466AFE36B30
:1038A000E9B2019A4FF00D0CD6F80CE05A734FF0C4
:1038B0000F02DFF8E0A0DA724A1E18730CFB02F266
:1038C00084469876D87640451AF8019B0CF1010C95
:1038D00018BF3EF8120003EB090B18BF013203F8C2
:1038E00009004FEA1029002808BF4046BCF10D0F1F
:1038F0008BF80190E7D1404502D03EF812200AB97A
:1039000041F040011970012300212046F370FFF7B8
:10391000BBFB814600287FF428AF013DB7D11BE0F7
:103920004FF0060921E704287FF41FAF84F84BB05D
:103930001BF0020F20461BBF0C350D210125B5FBE6
:10394000F1F518BF01352946FFF7FCFB8146002839
:103950007FF40BAF013D8AD1A16B3046FEF766FDC7
:10396000814600287FF401AF01462022E06BFEF77C
:10397000F5F9E36B03CF18605960BA7839889A7209
:10398000198194F84B30E26B03F018031373012391
:10399000F370EAE64494000810B504460A46343051
:1039A000FEF776FB886004F13800FEF773FBC2E98E
:1039B000040194F8213003F00203D3710023D36192
:1039C00010BD000003284B8B04BF8A8A43EA0243E0
:1039D000184670472DE9F04F0B7899B00446894698
:1039E0002F2BD0F800B001D05C2B09D14A461378B8
:1039F000914601322F2BFAD05C2BF8D0002301E046
:103A0000DBF81C30A3600023E3619BF80030042B3B
:103A10001ED1A368E3B1DBF82030214604A823625D
:103A2000DBF824306362DBF82830A362FFF75CFC2C
:103A30000346002854D1DBF8102002F13800FEF7CD
:103A400027FBC4E9040392F8213003F00203E37179
:103A500099F800301F2B00F2358180230021204689
:103A600084F84B3019B0BDE8F04FFEF72FBE494641
:103A70000B78894601312F2BFAD05C2BF8D01F2B05
:103A80008CBF00250425012F2FD113882E2B31D177
:103A9000002322F8173004F140029F428CBF2E21F0
:103AA000202101330B2B02F8011BF6D145F0200534
:103AB000204684F84B50FFF7EDFC94F84B3000287B
:103AC00000F0E78004280BD1990603F0040240F1CE
:103AD000DC80002A00F0F6808023002084F84B3040
:103AE00019B0BDE8F08F0425CDE7022F02D153882D
:103AF0002E2BCAD0911E87BB002322F81730002F2F
:103B000000F0118132F81300194601332028F9D052
:103B100009B92E2801D145F00305901E30F8173061
:103B20002E2B01D0013FF9D14FF020334FF0000A86
:103B30006364D0462364C4F847300823481C32F835
:103B400011600090F6B1202E03D02E2E0DD1B84278
:103B500010D045F003050099F0E731F81730202B1D
:103B600001D02E2BC8D1013FC5E79A4505D2009957
:103B7000B9423BD10B2B30D101E00B2B27D145F0C3
:103B800003050B2394F84020E52A04BF052284F89E
:103B90004020082B04BF4FEA88085FFA88F808F035
:103BA0000C030C2B03D008F00303032B01D145F0C9
:103BB0000205A8073FF57CAF18F0010F18BF45F0CC
:103BC000100518F0040F18BF45F0080570E70099BC
:103BD000B94202D045F00305D4D84FEA88080B2338
:103BE0004FF0080A00975FFA88F8B4E77F2E15D9DE
:103BF000304640F25231CDE9022345F002030193F1
:103C000000F098FC10F0800F0646DDE9022316D084
:103C100000F07F0646498E5D019D46B3314645481A
:103C2000CDE9012305F00EFBDDE90123F8B9A6F18A
:103C3000410189B219291ED848F0020810E0FF2876
:103C4000EAD9591E8A4503D345F003059A4682E70F
:103C500004EB0A01000A0AF1010A019D81F8400003
:103C600004EB0A010AF1010A81F8406073E745F0AC
:103C700003055F26F4E7A6F1610189B219299EBF09
:103C8000203E48F00108B6B2EAE7002A08BF052046
:103C900026E75A073FF524AFA379DB0645D59BF805
:103CA0000000042835D1A3682146E2792362236904
:103CB000DBF8100023F0FF0313436362E36CA3629D
:103CC000FFF76AFE23680027DA6819F8010B00285D
:103CD0003FF409AF40F25231009200F04BFC054630
:103CE00008B31F28009A7FF6FEAE2F283FF4BFAE20
:103CF0005C283FF4BCAE7F2805D801460E4805F08D
:103D0000A1FA009A78B9FF2F0DD022F81750013789
:103D1000DBE7216B0BF14C03C1F308011944FFF7FA
:103D200051FEA060CEE70620DAE60520D8E600BF07
:103D3000C4930008BD930008B49300081FB5CDE9F3
:103D4000001003A814460391FEF700FA002815DBC3
:103D50000B4A52F820300BB100211970019B0BB1B6
:103D60000021197042F820302CB1002201A96846C8
:103D7000FEF7C8FE0446204604B010BD0B24FAE747
:103D80003C3600202DE9F04798B090460546019159
:103D9000002800F0528102F03F0603A901A8324634
:103DA000FEF7B0FE002840F04681039B4FF48C6084
:103DB000049303F0A3FA0746002800F04081039B18
:103DC00000F500720199D86004A81A61FFF702FE9D
:103DD000044620B99DF95B30002BB8BF062418F0CB
:103DE0001C0F00F0CD80002C4CD0042C40D104A836
:103DF000FFF724FC044600283AD146F00806039B4E
:103E00001A78042A40F08380186929462B60FFF74E
:103E1000C3FD039B1E22002118690230FDF79EFF9F
:103E2000039C00211A2220692630FDF797FF2369A1
:103E300020221A71246903F09BFA014601220834FA
:103E40002046FEF72BF9039B04A81B6983F8212069
:103E5000FFF764FA044658B9A96801B30246284638
:103E6000FEF718FDAB68039A0446013B5361B4B1F9
:103E7000384603F053FA0CB100232B60204618B0EB
:103E8000BDE8F0879DF8163013F0110F40F08480E4
:103E900018F0040F40F0C98018F0080FAFD1039A52
:103EA00031071399936C48BF46F04006E964AB6450
:103EB0001078042872D1069B9DF817102B62089B7E
:103EC000106923F0FF030B4329466B62179BAB621B
:103ED000FFF762FDDDF80CA00024002205F1500878
:103EE000BAF8063021464046C5F800A0AB80002352
:103EF00085F8306085F831406C64C5E90E234FF4D5
:103F00000072FDF72BFFB20653D40024B0E703F094
:103F10002FFA0146009013980E30FEF7BFF8139861
:103F200000991630FEF7BAF8039C13992078FFF732
:103F300049FD202300228046CB7220461399FEF7CC
:103F4000D1F8139B002201211A775A779A77DA77F2
:103F5000039BD970B8F1000FA1D0414604A8D3F853
:103F60004890FEF797FC0446002881D14946039803
:103F7000FEF75CFA039B044608F1FF30586176E7D0
:103F8000002C7FF475AF9DF81630DC064FD418F086
:103F9000020F84D0D80782D5072469E7FFF712FD06
:103FA0000023A86001F11C00FEF772F86B61286124
:103FB00090E7D5E9046956EA0903A6D0BAF80AA041
:103FC000A9684FEA4A2AC5E90E69B24574EB0903AC
:103FD0001BD300242964002C7FF44AAFC6F30803E6
:103FE000002B92D0039C2046FEF770F808B3760AA7
:103FF0000123414646EAC95682196A64607802F094
:10400000E5FC041E18BF012432E72846FEF7C6FA75
:10401000B6EB0A06014669F10009012803D9431CE1
:10402000D3D10124D6E70224D4E7082420E70424CE
:104030001EE702241CE704461EE709241EE711249C
:104040001CE700002DE9F04F994685B00023884613
:1040500003A90446C9F800301646FEF791F8054654
:1040600080BB94F831506DBB94F8303013F00103ED
:10407000009300F0A68004F1500AD4E90432D4E998
:104080000E011B1A62EB0102B34272F1000238BF4B
:104090001E46BEB1D4E90E10C1F30803002B40F058
:1040A0008280039B5A894B0A013A43EAC0531A4063
:1040B0001BD151EA000309D1A06801280DD80225BF
:1040C00084F83150284605B0BDE8F08F216C2046B9
:1040D0000192FEF763FA019AEFE7431C04D1012332
:1040E000009D84F83130EDE72064DDF80CB0216CE0
:1040F0005846FDF7EBFF0028E1D0B6F5007F02EB54
:10410000000731D3BBF80A1002EB5620730A88422D
:104110009BF8010088BF8B1A3A464146019302F092
:1041200055FC0028DBD194F93020019B002A0BDAE2
:10413000606CC01B984207D24FF40072514608EBE6
:104140004020FDF7E5FD019B5F02D9F80030F61B2A
:10415000B8443B44C9F80030D4E90E32DB1942F1CF
:104160000002C4E90E3294E7626CBA421AD094F9A4
:104170003030002B0DDA012351469BF8010002F08C
:1041800049FC0028ABD194F8303003F07F0384F869
:104190003030039801233A465146407802F016FC2D
:1041A00000289CD16764A16B4046C1F30801C1F5AA
:1041B00000775144B74228BF37463A46FDF7A8FD7D
:1041C000C3E707257EE7000070B596B00E460022D3
:1041D000019002A901A8FEF795FC0446E0B94FF44E
:1041E0008C6003F08BF80546D8B1029B00F5007295
:1041F0000199D86002A81A61FFF7ECFB044640B9A8
:104200009DF95330002B0ADB1EB1314602A8FDF7A1
:10421000EDFF284603F082F8204616B070BD062454
:10422000F7E71124F8E7000070B5B8B0022201905A
:1042300003A901A8FEF766FC044608BB039B4FF4E4
:104240008C60109303F05AF80546002866D0039B53
:1042500000F500720199D86010A81A61FFF7BAFB47
:10426000044650B99DF88B30980655D4190653D49E
:104270009DF84630DA0706D50724284603F04EF8A5
:10428000204638B070BD039B04931878042814D1DD
:1042900004A91869FFF780FB069E9DF84630DB06EF
:1042A00010D410A8FEF776FF04460028E5D156BBCF
:1042B0000398FEF7DBFB0446DFE71F99FFF782FB5D
:1042C0000646EAE7039BDA69B242D5D0249300217F
:1042D000269624A81B78042B01BFDDE90823CDE92D
:1042E00028239DF817308DF89730FEF7EFF9044634
:1042F0000028C2D124A8FFF741F804460028BBD00B
:104300000428BAD1CDE70246314604A8FEF7C2FA26
:1043100004460028B1D1CBE70624AEE71124AFE76D
:10432000F0B5BDB0CDE900106846FDF70FFF0222E1
:1043300003A901A8FEF7E6FB0446002841D1039B30
:104340004FF48C60149302F0D9FF0546002800F06A
:10435000EE80039B00F5007214AE0199D8601A61DB
:104360003046FFF737FB044640BB9DF89B3013F007
:10437000A00F40F0D880039B009F1A78042A68D1D0
:104380001B6904AC03F1400C1868083353F8041C93
:104390002246634503C21446F6D15022314628A86E
:1043A000FDF7B6FC394628A8FFF714FB04460028A1
:1043B0004CD12A9A169B9A4206D00824284602F02D
:1043C000ADFF20463DB0F0BD349A209B9A42F4D117
:1043D00028A8FFF733F904460028EFD1039B04AF68
:1043E0001B6993F801E093F823C09C8C3A4608338C
:1043F00003CAB24243F8080C43F8041C1746F5D12F
:10440000039B28A81B6983F801E0039B1A6982F8C3
:1044100023C01A6982F82440240A82F825401A69C8
:104420001379D9065CBF43F020031371FEF776FFC2
:1044300004460028C2D13046FEF7ACFE04460028F0
:10444000BCD10398FEF712FB0446B7E70428B5D1A8
:10445000BEE7239A04AB02F1200C1068083252F830
:10446000041C1C46624503C42346F6D15022314643
:1044700028A8FDF74DFC394628A8FFF7ABFA0446FB
:1044800000284CD12A9A169B9A4296D1349A209BA6
:104490009A4292D128A8FFF7D1F8044600288DD17E
:1044A00037990DF11D030DF12D0001F10D0253F8A7
:1044B000044B834242F8044BF9D11888012710803D
:1044C0009B7893709DF81B30039CDA0658BF43F02D
:1044D0002003CB72E770CB7ADB06ACD5169A2A9B09
:1044E0009A42A8D02078FFF76DFA01462046FDF7E2
:1044F000EDFD0146C8B12046FDF798FF04460028AF
:104500007FF45CAF039890F86D302E2B93D12A9AEC
:1045100000F16C01FDF7E6FD039BDF708BE70428DB
:104520007FF44CAFB6E7062448E7022446E711249F
:1045300047E700007F2810B501D880B210BDB0F564
:10454000803F13D240F2523399420FD108490022E2
:1045500031F8024B93B2844203D103F18000C0B220
:10456000ECE70132802AF3D11346F6E70020E5E7B5
:10457000049700087F280DD940F25233994208D1A0
:10458000FF2806D800F10040034B803833F81000B4
:1045900070470020704700BF04970008B0F5803FC7
:1045A000F0B522D21F4A83B21F49B0F5805F28BF01
:1045B0000A46141D34F8042C2146AAB1934213D3A1
:1045C00034F8025C2E0AEFB252FA85F5A84222DADC
:1045D000082E09D8DFE806F0050A10121416181A7A
:1045E0001C00801A34F810301846F0BD981A00F0FC
:1045F00001001B1A9BB2F7E7103BFBE7203BF9E7F2
:10460000303BF7E71A3BF5E70833F3E7503BF1E7B8
:10461000A3F5E353EEE70434002ECBD101EB4702C0
:10462000C7E700BF549400084896000808B5074B38
:10463000074A196801F03D01996053680BB1906811
:104640009847BDE8084003F0ADB800BF0000024045
:104650004436002008B5084B1968890901F03D016E
:104660008A019A60054AD3680BB110699847BDE882
:10467000084003F097B800BF000002404436002015
:1046800008B5084B1968090C01F03D010A049A604D
:10469000054A53690BB190699847BDE8084003F09B
:1046A00081B800BF000002404436002008B5084B26
:1046B0001968890D01F03D018A059A60054AD369A0
:1046C0000BB1106A9847BDE8084003F06BB800BF13
:1046D000000002404436002008B5074B074A5968DD
:1046E00001F03D01D960536A0BB1906A9847BDE86B
:1046F000084003F057B800BF0000024044360020D5
:1047000008B5084B5968890901F03D018A01DA6052
:10471000054AD36A0BB1106B9847BDE8084003F017
:1047200041B800BF000002404436002008B5084BE5
:104730005968090C01F03D010A04DA60054A536B1F
:104740000BB1906B9847BDE8084003F02BB800BF51
:10475000000002404436002008B5084B5968890D16
:1047600001F03D018A05DA60054AD36B0BB1106C8C
:104770009847BDE8084003F015B800BF00000240AC
:104780004436002008B5074B074A196801F03D017F
:104790009960536C0BB1906C9847BDE8084003F0EA
:1047A00001B800BF000402404436002008B5084BA1
:1047B0001968890901F03D018A019A60054AD36CA4
:1047C0000BB1106D9847BDE8084002F0EBBF00BF89
:1047D000000402404436002008B5084B1968090C53
:1047E00001F03D010A049A60054A536D0BB1906DCA
:1047F0009847BDE8084002F0D5BF00BF0004024062
:104800004436002008B5084B1968890D01F03D01B8
:104810008A059A60054AD36D0BB1106E9847BDE8C2
:10482000084002F0BFBF00BF000402404436002031
:1048300008B5074B074A596801F03D01D960536E2E
:104840000BB1906E9847BDE8084002F0ABBF00BFC7
:10485000000402404436002008B5084B5968890915
:1048600001F03D018A01DA60054AD36E0BB1106F89
:104870009847BDE8084002F095BF00BF0004024021
:104880004436002008B5084B5968090C01F03D0179
:104890000A04DA60054A536F0BB1906F9847BDE880
:1048A000084002F07FBF00BF0004024044360020F1
:1048B00008B5084B5968890D01F03D018A05DA6099
:1048C000054AD36F13B1D2F880009847BDE808407D
:1048D00002F068BF000402404436002000230C4967
:1048E00010B51A460B4C0B6054F82300026001EB24
:1048F000430004334260402BF6D1074A4FF0FF33A8
:104900009360D360C2F80834C2F80C3410BD00BF05
:104910004436002004980008000002400F28F8B533
:1049200010D9102810D0112811D0122808D10F2426
:104930000720DFF8C8E00126DEF80050A04208D9C1
:10494000002653E00446F4E70F240020F1E7072493
:10495000FBE706FA00F73D424AD1264C4FEA001C1D
:104960003D4304EB00160EEBC000CEF80050C0E94A
:104970000123FBB273B12048D0F8D83043F00103D3
:10498000C0F8D830D0F8003143F00103C0F800314E
:10499000D0F8003117F47F4F0ED01748D0F8D83038
:1049A00043F00203C0F8D830D0F8003143F00203DE
:1049B000C0F80031D0F8003154F80C00036823F03F
:1049C0001F030360056815F00105FBD104EB0C0320
:1049D0003D2493F80CC05F6804FA0CF43C60212479
:1049E0000560446112B1987B00F0CAFC3046F8BD06
:1049F0000130A3E704980008004402584436002020
:104A000010B5302484F31188FFF788FF002383F367
:104A1000118810BD10B50446807B00F0C7FC01234F
:104A20001549627B03FA02F20B6823EA0203DAB249
:104A30000B6072B9114AD2F8D81021F00101C2F806
:104A4000D810D2F8001121F00101C2F80011D2F8FB
:104A5000002113F47F4F0ED1084BD3F8D82022F059
:104A60000202C3F8D820D3F8002122F00202C3F8D2
:104A70000021D3F8003110BD443600200044025814
:104A800008B5302383F31188FFF7C4FF002383F3B5
:104A9000118808BD836CC26A8B42506810B506D974
:104AA0005A1E4C0002EB4103B3FBF4F3184410BD53
:104AB00001F001038A0748BF43F002034A0748BFD9
:104AC00043F008030A0748BF43F00403CA0648BF7F
:104AD00043F010038A06426B48BF43F020031343A0
:104AE0004363704710B5074C204600F0CBFF064BE0
:104AF0000022C4E91023054BA364054BE363054B77
:104B0000E36410BDC83600200024024800B4C40489
:104B10001C3700201C390020C36A0BB9104BC3623C
:104B20000379012B11D10F4B98420ED10E4BD3F8C4
:104B3000DC2042F40072C3F8DC20D3F8042142F4F4
:104B40000072C3F80421D3F80431436C00221A65C3
:104B5000DA621A605A605A624FF0FF329A63704705
:104B600004990008C8360020004402580379012B3C
:104B70001BD0436C00221A65DA621A605A605A62CE
:104B80004FF0FF329A63094B98420ED1084BD3F88D
:104B9000DC2022F40072C3F8DC20D3F8042122F4D4
:104BA0000072C3F80421D3F804317047C8360020DE
:104BB0000044025810B5446C0649FFF76BFF606073
:104BC000236842F2107043F003032360BDE81040F5
:104BD00001F05EBD801A06000129F8B5466C0B4F46
:104BE00009D175680A493D40FFF754FF054345F474
:104BF00080557560F8BD746806493C40FFF74AFF70
:104C0000044344F480547460F4E700BF00ECFFFFF9
:104C100080F0FA0240787D01436C00225A601A60ED
:104C200070470000426C0129536823F4404304D0CC
:104C3000022905D001B95360704743F48043FAE775
:104C400043F40043F7E70000436C41F480519A605D
:104C5000D9605A6B1206FCD580229A637047000017
:104C600010B541F48851446CA260E160616B11F0B1
:104C70004502FBD0A26311F0040203D0FFF718FF36
:104C8000012010BD616910461960FAE710B541F4C2
:104C90008851446CA260E160616B11F04502FBD069
:104CA000A26311F0050203D0FFF702FF012010BD3F
:104CB000616910461960FAE773B5134604460E465B
:104CC000302282F31188426CD26B32B14FF0FF3147
:104CD0004030019301F0E8FC019B606C002202650A
:104CE000C263C262456B15F4807504D185F31188E7
:104CF000012002B070BD4FF0FF31816382F3118853
:104D0000012E06D90C21204602B0BDE87040FFF705
:104D1000BDBF1046EDE7000073B5446C0E4600259C
:104D20000192616BA1632565E562FFF7C1FE012E6B
:104D300007D9019B2A460C2102B0BDE87040FFF75D
:104D4000A5BF02B070BD000010B541F49851446C8D
:104D5000A260E160616B11F04502FBD0A26311F02B
:104D60003F0203D0FFF7A4FE012010BD216A1046C8
:104D70001960E1695960A16999606169D960F4E7D6
:104D80002DE9F74304460191006D01A917469846A5
:104D900002F030FC064600284AD0626C2046DDF85E
:104DA00004905568C5F3090501356B00A56CB5FB8A
:104DB000F3F54FF47A73B5FBF3F55D43556200F0FC
:104DC00027FE50BB636C4FF0FF3201254146C3F80C
:104DD000589020461D659A634FF49572DA6342F24B
:104DE00007029F62DA62E36C0A9AFFF74FFFA0B9ED
:104DF000E26C104B11680B407BB929462046FFF747
:104E00005BFF054648B92E463A460199206D02F0EF
:104E100029FC304603B0BDE8F0833A460199206D85
:104E200002F020FCE26C01212046FFF775FFF0E75D
:104E30000126EEE708E0FFFD2DE9F7431F46436C2E
:104E400001924FF47A725D6804468846C5F30905FD
:104E500001356E00856CB5FBF6F5B5FBF2F55543F3
:104E60005D6200F0D5FD20B10125284603B0BDE804
:104E7000F0837E0201A9206D324602F0BBFB05469D
:104E80000028F1D0636C019AD4F84C909A65012205
:104E90001A654FF0FF329A634FF49572DA639E629F
:104EA000236BDB064B4658BF4FEA4828012F42468A
:104EB0001BD912212046FFF7E9FEC0B9D9F800201E
:104EC000104B13409BB9636C42F293023946204663
:104ED000DA62E26CFFF7F0FE804640B93246019993
:104EE000206D454602F0BEFBBFE71121E2E73246E6
:104EF0000199206D02F0B6FBE26C39462046FFF7BF
:104F00000BFFB2E708E0FFFD2DE9F3411F46436CBC
:104F100001924FF47A725D6804468846C5F309052C
:104F200001356E00856CB5FBF6F5B5FBF2F5554322
:104F30005D6200F06DFD20B10125284602B0BDE89C
:104F4000F0817E0201A9206D324602F099FB0546F0
:104F50000028F1D0636C019A9A6501221A654FF01E
:104F6000FF329A634FF48D72DA639E62236BE66CB4
:104F7000DB06334658BF4FEA4828012F424619D96D
:104F800019212046FFF782FEB0B932680F4B13405B
:104F900093B9636C42F2910239462046DA62E26CC0
:104FA000FFF78AFE064638B901993546206D02F0B2
:104FB000A3FBC2E71821E4E70199206D02F09CFBF6
:104FC000E26C39462046FFF7A7FEB6E708E0FFFD92
:104FD00012F0030F2DE9F04107460C4615461E4618
:104FE00017D00E44B44202D10020BDE8F081012365
:104FF000FA6B21463846FFF71FFF0028F5D12846F7
:105000004FF40072F96B05F500750134FCF780FE72
:10501000E8E7BDE8F041FFF70FBF000012F0030F13
:105020002DE9F04107460C4615461E4617D00E44A2
:10503000B44202D10020BDE8F08129464FF400724D
:10504000F86B05F50075FCF763FE0123FA6B21464A
:105050003846FFF759FF0028EDD10134E8E7BDE8F5
:10506000F041FFF751BF000000207047302310B51A
:1050700083F311880024436C40302146DC6301F047
:1050800021FB84F3118810BD02684368114301605D
:1050900003B1184770470000024A136843F0C00389
:1050A0001360704700480040024A136843F0C00391
:1050B0001360704700500040024A136843F0C00379
:1050C0001360704700780040064BD3F8E820024395
:1050D000C3F8E820D3F810211043C3F81001D3F827
:1050E000103170470044025837B5274C274D2046F1
:1050F00000F028FD04F11400009400234FF4007226
:10510000234900F0C3F94FF40072224904F138003A
:105110000094214B00F03CFA204BC4E91735204C99
:10512000204600F00FFD04F11400009400234FF41A
:1051300000721C4900F0AAF94FF400721A4904F1F8
:1051400038000094194B00F023FA194BC4E91735C5
:10515000184C204600F0F6FC04F1140000234FF434
:1051600000721549009400F091F9144B4FF400724D
:10517000134904F13800009400F00AFA114BC4E915
:10518000173503B030BD00BF2039002000E1F50520
:10519000643A002064400020995000080048004014
:1051A0008C390020643C002064420020A950000893
:1051B00000500040F8390020643E0020B95000083B
:1051C000644400200078004038B5264D0446037C36
:1051D000002918BF0D46012B06D1234B984230D130
:1051E0004FF48020FFF770FF2A68236EE16D03EB18
:1051F0005203A566B3FBF2F36A68100442BF23F0C2
:10520000070003F0070343EA4003CB60AB6843F0B9
:1052100040034B60EB6843F001038B6042F49673EC
:1052200043F001030B604FF0FF330B62510505D5CE
:1052300012F0102211D0B2F1805F10D084F86430E7
:1052400038BD0A4B984205D0094B9842CCD14FF05B
:105250008040C7E74FF48010C4E77F23EEE73F2389
:10526000ECE700BF0C990008203900208C390020A1
:10527000F83900202DE9F047C66D05463768F46916
:10528000210734621AD014F0080118BF4FF480715E
:10529000E20748BF41F02001A3074FF0300348BFA9
:1052A00041F04001600748BF41F0800183F311885D
:1052B000281DFFF7E9FE002383F31188E2050AD5D4
:1052C000302383F311884FF48061281DFFF7DCFE43
:1052D000002383F311884FF030094FF0000A14F0D7
:1052E000200838D13B0616D54FF0300905F1380AB1
:1052F000200610D589F31188504600F07DF900286A
:1053000036DA0821281DFFF7BFFE27F0800333603F
:10531000002383F31188790614D5620612D5302351
:1053200083F31188D5E913239A4208D12B6C33B14A
:1053300027F040071021281DFFF7A6FE3760002345
:1053400083F31188E30618D5AA6E1369ABB15069CF
:10535000BDE8F047184789F31188736A284695F825
:105360006410194000F008FC8AF31188F469B6E76C
:10537000B06288F31188F469BAE7BDE8F0870000ED
:10538000090100F16043012203F56143C9B283F8CA
:10539000001300F01F039A4043099B0003F1604390
:1053A00003F56143C3F880211A60704700F01F03C2
:1053B00001229A40430900F160409B0000F56140E2
:1053C00003F1604303F56143C3F88020C3F88021F3
:1053D000002380F800337047F8B51546826804460C
:1053E0000B46AA4200D28568A1692669761AB542A1
:1053F0000BD218462A46FCF78BFCA3692B44A36109
:105400002846A3685B1BA360F8BD0CD9AF1B1846E8
:105410003246FCF77DFC3A46E1683044FCF778FC04
:10542000E3683B44EBE718462A46FCF771FCE36867
:10543000E5E7000083689342F7B50446154600D2BD
:105440008568D4E90460361AB5420BD22A46FCF7C7
:105450005FFC63692B4463612846A3685B1BA36000
:1054600003B0F0BD0DD93246AF1B0191FCF750FCE3
:1054700001993A46E0683144FCF74AFCE3683B4452
:10548000E9E72A46FCF744FCE368E4E710B50A4480
:105490000024C361029B8460C16002610362C0E9B1
:1054A0000000C0E9051110BD08B5D0E905329342EE
:1054B00001D1826882B98268013282605A1C4261DD
:1054C00019700021D0E904329A4224BFC3684361B5
:1054D00001F012F9002008BD4FF0FF30FBE700009B
:1054E00070B5302304460E4683F31188A568A5B134
:1054F000A368A269013BA360531CA36115782269CC
:10550000934224BFE368A361E3690BB12046984747
:10551000002383F31188284607E03146204601F036
:10552000DBF80028E2DA85F3118870BD2DE9F74F2A
:1055300004460E4617469846D0F81C904FF0300AA5
:105540008AF311884FF0000B154665B12A463146A3
:105550002046FFF741FF034660B94146204601F06F
:10556000BBF80028F1D0002383F31188781B03B027
:10557000BDE8F08FB9F1000F03D001902046C84775
:10558000019B8BF31188ED1A1E448AF31188DCE726
:10559000C160C361009B82600362C0E905111144D0
:1055A000C0E9000001617047F8B504460D46164693
:1055B000302383F31188A768A7B1A368013BA360D8
:1055C00063695A1C62611D70D4E904329A4224BF97
:1055D000E3686361E3690BB120469847002080F3DC
:1055E000118807E03146204601F076F80028E2DA1B
:1055F00087F31188F8BD0000D0E9052310B59A4261
:1056000001D182687AB982680021013282605A1C15
:1056100082611C7803699A4224BFC368836101F0E8
:105620006BF8204610BD4FF0FF30FBE72DE9F74F38
:1056300004460E4617469846D0F81C904FF0300AA4
:105640008AF311884FF0000B154665B12A463146A2
:105650002046FFF7EFFE034660B94146204601F0C1
:105660003BF80028F1D0002383F31188781B03B0A6
:10567000BDE8F08FB9F1000F03D001902046C84774
:10568000019B8BF31188ED1A1E448AF31188DCE725
:105690000379052B05BF836A002001204B6004BFFE
:1056A0004FF400730B60704770B55D1E866A044648
:1056B0000D44B54205D9436B43F080034363012099
:1056C00070BD06250571FFF783FC05232371F7E7FD
:1056D00070B55D1E866A04460D44B54205D9436B1C
:1056E00043F080034363012070BD07250571FFF778
:1056F00095FC05232371F7E738B505790446052D98
:1057000005D108230371FFF7AFFC257138BD0120D7
:10571000FCE700000323F0B5037185B00446FFF7F2
:1057200049FA002220461146FFF78EFA4FF4D5724F
:1057300003AB08212046FFF7A9FA0246B8B90123B6
:105740002363039BC3F30323012B09D103AB37214D
:105750002046FFF79BFA18B9A44B039A1340ABB14C
:1057600020460125FFF758FA0223237137E103ABE6
:10577000002237212046FFF789FA28B99B4A039B6C
:105780001A40002A00F0A78002232363236B03F052
:105790000F03022B40F0A9806425954E42F2107051
:1057A00000F076FF03AB324601212046FFF758FA9E
:1057B0000028D5D1039B002B80F293805A0003D59B
:1057C000236B43F010032363002204F1080302213A
:1057D0002046FFF7B9FA02460028C1D104F1380388
:1057E00003212046FFF752FA0028B9D104F1180529
:1057F000A26B092120462B46FFF7A6FA0028AFD15D
:1058000002ABA26B07212046FFF740FA06460028AC
:10581000A6D1236B03F00F03022B40F08F807E2272
:105820007F21284603F02CFA012840F28780E76B9D
:1058300042F2107000F02CFF08234FF4007239463A
:1058400020460096FFF79CFA002889D1384603F0DD
:1058500065FA236BA06203F00F03022B72D103AB36
:10586000644A06212046FFF711FA002871D15F49EA
:10587000039B1940B1FA81F149092046FFF7ACF9C1
:1058800002AB4FF4007210212046FFF7FFF90546E6
:1058900000287FF465AF554E029B33427FF460AF22
:1058A000236B13F00E0F03F00F0273D0022A7FF464
:1058B00057AFE36A1978012900F09480022900F0BB
:1058C0009380002900F089804B4F2046FFF7AAF90A
:1058D00003AB3A4676E0114620462263FFF7B4F95F
:1058E00054E7013D7FF45AAF3AE7444D6426444AF9
:1058F0003E4F012B18BF154603AB0022372120462F
:10590000FFF7C4F900287FF42BAF039B3B427FF4E1
:1059100027AF03AB2A4629212046FFF7A1F900282B
:105920007FF41EAF039B002BFFF648AF013E3FF410
:1059300017AF42F2107000F0ABFEDDE7284603F02F
:10594000C1F986E77E227F212846E66B03F098F9AD
:1059500008B9002191E700234022314620460093F8
:105960000623FFF70DFA0028F3D1B3895BBA9B0732
:10597000EFD5244B40223146204600930623FFF703
:10598000FFF90028E5D1317C01F00F010F3918BF74
:10599000012172E7E36A1978F9B101297FF4E0AED9
:1059A0002046FFF73FF903ABA26B37212046FFF7F4
:1059B0006DF900287FF4D4AE039B33427FF4D0AE60
:1059C00003AB022206212046FFF760F900287FF48E
:1059D000C7AE039B33427FF4C3AE05232371284631
:1059E00005B0F0BD084F70E7084F6EE708E0FFFD17
:1059F0000080FFC00001B9030000B7030080FF5022
:105A000000001080F1FFFF800001B7030002B70320
:105A100037B504460C4D01ABA26B0D212046FFF7B4
:105A200035F978B9019B2B420BD1C3F34323042BE7
:105A300008D0053B022B04D84FF47A7000F028FE02
:105A4000E9E7012003B030BD08E0FFFD70B5302369
:105A5000054683F3118803790024022B03D184F3D4
:105A60001188204670BD0423037184F31188022637
:105A7000FFF7CEFF04462846FFF7CEF82E71F0E779
:105A8000FFF730B8044B0360012303710023436325
:105A9000C0E90A33704700BF2499000810B53023CD
:105AA000044683F31188C162FFF736F80223002011
:105AB000237180F3118810BD10B53023044683F3A1
:105AC0001188FFF753F800230122E362227183F368
:105AD000118810BD026843681143016003B1184783
:105AE000704700001430FFF721BD00004FF0FF3376
:105AF0001430FFF71BBD00003830FFF797BD0000E2
:105B00004FF0FF333830FFF791BD00001430FFF73E
:105B1000E7BC00004FF0FF311430FFF7E1BC00009C
:105B20003830FFF741BD00004FF0FF323830FFF74B
:105B30003BBD0000012914BF6FF013000020704727
:105B4000FFF7D2BA044B036000234360C0E902337D
:105B500001230374704700BF4899000810B5302333
:105B6000044683F31188FFF72FFB022300202374E0
:105B700080F3118810BD000038B5C36904460D4696
:105B80001BB904210844FFF7A5FF294604F11400BE
:105B9000FFF78AFC002806DA201D4FF40061BDE8FB
:105BA0003840FFF797BF38BD026843681143016072
:105BB00003B118477047000013B5406B00F58054DF
:105BC000D4F8A4381A681178042914D1017C022968
:105BD00011D11979012312898B4013420BD101A9EC
:105BE0004C3002F07BFFD4F8A4480246019B217997
:105BF000206800F0DFF902B010BD0000143002F0A0
:105C0000FDBE00004FF0FF33143002F0F7BE00007D
:105C10004C3002F0CFBF00004FF0FF334C3002F0A9
:105C2000C9BF0000143002F0CBBE00004FF0FF31BE
:105C3000143002F0C5BE00004C3002F09BBF0000E3
:105C40004FF0FF324C3002F095BF0000002070474B
:105C500010B500F58054D4F8A4381A6811780429D6
:105C600017D1017C022914D15979012352898B4023
:105C700013420ED1143002F05DFE024648B1D4F852
:105C8000A4484FF4407361792068BDE8104000F0EB
:105C90007FB910BD406BFFF7DBBF0000704700000D
:105CA0007FB5124B012504260446036000230574CA
:105CB00000F1840243602946C0E902330C4B029094
:105CC000143001934FF44073009602F00FFE094B1D
:105CD00004F69442294604F14C000294CDE9006395
:105CE0004FF4407302F0D6FE04B070BD7099000806
:105CF000955C0008B95B00080A68302383F31188BB
:105D00000B790B3342F823004B79133342F823000D
:105D10008B7913B10B3342F8230000F58053C3F89D
:105D2000A41802230374002080F311887047000038
:105D300038B5037F044613B190F85430ABB9012550
:105D4000201D0221FFF730FF04F114006FF0010164
:105D5000257700F0DDFC04F14C0084F854506FF01E
:105D60000101BDE8384000F0D3BC38BD10B50121B9
:105D700004460430FFF718FF0023237784F85430DB
:105D800010BD000038B504460025143002F0C6FDF1
:105D900004F14C00257702F095FE201D84F8545044
:105DA0000121FFF701FF2046BDE83840FFF750BF53
:105DB00090F8803003F06003202B06D190F881200A
:105DC0000023212A03D81F2A06D800207047222A40
:105DD000FBD1C0E91D3303E0034A42670722826713
:105DE000C3670120704700BF4422002037B500F58B
:105DF0008055D5F8A4381A68117804291AD1017C85
:105E0000022917D11979012312898B40134211D12C
:105E100000F14C04204602F015FF58B101A92046BC
:105E200002F05CFED5F8A4480246019B2179206867
:105E300000F0C0F803B030BD01F10B03F0B550F82D
:105E4000236085B004460D46FEB1302383F31188EC
:105E500004EB8507301D0821FFF7A6FEFB6806F15D
:105E60004C005B691B681BB1019002F045FE019874
:105E700003A902F033FE024648B1039B294620469F
:105E800000F098F8002383F3118805B0F0BDFB689B
:105E90005A691268002AF5D01B8A013B1340F1D1E0
:105EA00004F18002EAE70000133138B550F82140D0
:105EB000ECB1302383F3118804F58053D3F8A42880
:105EC0001368527903EB8203DB689B695D6845B117
:105ED00004216018FFF768FE294604F1140002F05F
:105EE00033FD2046FFF7B4FE002383F3118838BD4D
:105EF0007047000001F054BD01234022002110B57D
:105F0000044600F8303BFBF729FF0023C4E90133C6
:105F100010BD000010B53023044683F311882422FD
:105F2000416000210C30FBF719FF204601F05AFDBB
:105F300002230020237080F3118810BD70B500EBA0
:105F40008103054650690E461446DA6018B11022E6
:105F50000021FBF703FFA06918B110220021FBF715
:105F6000FDFE31462846BDE8704001F041BE00000C
:105F700083682022002103F0011310B504468360DA
:105F80001030FBF7EBFE2046BDE8104001F0BCBE30
:105F9000F0B4012500EB810447898D40E4683D435E
:105FA000A469458123600023A2606360F0BC01F016
:105FB000D9BE0000F0B4012500EB810407898D40B3
:105FC000E4683D436469058123600023A260636047
:105FD000F0BC01F04FBF000070B50223002504465D
:105FE000242203702946C0F888500C3040F8045C25
:105FF000FBF7B4FE204684F8705001F08DFD636815
:106000001B6823B129462046BDE87040184770BD83
:106010000378052B10B504460AD080F88C30052390
:10602000037043681B680BB1042198470023A360E9
:1060300010BD00000178052906D190F88C20436836
:1060400002701B6803B118477047000070B590F8E4
:106050007030044613B1002380F8703004F18002E0
:10606000204601F075FE63689B68B3B994F88030F0
:1060700013F0600535D00021204602F067F90021B9
:10608000204602F057F963681B6813B106212046C9
:106090009847062384F8703070BD20469847002842
:1060A000E4D0B4F88630A26F9A4288BFA36794F90F
:1060B0008030A56F002B4FF0300380F20381002D5C
:1060C00000F0F280092284F8702083F31188002107
:1060D0002046D4E91D23FFF76DFF002383F31188C9
:1060E000DAE794F8812003F07F0343EA022340F2C9
:1060F0000232934200F0C58021D8B3F5807F48D0AA
:106100000DD8012B3FD0022B00F09380002BB2D191
:1061100004F1880262670222A267E367C1E7B3F570
:10612000817F00F09B80B3F5407FA4D194F882304A
:10613000012BA0D1B4F8883043F0020332E0B3F56C
:10614000006F4DD017D8B3F5A06F31D0A3F5C06361
:10615000012B90D86368204694F882205E6894F8FA
:106160008310B4F88430B047002884D04368636754
:106170000368A3671AE0B3F5106F36D040F6024209
:1061800093427FF478AF5C4B63670223A3670023DD
:10619000C3E794F88230012B7FF46DAFB4F88830F8
:1061A00023F00203A4F88830C4E91D55E56778E7B9
:1061B000B4F88030B3F5A06F0ED194F88230204649
:1061C00084F88A3001F006FD63681B6813B1012171
:1061D00020469847032323700023C4E91D339CE71E
:1061E00004F18B0363670123C3E72378042B10D1E9
:1061F000302383F311882046FFF7BAFE85F3118818
:106200000321636884F88B5021701B680BB1204612
:10621000984794F88230002BDED084F88B3004232A
:10622000237063681B68002BD6D002212046984754
:10623000D2E794F8843020461D0603F00F010AD5FA
:1062400001F078FD012804D002287FF414AF2B4B15
:106250009AE72B4B98E701F05FFDF3E794F8823063
:10626000002B7FF408AF94F8843013F00F01B3D003
:106270001A06204602D502F081F8ADE702F072F866
:10628000AAE794F88230002B7FF4F5AE94F88430BE
:1062900013F00F01A0D01B06204602D502F056F8DD
:1062A0009AE702F047F897E7142284F8702083F306
:1062B00011882B462A4629462046FFF769FE85F3BA
:1062C0001188E9E65DB1152284F8702083F3118806
:1062D00000212046D4E91D23FFF75AFEFDE60B22DC
:1062E00084F8702083F311882B462A4629462046DD
:1062F000FFF760FEE3E700BFA09900089899000847
:106300009C99000838B590F870300446002B3ED0B8
:10631000063BDAB20F2A34D80F2B32D8DFE803F06D
:106320003731310822323131313131313131373782
:10633000856FB0F886309D4214D2C3681B8AB5FBC6
:10634000F3F203FB12556DB9302383F311882B460A
:106350002A462946FFF72EFE85F311880A2384F882
:1063600070300EE0142384F87030302383F31188EA
:10637000002320461A461946FFF70AFE002383F33E
:10638000118838BDC36F03B198470023E7E70021A8
:10639000204601F0DBFF0021204601F0CBFF6368BF
:1063A0001B6813B10621204698470623D7E7000053
:1063B00010B590F870300446142B29D017D8062B4E
:1063C00005D001D81BB110BD093B022BFBD8002121
:1063D000204601F0BBFF0021204601F0ABFF6368BF
:1063E0001B6813B1062120469847062319E0152B98
:1063F000E9D10B2380F87030302383F31188002318
:106400001A461946FFF7D6FD002383F31188DAE711
:10641000C3689B695B68002BD5D1C36F03B19847F4
:10642000002384F87030CEE70023826880F824309F
:1064300083691B6899689142FBD25A680360426085
:1064400010605860704700000023826880F8243094
:1064500083691B6899689142FBD85A68036042605F
:10646000106058607047000008B50846302383F379
:10647000118891F82430032B05D0042B0DD02BB9B3
:1064800083F3118808BD8B6A00221A604FF0FF3336
:106490008362FFF7C9FF0023F2E7D1E900321360FE
:1064A0005A60F3E7034610B51B68984203D09C6816
:1064B0008A689442F8D25A680B604A601160596049
:1064C00010BD0000FFF7B0BF064BD96881F824006B
:1064D0001868026853601A600122D86080F824208E
:1064E000F9F790BF684600200C4B30B5DD684B1CB7
:1064F00087B004460FD02B46094A684600F09CF945
:106500002046FFF7E1FF009B13B1684600F09EF9BB
:10651000A86A07B030BDFFF7D7FFF9E7684600204B
:1065200069640008044B1A68DB6890689B689842AD
:1065300094BF00200120704768460020094B10B529
:106540001C68D868226853601A600122DC6084F8F5
:106550002420FFF779FF01462046BDE81040F9F7F7
:1065600051BF00BF68460020044B1A68DB68926880
:106570009B689A4201D9FFF7E1BF70476846002047
:1065800038B50123084C00252370656002F0F4FB48
:1065900002F01AFC0549064802F0F0FC02232370C1
:1065A00085F3118838BD00BF10490020A899000864
:1065B0006846002000F080B9034A516853685B1AAE
:1065C0009842FBD8704700BF001000E08B604B631F
:1065D0000023CA6100F128020B6302230A618B8445
:1065E0000123886181F8263001F11003C26A4A61F3
:1065F0001360C36201F12C030846CB6270470000B0
:10660000D0E90131026841F8183CA1F19C03383906
:10661000CB60036941F8243C436941F8203C034BBB
:1066200041F8043CC3680248FFF7D0BF1D040008CE
:106630006846002008B5FFF7E3FFBDE80840FFF714
:1066400041BF000038B50E4BDC6804F12C05A06298
:10665000E06AA8420FD194F826303BB994F825306F
:106660009B0702BFD4E9043213605A600F20BDE8D3
:106670003840FFF729BF0368E362FFF723FFE7E72E
:1066800068460020302383F31188FFF7DBBF00004A
:1066900008B50146302383F311880820FFF724FF53
:1066A000002383F3118808BD054BDB6821B103602B
:1066B00098620320FFF718BF4FF0FF30704700BF0C
:1066C0006846002003682BB10022026018469962D8
:1066D000FFF7F8BE70470000064BDB6839B142682F
:1066E00018605A60136043600420FFF7FDBE4FF04E
:1066F000FF307047684600200368984206D01A6849
:106700000260506018469962FFF7DCBE70470000D7
:1067100038B504460D462068844200D138BD036870
:1067200023605C608562FFF7CDFEF4E7036810B577
:106730009C68A2420CD85C688A600B604C60216047
:10674000596099688A1A9A604FF0FF33836010BDD0
:10675000121B1B68ECE700000A2938BF0A2170B53C
:1067600004460D460A26601902F000FB02F0E8FA22
:10677000041BA54203D8751C04462E46F3E70A2ED7
:1067800004D90120BDE8704002F0C0BC70BD00001B
:10679000F8B5144B0D460A2A4FF00A07D96103F1E8
:1067A0001001826038BF0A224160196914460160F5
:1067B00048601861A81802F0C9FA02F0C1FA431B38
:1067C0000646A34206D37C1C28192746354602F00C
:1067D000CDFAF2E70A2F04D90120BDE8F84002F013
:1067E00095BCF8BD68460020F8B506460D4602F097
:1067F000A7FA0F4A134653F8107F9F4206D12A4644
:1068000001463046BDE8F840FFF7C2BFD169BB681A
:10681000441A2C1928BF2C46A34202D92946FFF757
:106820009BFF224631460348BDE8F840FFF77EBF94
:106830006846002078460020C0E90323002310B4F6
:106840005DF8044B4361FFF7CFBF000010B5194C52
:10685000236998420DD08168D0E9003213605A60F4
:106860009A680A449A60002303604FF0FF33A361E3
:1068700010BD0268234643F8102F536000220260C7
:1068800022699A4203D1BDE8104002F069BA9368C8
:1068900081680B44936002F053FA2269E1699268BF
:1068A000441AA242E4D91144BDE81040091AFFF786
:1068B00053BF00BF684600202DE9F047DFF8BC80D9
:1068C00008F110072C4ED8F8105002F039FAD8F819
:1068D0001C40AA68031B9A423ED814444FF000099A
:1068E000D5E90032C8F81C4013605A60C5F8009022
:1068F000D8F81030B34201D102F032FA89F311888E
:10690000D5E9033128469847302383F311886B6912
:10691000002BD8D002F014FA6A69A0EB0409824671
:106920004A450DD2022002F0F1FB0022D8F81030C7
:10693000B34208D151462846BDE8F047FFF728BFCB
:10694000121A2244F2E712EB09092946384638BFE9
:106950004A46FFF7EBFEB5E7D8F81030B34208D04F
:106960001444C8F81C00211AA960BDE8F047FFF7DD
:10697000F3BEBDE8F08700BF7846002068460020DF
:1069800038B502F0DDF9054AD2E90845031B1819AC
:1069900045F10001C2E9080138BD00BF684600208A
:1069A00010B560B9074804790368053C9B6818BFB7
:1069B0000124984708B144F00404204610BD012486
:1069C000FBE700BFC8360020FFF7EABF2DE9F0471C
:1069D000884617469A460446B0B90D4E3579052DBE
:1069E00005D003240DE0013D15F0FF050ED03268FF
:1069F000534639463046D2F814904246C8470028DC
:106A0000F1D12046BDE8F0870424FAE70124F8E735
:106A1000C83600202DE9F047884617469A460446B6
:106A2000B0B90D4E3579052D05D003240DE0013D9B
:106A300015F0FF050ED03268534639463046D2F87D
:106A400018904246C8470028F1D12046BDE8F0879B
:106A50000424FAE70124F8E7C836002037B50C46CD
:106A6000154670B951B101290BD107486946036831
:106A70001B6A984710B9019B04462B60204603B05F
:106A800030BD0424FAE700BFC8360020002070475C
:106A9000FEE70000704700004FF0FF307047000035
:106AA0004B6843608B688360CB68C3600B6943614C
:106AB0004B6903628B6943620B6803607047000097
:106AC00008B53C4B40F2FF713B48D3F888200A439D
:106AD000C3F88820D3F8882022F4FF6222F007024E
:106AE000C3F88820D3F88820D3F8E0200A43C3F8FD
:106AF000E020D3F808210A43C3F808212F4AD3F82D
:106B000008311146FFF7CCFF00F5806002F11C014F
:106B1000FFF7C6FF00F5806002F13801FFF7C0FF04
:106B200000F5806002F15401FFF7BAFF00F58060C4
:106B300002F17001FFF7B4FF00F5806002F18C01F3
:106B4000FFF7AEFF00F5806002F1A801FFF7A8FF94
:106B500000F5806002F1C401FFF7A2FF00F580603C
:106B600002F1E001FFF79CFF00F5806002F1FC01FB
:106B7000FFF796FF02F58C7100F58060FFF790FF3C
:106B800001F094FC0E4BD3F8902242F00102C3F8BE
:106B90009022D3F8942242F00102C3F894220522F5
:106BA000C3F898204FF06052C3F89C20054AC3F800
:106BB000A02008BD0044025800000258BC990008FB
:106BC00000ED00E01F00080308B501F07BFEFFF7B1
:106BD000D7FC104BD3F8DC2042F04002C3F8DC2095
:106BE000D3F8042122F04002C3F80421D3F8043181
:106BF000094B1A6842F008021A601A6842F004024F
:106C00001A6000F081FD00F03DFBBDE8084000F097
:106C1000B5B800BF00440258001802480120704770
:106C2000002070477047000002290CD0032904D0CF
:106C30000129074818BF00207047032A05D80548D6
:106C400000EBC2007047044870470020704700BF47
:106C5000BC9B000854220020709B000870B59AB0BD
:106C600005460846144601A900F0C2F801A8FBF742
:106C70006DF8431C0022C6B25B001046C5E9003423
:106C800023700323023404F8013C01ABD1B2023477
:106C90008E4201D81AB070BD13F8011B013204F8FE
:106CA000010C04F8021CF1E708B5302383F31188C6
:106CB0000348FFF79BF8002383F3118808BD00BF4A
:106CC0001849002090F8803003F01F02012A07D1F4
:106CD00090F881200B2A03D10023C0E91D3315E071
:106CE00003F06003202B08D1B0F884302BB990F862
:106CF0008120212A03D81F2A04D8FFF759B8222A55
:106D0000EBD0FAE7034A426707228267C367012094
:106D1000704700BF4B22002007B5052917D8DFE8D0
:106D200001F0191603191920302383F31188104A32
:106D300001210190FFF702F9019802210D4AFFF7A6
:106D4000FDF80D48FFF71EF8002383F3118803B008
:106D50005DF804FB302383F311880748FEF7E8FF52
:106D6000F2E7302383F311880348FEF7FFFFEBE7D8
:106D7000109B0008349B00081849002038B50C4DC2
:106D80000C4C2A460C4904F10800FFF767FF05F197
:106D9000CA0204F110000949FFF760FF05F5CA7245
:106DA00004F118000649BDE83840FFF757BF00BF9F
:106DB000F061002054220020F09A0008FA9A00089E
:106DC000059B000870B5044608460D46FAF7BEFF5D
:106DD000C6B22046013403780BB9184670BD32465E
:106DE0002946FAF79FFF0028F3D10120F6E70000BB
:106DF0002DE9F04705460C46FAF7A8FF2A49C6B226
:106E00002846FFF7DFFF08B10936F6B227492846C2
:106E1000FFF7D8FF08B11036F6B2632E0BD8DFF8B3
:106E20008880DFF88890224FDFF890A02E7846B94E
:106E30002670BDE8F08729462046BDE8F04702F0FD
:106E40000FBA252E2CD1072241462846FAF76AFFB1
:106E500060B9184B224603F1100153F8040B8B4222
:106E600042F8040BF9D107351034DFE70822494610
:106E70002846FAF757FF98B9A21C0F4B197802322F
:106E80000909C95D02F8041C13F8011B01F00F0188
:106E90005345C95D02F8031CF0D118340835C5E725
:106EA000013504F8016BC1E7DC9B0008059B000875
:106EB000F59B0008E49B000800E8F11F0CE8F11FB7
:106EC000BFF34F8F044B1A695107FCD1D3F810213F
:106ED0005207F8D1704700BF0020005208B50D4B93
:106EE0001B78ABB9FFF7ECFF0B4BDA68D10704D581
:106EF0000A4A5A6002F188325A60D3F80C21D2074C
:106F000006D5064AC3F8042102F18832C3F80421E9
:106F100008BD00BF4E6400200020005223016745D9
:106F200008B5114B1B78F3B9104B1A69510703D5FB
:106F3000DA6842F04002DA60D3F81021520705D532
:106F4000D3F80C2142F04002C3F80C21FFF7B8FF40
:106F5000064BDA6842F00102DA60D3F80C2142F005
:106F60000102C3F80C2108BD4E640020002000522D
:106F70000F289ABF00F58060400400207047000091
:106F80004FF4003070470000102070470F2808B5FC
:106F90000BD8FFF7EDFF00F500330268013204D192
:106FA00004308342F9D1012008BD0020FCE7000035
:106FB0000F2838B505463FD8FFF782FF1F4CFFF773
:106FC0008DFF4FF0FF3307286361C4F814311DD8DB
:106FD0002361FFF775FF030243F02403E360E368D6
:106FE00043F08003E36023695A07FCD42846FFF787
:106FF00067FFFFF7BDFF4FF4003100F0BFFA2846EE
:10700000FFF78EFFBDE83840FFF7C0BFC4F810316E
:10701000FFF756FFA0F108031B0243F02403C4F856
:107020000C31D4F80C3143F08003C4F80C31D4F89F
:1070300010315B07FBD4D9E7002038BD0020005297
:107040002DE9F84F04460D46104644EA0203DE06D9
:1070500002D00020BDE8F88F20F01F00DFF8D4B088
:10706000DFF8D4A0FFF73AFF05EB0008454503D150
:107070000120FFF755FFEDE720222946204602F0C8
:10708000B7F810B920342035F0E7234604F1200288
:107090001F68791CDDD104339342F9D104F17843A0
:1070A0002048214EB3F5801F204B38BF184603F10E
:1070B000F80332BFD946D1461E46FFF701FF0760ED
:1070C000A4EB050C336805F11C0143F002033360A7
:1070D0002B1FD9F8007017F00507FAD153F8042FC9
:1070E0008B424CF80320F4D1BFF34F8FFFF7E8FE3B
:1070F0004FF0FF330360336823F002033360BFF3C4
:107100004F8F0B4BC3F85C42BFF34F8FBFF36F8FB2
:1071100020222946204602F06BF80028B2D03846DB
:10712000A7E700BF142100520C2000521420005287
:1071300000ED00E0102000521021005210B5084C64
:10714000237828B11BB9FFF7C9FE0123237010BDB6
:10715000002BFCD02070BDE81040FFF7E1BE00BF5F
:107160004E6400202DE9F04F0D4685B0814658B1A0
:1071700011F00D0614BF2022082211F0080301931C
:1071800004D0431E034269D0002435E0002E37D0DE
:1071900009F11F0121F01F094FF00108314F05F0DF
:1071A0000403DFF8CCA005EA080BBBF1000F32D0D6
:1071B0007869C0072FD408F101080C37B8F1060F21
:1071C000F3D19EB9284D4946A819019201F01EFE3F
:1071D0000446002839D12036019AA02EF3D1494621
:1071E00001F014FE044600282FD1019A49461F4899
:1071F00001F00CFE044660BB204605B0BDE8F08FF0
:107200000029C9D101462846029201F0FFFD04463B
:10721000D8B9029AC0E713B178694107CBD5AC075A
:1072200002D578698007C6D5019911B1786901073F
:10723000C1D549460AEB4810CDE9022301F0E6FD2D
:107240000446DDE902230028B5D04A460021204645
:1072500001E04A460021FAF781FDCDE70246002E03
:1072600096D199E7089C00089064002050640020A3
:10727000706400200021FFF775BF00000121FFF7B7
:1072800071BF000000231A4670B51A600433B3F5CD
:10729000806FFAD1104D0124104E06EB44100134DA
:1072A0002A6955F80C1F01F09DFD062CF5D13725F4
:1072B0004FF4C0542046FFF7E1FF014628B12246B3
:1072C0000748BDE8704001F08DBDC4EBC404013D2A
:1072D0004FEAD404EED170BD089C00087064002011
:1072E000506400200421FFF73DBF00004843FFF732
:1072F000C1BF000008B101F0FBBD7047B0F5805F71
:1073000010B5044607D8FFF7EDFF28B92046BDE8C1
:107310001040FFF7AFBF002010BD0000FFF7EABF2D
:1073200070B5AAB140EA010313F01F030FD1094C55
:107330000144A5686D0706D52568A84203D3666891
:107340003544A94204D903330C34122BF1D1002265
:10735000104670BD089C000808B501F0DFFE034A26
:10736000D2E90032C01842EB010108BD30650020AF
:10737000434BD3E900232DE9F34113437CD0FFF7BE
:10738000EBFF404A00230027F9F756F806460D4662
:107390003D4A0023F9F750F80023144630462946A9
:1073A000394AF9F749F84FF461613C23ADF80170AF
:1073B000B4FBF1F5B4FBF3F601FB154103FB1646F4
:1073C0004624B1FBF3F1314BF6B28DF80040984200
:1073D0003CD84FF0640C4FF4C87EA30704F26C72E3
:1073E00025D1B2FBFCF30CFB132313BBB2FBFEF362
:1073F0000EFB1322B2FA82F35B0903F26D18621CD2
:107400008045D2B217D90FB18DF800400022204C30
:107410004FF00C0C17460CFB0343D4B2013213F8A7
:1074200004C084450CD8A0EB0C000127F5E700232D
:10743000E3E70123E1E7A0EB080014460127CCE7CE
:107440000FB18DF80140431C8DF802309DF801000A
:10745000431C9DF800005038400640EA43509DF818
:10746000023040EA034040EA560040EAC52040EAC4
:10747000411002B0BDE8F0814FF40410F9E700BFFD
:107480003065002040420F008051010090230B0026
:10749000509C00080244074BD2B210B5904200D174
:1074A00010BD441C00B253F8200041F8040BE0B2B8
:1074B000F4E700BF504000580E4B30B51C6F240459
:1074C00005D41C6F1C671C6F44F400441C670A4CF5
:1074D00002442368D2B243F480732360074B904286
:1074E00000D130BD441C51F8045B00B243F8205079
:1074F000E0B2F4E7004402580048025850400058F7
:1075000007B5012201A90020FFF7C4FF019803B0CD
:107510005DF804FB13B50446FFF7F2FFA04205D067
:10752000012201A900200194FFF7C6FF02B010BD9F
:1075300010B56424013C4FF47A70FFF7A9F814F0F9
:10754000FF04F7D10C4B4FF4801214249A61A3F579
:1075500080634FF08052A3F54063C3F8182C4FF4BA
:1075600000529A61013C4FF47A70FFF791F814F0E1
:10757000FF04F7D110BD00BF001802580144BFF34B
:107580004F8F064B884204D3BFF34F8FBFF36F8FEB
:107590007047C3F85C022030F4E700BF00ED00E064
:1075A0000144BFF34F8F064B884204D3BFF34F8F84
:1075B000BFF36F8F7047C3F870022030F4E700BF4D
:1075C00000ED00E070B5054616460C46012010217E
:1075D000FFF78CFE286046733CB1204636B1FFF7BA
:1075E00081FE2B68186000B19C6070BDFFF746FEFD
:1075F000F7E70000F8B50F461546044648B905F10F
:107600001F010126386821F01F01FFF7B7FF304640
:10761000F8BD427B29463868FFF782FE06460028FF
:10762000EDD13B686360A368AB4210D213B1206810
:10763000FFF760FE637B28462BB1FFF753FE206007
:1076400020B9A060E3E7FFF719FEF8E7A56020681E
:1076500005F11F01012621F01F013860FFF78EFFA1
:107660002673D4E710B5044640B10068884205D1BE
:10767000606808B1FAF74CFB0023237310BD0000CB
:10768000F8B50F461446054648B904F11F01012616
:10769000386821F01F01FFF783FF3046F8BD427BB9
:1076A00021463868FFF73CFE06460028EDD1AB685E
:1076B000A34210D213B12868FFF71CFE6B7B204653
:1076C0002BB1FFF70FFE286020B9A860E5E7FFF7B0
:1076D000D5FDF8E7AC60396819B122462868FAF799
:1076E00017FB286804F11F01012621F01F013860F3
:1076F000FFF756FF2E73D0E720B103688B4204BF1B
:107700000023037370470000034B1A681AB9034A39
:10771000D2F8D0241A607047386500200040025823
:1077200008B5FFF7F1FF024B1868C0F3806008BD91
:1077300038650020EFF30983054968334A6B22F06E
:1077400001024A6383F30988002383F31188704799
:1077500000EF00E0302080F3118862B60D4B0E4A36
:10776000D96821F4E0610904090C0A430B49DA6085
:10777000D3F8FC2042F08072C3F8FC20084AC2F81B
:10778000B01F116841F0010111602022DA7783F8FF
:107790002200704700ED00E00003FA0555CEACC5AD
:1077A000001000E0302310B583F311880E4B5B68A6
:1077B00013F4006314D0F1EE103AEFF309844FF0A4
:1077C0008073683CE361094BDB6B236684F30988B3
:1077D000FEF7A8FE10B1064BA36110BD054BFBE7F9
:1077E00083F31188F9E700BF00ED00E000EF00E04F
:1077F0002F0400083204000870B5BFF34F8FBFF3A9
:107800006F8F1A4A0021C2F85012BFF34F8FBFF397
:107810006F8F536943F400335361BFF34F8FBFF34E
:107820006F8FC2F88410BFF34F8FD2F8803043F6C9
:10783000E074C3F3C900C3F34E335B0103EA0406EB
:10784000014646EA81750139C2F86052F9D2203BFF
:1078500013F1200FF2D1BFF34F8F536943F48033FC
:107860005361BFF34F8FBFF36F8F70BD00ED00E02A
:10787000FEE70000214B2248224A70B5904237D3E0
:10788000214BC11EDA1C121A22F003028B4238BFB0
:1078900000220021FAF762FA1C4A0023C2F8843061
:1078A000BFF34F8FD2F8803043F6E074C3F3C900C2
:1078B000C3F34E335B0103EA0406014646EA8175D1
:1078C0000139C2F86C52F9D2203B13F1200FF2D1EA
:1078D000BFF34F8FBFF36F8FBFF34F8FBFF36F8F28
:1078E0000023C2F85032BFF34F8FBFF36F8F70BDCC
:1078F00053F8041B40F8041BC0E700BF549D000868
:1079000034670020346700203467002000ED00E079
:10791000074BD3F8D81021EA0001C3F8D810D3F8E8
:10792000002122EA0002C3F80021D3F80031704799
:107930000044025870B5D0E9244300224FF0FF35CF
:107940009E6804EB42135101D3F80009002805DAC0
:10795000D3F8000940F08040C3F80009D3F8000BC9
:10796000002805DAD3F8000B40F08040C3F8000B84
:10797000013263189642C3F80859C3F8085BE0D295
:107980004FF00113C4F81C3870BD0000890141F0AC
:107990002001016103699B06FCD41220FEF70CBE96
:1079A00010B50A4C2046FEF7A7FA094BC4F89030F0
:1079B000084BC4F89430084C2046FEF79DFA074B5C
:1079C000C4F89030064BC4F8943010BD3C650020DC
:1079D000000008408C9C0008D8650020000004408E
:1079E000989C000870B503780546012B5CD1434B89
:1079F000D0F89040984258D1414B0E216520D3F8E1
:107A0000D82042F00062C3F8D820D3F8002142F019
:107A10000062C3F80021D3F80021D3F8802042F09F
:107A20000062C3F88020D3F8802022F00062C3F8FF
:107A30008020D3F88030FDF7A3FC324BE360324B5B
:107A4000C4F800380023D5F89060C4F8003EC02385
:107A500023604FF40413A3633369002BFCDA012382
:107A60000C203361FEF7A8FD3369DB07FCD412203C
:107A7000FEF7A2FD3369002BFCDA00262846A6603B
:107A8000FFF758FF6B68C4F81068DB68C4F8146827
:107A9000C4F81C6883BB1D4BA3614FF0FF336361C7
:107AA000A36843F00103A36070BD194B9842C9D18C
:107AB000134B4FF08060D3F8D82042F00072C3F827
:107AC000D820D3F8002142F00072C3F80021D3F887
:107AD0000021D3F8802042F00072C3F88020D3F850
:107AE000802022F00072C3F88020D3F88030FFF7A6
:107AF0000FFF0E214D209EE7064BCDE73C65002091
:107B0000004402584014004003002002003C30C0F2
:107B1000D8650020083C30C0F8B5D0F89040054644
:107B200000214FF000662046FFF730FFD5F8941093
:107B300000234FF001128F684FF0FF30C4F8343843
:107B4000C4F81C2804EB431201339F42C2F80069B9
:107B5000C2F8006BC2F80809C2F8080BF2D20B6831
:107B6000D5F89020C5F89830636210231361166928
:107B700016F01006FBD11220FEF71EFDD4F80038D7
:107B800023F4FE63C4F80038A36943F4402343F0B0
:107B90001003A3610923C4F81038C4F814380B4B40
:107BA000EB604FF0C043C4F8103B094BC4F8003BF6
:107BB000C4F81069C4F80039D5F8983003F1100200
:107BC00043F48013C5F89820A362F8BD689C0008B0
:107BD00040800010D0F8902090F88A10D2F8003839
:107BE00023F4FE6343EA0113C2F800387047000033
:107BF0002DE9F84300EB8103D0F890500C46804605
:107C0000DA680FFA81F94801166806F00306731E58
:107C1000022B05EB41134FF0000194BFB604384E20
:107C2000C3F8101B4FF0010104F1100398BF06F1D7
:107C3000805601FA03F3916998BF06F500460029C2
:107C40003AD0578A04F15801374349016F50D5F8AB
:107C50001C180B430021C5F81C382B180127C3F84A
:107C60001019A7405369611E9BB3138A928B9B081E
:107C7000012A88BF5343D8F89820981842EA034352
:107C800001F140022146C8F89800284605EB82021F
:107C90005360FFF77BFE08EB8900C3681B8A43EA49
:107CA000845348341E4364012E51D5F81C381F43B9
:107CB000C5F81C78BDE8F88305EB4917D7F8001B19
:107CC00021F40041C7F8001BD5F81C1821EA030372
:107CD000C0E704F13F030B4A2846214605EB830326
:107CE0005A60FFF753FE05EB4910D0F8003923F432
:107CF0000043C0F80039D5F81C3823EA0707D7E756
:107D00000080001000040002D0F894201268C0F82F
:107D10009820FFF70FBE00005831D0F8903049018D
:107D20005B5813F4004004D013F4001F0CBF022072
:107D3000012070474831D0F8903049015B5813F466
:107D4000004004D013F4001F0CBF02200120704734
:107D500000EB8101CB68196A0B6813604B685360B4
:107D60007047000000EB810330B5DD68AA69136835
:107D7000D36019B9402B84BF402313606B8A146809
:107D8000D0F890201C4402EB4110013C09B2B4FB36
:107D9000F3F46343033323F0030343EAC44343F0A0
:107DA000C043C0F8103B2B6803F00303012B0ED136
:107DB000D2F8083802EB411013F4807FD0F8003B72
:107DC00014BF43F0805343F00053C0F8003B02EB74
:107DD0004112D2F8003B43F00443C2F8003B30BDEF
:107DE0002DE9F041D0F8906005460C4606EB4113B2
:107DF000D3F8087B3A07C3F8087B08D5D6F81438BF
:107E00001B0704D500EB8103DB685B689847FA0722
:107E10001FD5D6F81438DB071BD505EB8403D968CA
:107E2000CCB98B69488A5A68B2FBF0F600FB16227F
:107E30008AB91868DA6890420DD2121AC3E9002490
:107E4000302383F3118821462846FFF78BFF84F304
:107E50001188BDE8F081012303FA04F26B8923EA5B
:107E600002036B81CB68002BF3D021462846BDE886
:107E7000F041184700EB81034A0170B5DD68D0F886
:107E800090306C692668E66056BB1A444FF40020B7
:107E9000C2F810092A6802F00302012A0AB20ED1C0
:107EA000D3F8080803EB421410F4807FD4F80009DB
:107EB00014BF40F0805040F00050C4F8000903EBBC
:107EC0004212D2F8000940F00440C2F80009012231
:107ED000D3F8340802FA01F10143C3F8341870BD35
:107EE00019B9402E84BF4020206020681A442E8A91
:107EF0008419013CB4FBF6F440EAC44040F0005061
:107F0000C6E700002DE9F843D0F8906005460C461E
:107F10004F0106EB4113D3F8088918F0010FC3F89D
:107F200008891CD0D6F81038DB0718D500EB810380
:107F3000D3F80CC0DCF81430D3F800E0DA689645CA
:107F400030D2A2EB0E024FF000091A60C3F8049081
:107F5000302383F31188FFF78DFF89F3118818F020
:107F6000800F1DD0D6F834380126A640334217D0F2
:107F700005EB84030134D5F89050D3F80CC0E4B27B
:107F80002F44DCF8142005EB0434D2F800E05168EB
:107F9000714514D3D5F8343823EA0606C5F8346899
:107FA000BDE8F883012303FA01F2038923EA0203FF
:107FB0000381DCF80830002BD1D09847CFE7AEEB37
:107FC0000103BCF81000834228BF0346D7F8180904
:107FD00080B2B3EB800FE3D89068A0F1040959F8A0
:107FE000048FC4F80080A0EB09089844B8F1040F8E
:107FF000F5D818440B4490605360C8E72DE9F84F5A
:10800000D0F8905004466E69AB691E4016F4805853
:108010006E6103D0BDE8F84FFDF7DEBF002E12DA27
:10802000D5F8003E9B0705D0D5F8003E23F00303AA
:10803000C5F8003ED5F80438204623F00103C5F802
:108040000438FDF7F7FF370505D52046FFF772FC2A
:108050002046FDF7DDFFB0040CD5D5F8083813F045
:10806000060FEB6823F470530CBF43F4105343F432
:10807000A053EB6031071BD56368DB681BB9AB69A4
:1080800023F00803AB612378052B0CD1D5F8003E13
:108090009A0705D0D5F8003E23F00303C5F8003E4B
:1080A0002046FDF7C7FF6368DB680BB120469847A1
:1080B000F30200F1BA80B70226D5D4F890900027D9
:1080C0004FF0010A09EB4712D2F8003B03F44023BA
:1080D000B3F5802F11D1D2F8003B002B0DDA628965
:1080E0000AFA07F322EA0303638104EB8703DB68E0
:1080F000DB6813B13946204698470137D4F89430ED
:10810000FFB29B689F42DDD9F00619D5D4F89000E4
:10811000026AC2F30A1702F00F0302F4F012B2F57A
:10812000802F00F0CA80B2F5402F09D104EB830301
:10813000002200F58050DB681B6A974240F0B08057
:108140003003D5F8185835D5E90303D5002120466A
:10815000FFF746FEAA0303D501212046FFF740FEA4
:108160006B0303D502212046FFF73AFE2F0303D508
:1081700003212046FFF734FEE80203D50421204600
:10818000FFF72EFEA90203D505212046FFF728FEA2
:108190006A0203D506212046FFF722FE2B0203D5F3
:1081A00007212046FFF71CFEEF0103D508212046DA
:1081B000FFF716FE700340F1A780E90703D5002101
:1081C0002046FFF79FFEAA0703D501212046FFF7AF
:1081D00099FE6B0703D502212046FFF793FE2F0778
:1081E00003D503212046FFF78DFEEE0603D50421BB
:1081F0002046FFF787FEA80603D505212046FFF796
:1082000081FE690603D506212046FFF77BFE2A067C
:1082100003D507212046FFF775FEEB0574D52046F0
:108220000821BDE8F84FFFF76DBED4F890904FF0ED
:10823000000B4FF0010AD4F894305FFA8BF79B687B
:108240009F423FF638AF09EB4713D3F8002902F4F9
:108250004022B2F5802F20D1D3F80029002A1CDA61
:10826000D3F8002942F09042C3F80029D3F800293E
:10827000002AFBDB3946D4F89000FFF787FB228900
:108280000AFA07F322EA0303238104EB8703DB687E
:108290009B6813B13946204698470BF1010BCAE79A
:1082A000910701D1D0F80080072A02F101029CBF9A
:1082B00003F8018B4FEA18283FE704EB830300F52E
:1082C0008050DA68D2F818C0DCF80820DCE9001C1D
:1082D000A1EB0C0C00218F4208D1DB689B699A68E6
:1082E0003A449A605A683A445A6029E711F0030FF9
:1082F00001D1D0F800808C4501F1010184BF02F862
:10830000018B4FEA1828E6E7BDE8F88F08B5034867
:10831000FFF774FEBDE80840FFF744BA3C65002053
:1083200008B50348FFF76AFEBDE80840FFF73ABA10
:10833000D8650020D0F8903003EB4111D1F8003B14
:1083400043F40013C1F8003B70470000D0F89030B0
:1083500003EB4111D1F8003943F40013C1F800399F
:1083600070470000D0F8903003EB4111D1F8003B8A
:1083700023F40013C1F8003B70470000D0F89030A0
:1083800003EB4111D1F8003923F40013C1F800398F
:1083900070470000064BD3F8DC200243C3F8DC2012
:1083A000D3F804211043C3F80401D3F80431704713
:1083B0000044025808B53C4B4FF0FF31D3F8802001
:1083C00062F00042C3F88020D3F8802002F000421F
:1083D000C3F88020D3F88020D3F88420C3F8841019
:1083E000D3F884200022C3F88420D3F88400D86F07
:1083F00040F0FF4040F4FF0040F4DF4040F07F00D9
:10840000D867D86F20F0FF4020F4FF0020F4DF4051
:1084100020F07F00D867D86FD3F888006FEA40500B
:108420006FEA5050C3F88800D3F88800C0F30A0000
:10843000C3F88800D3F88800D3F89000C3F89010F0
:10844000D3F89000C3F89020D3F89000D3F89400AC
:10845000C3F89410D3F89400C3F89420D3F8940090
:10846000D3F89800C3F89810D3F89800C3F8982070
:10847000D3F89800D3F88C00C3F88C10D3F88C0094
:10848000C3F88C20D3F88C00D3F89C00C3F89C1060
:10849000D3F89C10C3F89C20D3F89C30FCF71EFA4C
:1084A000BDE8084000F0D6B90044025808B50122E2
:1084B000534BC3F80821534BD3F8F42042F0020287
:1084C000C3F8F420D3F81C2142F00202C3F81C21A7
:1084D0000222D3F81C314C4BDA605A689104FCD567
:1084E0004A4A1A6001229A60494ADA6000221A61F7
:1084F0004FF440429A61444B9A699204FCD51A6841
:1085000042F480721A603F4B1A6F12F4407F04D01D
:108510004FF480321A6700221A671A6842F001028B
:108520001A60384B1A685007FCD500221A611A6984
:1085300012F03802FBD1012119604FF080415960DF
:108540005A67344ADA62344A1A611A6842F480324D
:108550001A602C4B1A689103FCD51A6842F48052B9
:108560001A601A689204FCD52C4A2D499A6200229E
:108570005A63196301F57C01DA6301F2E71199632B
:108580005A64284A1A64284ADA621A6842F0A852E1
:108590001A601C4B1A6802F02852B2F1285FF9D118
:1085A00048229A614FF48862DA6140221A621F4AB7
:1085B000DA641F4A1A651F4A5A651F4A9A653223B0
:1085C0001E4A1360136803F00F03022BFAD10D4A01
:1085D000136943F003031361136903F03803182B85
:1085E000FAD14FF00050FFF7D5FE4FF08040FFF773
:1085F000D1FE4FF00040BDE80840FFF7CBBE00BF02
:1086000000800051004402580048025800C000F0A9
:10861000020000010000FF010088900822204000B5
:1086200063020901470E0508DD0BBF012000002091
:10863000000001100910E0000001011000200052AC
:108640004FF0B04208B5D2F8883003F00103C2F809
:10865000883023B1044A13680BB150689847BDE8CD
:108660000840FFF79FB800BFB46600204FF0B0424B
:1086700008B5D2F8883003F00203C2F8883023B17D
:10868000044A93680BB1D0689847BDE80840FFF7EB
:1086900089B800BFB46600204FF0B04208B5D2F8E8
:1086A000883003F00403C2F8883023B1044A136908
:1086B0000BB150699847BDE80840FFF773B800BF99
:1086C000B46600204FF0B04208B5D2F8883003F00D
:1086D0000803C2F8883023B1044A93690BB1D0690A
:1086E0009847BDE80840FFF75DB800BFB4660020BA
:1086F0004FF0B04208B5D2F8883003F01003C2F84A
:10870000883023B1044A136A0BB1506A9847BDE818
:108710000840FFF747B800BFB46600204FF0B043F1
:1087200010B5D3F8884004F47872C3F88820A30603
:1087300004D5124A936A0BB1D06A9847600604D5F3
:108740000E4A136B0BB1506B9847210604D50B4AA8
:10875000936B0BB1D06B9847E20504D5074A136CB5
:108760000BB1506C9847A30504D5044A936C0BB128
:10877000D06C9847BDE81040FFF714B8B4660020ED
:108780004FF0B04310B5D3F8884004F47C42C3F8EE
:108790008820620504D5164A136D0BB1506D9847B9
:1087A000230504D5124A936D0BB1D06D9847E004B0
:1087B00004D50F4A136E0BB1506E9847A10404D52F
:1087C0000B4A936E0BB1D06E9847620404D5084AE9
:1087D000136F0BB1506F9847230404D5044A936F6D
:1087E0000BB1D06F9847BDE81040FEF7DBBF00BF6C
:1087F000B466002008B50348FCF738FCBDE8084023
:10880000FEF7D0BFC836002008B50348FCF732FD9C
:10881000BDE80840FEF7C6BF2039002008B5034870
:10882000FCF728FDBDE80840FEF7BCBF8C390020EE
:1088300008B50348FCF71EFDBDE80840FEF7B2BFCF
:10884000F839002008B500F0BDFCBDE80840FEF78F
:10885000A9BF0000062108B50846FCF791FD0621D6
:108860000720FCF78DFD06210820FCF789FD062175
:108870000920FCF785FD06210A20FCF781FD062171
:108880001720FCF77DFD06212820FCF779FD092142
:108890007A20FCF775FD09217C20FCF771FD07218A
:1088A0003220FCF76DFD0C212720FCF769FD0C211F
:1088B0003520FCF765FD0C215220BDE80840FCF78F
:1088C0005FBD000008B5FFF775FD00F043FCFDF744
:1088D00037F9FDF7D5F8FDF70DFBFDF7DFF9FEF7EA
:1088E000A1F9BDE8084000F029BA000030B5043312
:1088F000039C0172002104FB0325C160C0E90653FB
:10890000049B0363059BC0E90000C0E90422C0E9A1
:108910000842C0E90A11436330BD00000022416AE9
:10892000C260C0E90411C0E90A226FF00101FDF73D
:10893000EFBE0000D0E90432934201D1C2680AB907
:10894000181D704700207047036919600021C26834
:108950000132C260C269134482699342036124BF39
:10896000436A0361FDF7C8BE38B504460D46E368A7
:108970003BB162690020131D1268A3621344E362D5
:1089800007E0237A33B929462046FDF7A5FE0028E3
:10899000EDDA38BD6FF00100FBE70000C368C26983
:1089A000013BC3604369134482699342436124BF1E
:1089B000436A436100238362036B03B11847704726
:1089C00070B53023044683F31188866A3EB9FFF7F9
:1089D000CBFF054618B186F31188284670BDA36AFF
:1089E000E26A13F8015B9342A36202D32046FFF7C9
:1089F000D5FF002383F31188EFE700002DE9F84F3E
:108A000004460E46174698464FF0300989F3118800
:108A10000025AA46D4F828B0BBF1000F09D1414681
:108A20002046FFF7A1FF20B18BF311882846BDE84F
:108A3000F88FD4E90A12A7EB050B521A934528BF09
:108A40009346BBF1400F1BD9334601F1400251F868
:108A5000040B914243F8040BF9D1A36A4036403528
:108A60004033A362D4E90A239A4202D32046FFF797
:108A700095FF8AF31188BD42D8D289F31188C9E7DE
:108A800030465A46F9F744F9A36A5E445D445B44B4
:108A9000A362E7E710B5029C0433017203FB0421D3
:108AA000C460C0E906130023C0E90A33039B0363D3
:108AB000049BC0E90000C0E90422C0E90842436306
:108AC00010BD0000026A6FF00101C260426AC0E995
:108AD00004220022C0E90A22FDF71ABED0E90423CD
:108AE0009A4201D1C26822B9184650F8043B0B6083
:108AF000704700231846FAE7C3680021C2690133B2
:108B0000C3604369134482699342436124BF436A4B
:108B10004361FDF7F1BD000038B504460D46E3683A
:108B20003BB1236900201A1DA262E2691344E3628B
:108B300007E0237A33B929462046FDF7CDFD00280A
:108B4000EDDA38BD6FF00100FBE700000369196042
:108B5000C268013AC260C2691344826993420361E8
:108B600024BF436A036100238362036B03B1184788
:108B70007047000070B530230D460446114683F35C
:108B80001188866A2EB9FFF7C7FF10B186F31188E6
:108B900070BDA36A1D70A36AE26A01339342A362A7
:108BA00004D3E16920460439FFF7D0FF002080F3A9
:108BB0001188EDE72DE9F84F04460D469046994699
:108BC0004FF0300A8AF311880026B346A76A4FB9DE
:108BD00049462046FFF7A0FF20B187F311883046B1
:108BE000BDE8F88FD4E90A073A1AA8EB06079742BE
:108BF00028BF1746402F1BD905F1400355F8042B19
:108C00009D4240F8042BF9D1A36A40364033A36259
:108C1000D4E90A239A4204D3E16920460439FFF7D4
:108C200095FF8BF311884645D9D28AF31188CDE799
:108C300029463A46F9F76CF8A36A3D443E443B4462
:108C4000A362E5E7D0E904239A4217D1C3689BB138
:108C5000836A8BB1043B9B1A0ED01360C368013B3F
:108C6000C360C3691A4483699A42026124BF436A9C
:108C70000361002383620123184670470023FBE74A
:108C800001F01F03F0B502F01F0456095A1C01231E
:108C9000B6EB511F50F8265003FA02F34FEA511772
:108CA00003F1FF333DBF50F82720C4F120001340EB
:108CB00003EA05003BBF03FA00F225FA04F0E040A6
:108CC0001043F0BD70B57E227F210546FFF7D8FF27
:108CD00018B1012819D0002070BD3E224921284634
:108CE000FFF7CEFF2F22044631212846FFF7C8FFA9
:108CF000064601345022023653212846B440FFF77D
:108D0000BFFF093804FA00F0E6E730224521284683
:108D1000FFF7B6FF01308002DEE7000090F8D630A2
:108D200090F8D7201B0403EB026390F8D42090F84E
:108D3000D500134403EB00207047000000F018BA80
:108D4000014B586A704700BF000C0040034B0022E3
:108D500058631A610222DA60704700BF000C0040BD
:108D6000014B0022DA607047000C0040014B586351
:108D7000704700BF000C0040024B034A1A60034AD0
:108D80005A6070478C66002038670020000002207F
:108D9000074B494210B55C68201A08401968821ACE
:108DA0008A4203D3A24201D85A6010BD0020FCE7DA
:108DB0008C66002008B5302383F31188FFF7E8FFA5
:108DC000002383F3118808BD0448054B036000238A
:108DD000C0E901330C3000F017B900BF94660020E1
:108DE000B58D0008CB1D083A23F00703591A521A13
:108DF00010B4D2080024C0E9004384600C301C6029
:108E00005A605DF8044B00F0FFB800002DE9F74F01
:108E1000364FCD1D8846002818BF0746082A4FEA5E
:108E2000D50538BF082207F10C003C1D9146019082
:108E300000F02CF9019809F10701C9F1000E224652
:108E4000246864B900F02CF93B68CBB3082249468A
:108E5000E8009847044698B340E9027830E004EB14
:108E6000010CD4F804A00CEA0E0C0AF10106ACF1D6
:108E7000080304EBC6069E42E1D9A6EB0C0CB5EB49
:108E8000EC0F4FEAEC0BDAD89C421DD204F1080239
:108E9000AB45A3EB02024FEAE202626009D9691C0A
:108EA000ED4303EBC1025D445560256843F8315042
:108EB00022601C46C3F8048044F8087B00F0F0F8F8
:108EC000204603B0BDE8F08FAA45216802D11160A9
:108ED0002346EEE7013504EBC50344F8351003F1F2
:108EE0000801761AF6105E601360F1E794660020C0
:108EF00073B50446A0F1080550F8080C54F8043C7A
:108F0000061D0C3007330190DB0844F8043C00F0E8
:108F1000BDF8334601989E421A6801D0AB4228D270
:108F20000AB1954225D244F8082C54F8042C1D604F
:108F3000013254F8081C05EBC206B14206D14E6856
:108F4000324444F8042C0A6844F8082C5E68711C0A
:108F500003EBC1018D4207D154F8042C0132324495
:108F60005A6054F8082C1A6002B0BDE8704000F056
:108F700097B81346CFE70000FEE7000070B51E4B20
:108F80000025044686B058600E4605638163FEF7EF
:108F9000E1FB04F12803A5606563C4E90A3304F129
:108FA0001003C4E904334FF0FF33C4E90044C4E9BB
:108FB0000635FFF7C5FE2B46024604F13C0120466C
:108FC000C4E9082380230D4A6567FDF7FFFA73683B
:108FD000E0600B4A03620123009280F82430684667
:108FE000F26801923269CDE90223064BCDE90435DE
:108FF000FDF720FB06B070BD10490020AC9C0008B6
:10900000A49C0008798F00080023C0E90000836059
:109010000361704770B51C4B05468468DE685CB31D
:10902000B44213D103690133036170BDA36094F8A6
:10903000243083B1062B15D1A06A2146D4E9003231
:1090400013605A60FDF72EFAA36A9C68B368A268A1
:109050009A42EBD306E0D4E90032204613605A600E
:10906000FDF730FA28463146FDF71CFAB5620620B6
:10907000BDE87040FDF728BA0369866001330361DB
:10908000336BC3603063D0E76846002008B53023F7
:1090900083F31188FFF7BEFF002383F3118808BD17
:1090A000194BD96883688B4210B520D1302383F3E4
:1090B00011880269013A0261B2B90468C368A0422A
:1090C0000B631ED04A6B9BB901238A60036103685E
:1090D0001A68026050601A6B8360C2601863184699
:1090E000FDF7F0F9FDF740FA002383F3118810BD76
:1090F0001C68A34203D0A468A24238BF2246DB68A2
:10910000E1E78260F0E700BF68460020024A536B47
:1091100018435063704700BF6846002038B5EFF32E
:1091200011859DB9EFF30584C4F30804302334B1ED
:1091300083F31188FDF724FC85F3118838BD83F390
:109140001188FDF71DFC84F3118838BDBDE8384057
:10915000FDF716BC0023054A19460133102BC2E95E
:10916000001102F10802F8D1704700BFB466002078
:10917000114BD3F8E82042F00802C3F8E820D3F8F6
:10918000102142F00802C3F810210C4AD3F8103124
:10919000D36B43F00803D363C722094B9A624FF0A5
:1091A000FF32DA6200229A615A63DA605A60012261
:1091B0005A611A60704700BF004402580010005CFA
:1091C000000C0040094A08B51169D3680B40D9B2B8
:1091D0009B076FEA0101116107D5302383F31188E2
:1091E000FDF7E8F9002383F3118808BD000C004067
:1091F00010B501390244904201D1002005E0037806
:1092000011F8014FA34201D0181B10BD0130F2E745
:10921000884210B501EB020402D98442234607D8E4
:10922000431EA14208D011F8012B03F8012FF8E7E3
:10923000024401468A4200D110BD13F8014D02F8E4
:10924000014DF7E7C9B2034610F8012B1AB18A4263
:10925000F9D118467047002918BF0023F9E700002C
:10926000034611F8012B03F8012B002AF9D17047AE
:1092700010B50139034632B111F8014F03F8014B23
:10928000013A002CF7D11A440021934200D110BDBD
:1092900003F8011BF9E700004D4435002D2D0A00AD
:1092A0002F6172647570696C6F742E6162696E00F3
:1092B0002F6172647570696C6F742D766572696662
:1092C000792E6162696E002F6172647570696C6FCE
:1092D000742D666C6173682E6162696E002F617215
:1092E000647570696C6F742D666C61736865642E4B
:1092F0006162696E000000000000000000000000D4
:10930000050F0008A10F000851110008D90F00082F
:10931000990F00080000000000000000010F000885
:10932000AD0F000889110008FD0E0008090F0008A4
:1093300053544D333248373F3F3F0053544D33323F
:10934000483733782F3732780053544D333248370B
:1093500034332F3735332F373530000001105A00A2
:109360000310590001205800032056002F00000070
:109370005375636365737366756C6C79206D6F7577
:109380006E746564205344436172642028736C6F6B
:1093900077646F776E3D2575290A0000EB7690455E
:1093A000584641542020200046415433322020208A
:1093B000000000002A3A3C3E7C223F7F002B2C3BE1
:1093C0003D5B5D004355454141414143454545496C
:1093D000494941414592924F4F4F5555594F554F2D
:1093E0009C4F9E9F41494F55A5A5A6A7A8A9AAABEA
:1093F000ACADAEAFB0B1B2B3B4414141B8B9BABB94
:10940000BCBDBEBFC0C1C2C3C4C54141C8C9CACB2F
:10941000CCCDCECFD1D145454549494949D9DADBF3
:10942000DCDD49DF4FE14F4F4F4FE6E8E85555553A
:109430005959EEEFF0F1F2F3F4F5F6F7F8F9FAFB1B
:10944000FCFDFEFF01030507090E10121416181C7F
:109450001E00000061001A03E0001703F800070374
:10946000FF000100780100013001320106013901DD
:1094700010014A012E017901060180014D004302CD
:1094800081018201820184018401860187018701B3
:1094900089018A018B018B018D018E018F01900161
:1094A0009101910193019401F601960197019801B0
:1094B00098013D029B019C019D0120029F01A0019A
:1094C000A001A201A201A401A401A601A701A70174
:1094D000A901AA01AB01AC01AC01AE01AF01AF0122
:1094E000B101B201B301B301B501B501B701B801D2
:1094F000B801BA01BB01BC01BC01BE01F701C0014A
:10950000C101C201C301C401C501C401C701C80131
:10951000C701CA01CB01CA01CD011001DD01010063
:109520008E01DE011201F3010300F101F401F401E7
:10953000F8012801220212013A020900652C3B02BF
:109540003B023D02662C3F024002410241024602BC
:109550000A015302400081018601550289018A01F6
:1095600058028F015A0290015C025D025E025F02A6
:10957000930161026202940164026502660267025D
:10958000970196016A02622C6C026D026E029C01C8
:10959000700271029D01730274029F0176027702CC
:1095A000780279027A027B027C02642C7E027F02BE
:1095B000A60181028202A901840285028602870235
:1095C000AE014402B101B20145028D028E028F024A
:1095D00090029102B7017B030300FD03FE03FF032A
:1095E000AC0304008603880389038A03B1031103D3
:1095F000C2030200A303A303C4030803CC030300B4
:109600008C038E038F03D8031801F2030A00F903B9
:10961000F303F403F503F603F703F703F903FA037F
:10962000FA033004200350041007600422018A0466
:109630003601C1040E01CF040100C004D00444016E
:1096400061052604000000007D1D0100632C001E42
:109650009601A01E5A01001F0806101F0606201FB3
:109660000806301F0806401F0606511F0700591F35
:10967000521F5B1F541F5D1F561F5F1F601F080690
:10968000701F0E00BA1FBB1FC81FC91FCA1FCB1FE8
:10969000DA1FDB1FF81FF91FEA1FEB1FFA1FFB1F62
:1096A000801F0806901F0806A01F0806B01F0400B0
:1096B000B81FB91FB21FBC1FCC1F0100C31FD01F92
:1096C0000206E01F0206E51F0100EC1FF31F010068
:1096D000FC1F4E2101003221702110028421010063
:1096E0008321D0241A05302C2F04602C0201672C12
:1096F0000601752C0201802C6401002D260841FF13
:109700001A030000C700FC00E900E200E400E000EA
:10971000E500E700EA00EB00E800EF00EE00EC00F7
:10972000C400C500C900E600C600F400F600F2005F
:10973000FB00F900FF00D600DC00F800A300D80011
:10974000D7009201E100ED00F300FA00F100D10032
:10975000AA00BA00BF00AE00AC00BD00BC00A10072
:10976000AB00BB0091259225932502252425C1003D
:10977000C200C000A9006325512557255D25A20020
:10978000A5001025142534252C251C2500253C2555
:10979000E300C3005A255425692566256025502518
:1097A0006C25A400F000D000CA00CB00C800310135
:1097B000CD00CE00CF0018250C2588258425A600D5
:1097C000CC008025D300DF00D400D200F500D50006
:1097D000B500FE00DE00DA00DB00D900FD00DD0090
:1097E000AF00B400AD00B1001720BE00B600A70066
:1097F000F700B800B000A800B700B900B300B2008D
:10980000A025A0001000024008000240000802400D
:1098100000000B002800024008000240040802403B
:1098200006010C0040000240080002400808024007
:1098300010020D0058000240080002400C080240CF
:1098400016030E00700002400C0002401008024097
:1098500000040F00880002400C000240140802407F
:1098600006051000A00002400C000240180802404B
:1098700010061100B80002400C0002401C08024013
:1098800016072F001004024008040240200802407E
:10989000000838002804024008040240240802405E
:1098A000060939004004024008040240280802402A
:1098B000100A3A0058040240080402402C080240F2
:1098C000160B3B00700402400C04024030080240BA
:1098D000000C3C00880402400C04024034080240A2
:1098E000060D4400A00402400C0402403808024067
:1098F000100E4500B80402400C0402403C0802402F
:10990000160F460001000000000000000096000055
:109910000000000000000000000000000000000047
:1099200000000000000000001D6C0008216C000811
:10993000155700084D5A0008A9560008D1560008CE
:10994000F95600089156000800000000015B00086D
:10995000ED5A0008295B0008155B0008215B000830
:109960000D5B0008F95A0008E55A0008355B00084D
:1099700000000000195C0008055C0008415C00085C
:109980002D5C0008395C0008255C0008115C0008AB
:10999000FD5B00084D5C00080000000001000000B5
:1099A0000000000063300000A499000800000000DF
:1099B00000000000E0460020104900200000802A3E
:1099C00000020000AAAAAAAA00000024FFFF0000CB
:1099D0000000000000A00A00000200A0000000003B
:1099E000AAAAAAAA00010050FFFF00000000090077
:1099F000000000990000000600000000AAAAAAAA20
:109A000000000001FFFF000000000000000008004F
:109A100020A00A0000000000AAAAAAAA104005007F
:109A2000FFFF0000000800BB7700000040140200A8
:109A300028000000AAAAAAAA00000100FFFF000057
:109A400000000000070000000020000100000000EE
:109A5000AAAAAAAA00100000FFEF00000000000759
:109A6000000000000041800000000000AAAAAAAA8D
:109A700000404000EFFF00000000000000A00000D8
:109A80000004004000000000AAAAAAAA00040040A6
:109A9000FFFF0000000000000000000000011500B2
:109AA00000000000AAAAAAAA00011500FFFF0000FA
:109AB00000000000000000000000000000000000A6
:109AC000AAAAAAAA00000000FFFF000000000000F0
:109AD000000000000000000000000000AAAAAAAADE
:109AE00000000000FFFF0000000000000000000078
:109AF0004172647550696C6F740025424F41524445
:109B0000252D424C002553455249414C250000006B
:109B10000200000000000000395E0008A95E000895
:109B200040004000C0610020D06100200200000021
:109B3000000000000300000000000000F15E0008CB
:109B40000000000010000000E061002000000000A4
:109B500001000000000000003C650020010102003F
:109B6000196D0008296C0008C56C0008A96C000874
:109B700043000000789B000809024300020100C076
:109B80003209040000010202010005240010010551
:109B900024010001042402020524060001070582B5
:109BA000030800FF09040100020A00000007050184
:109BB0000240000007058102400000001200000082
:109BC000C49B000812011001020000400912415715
:109BD00000020102030100000403090425424F4171
:109BE00052442500416363746F6E476F64776974F4
:109BF0005F474131003031323334353637383941FF
:109C000042434445460000000000002000000200DE
:109C10000200000000000030000004000800000006
:109C20000000002400000800040000000004000000
:109C300000FC000002000000000004300080000072
:109C400008000000000000380000010001000000D2
:109C50001F1C1F1E1F1E1F1F1E1F1E1F1F1D1F1E1E
:109C60001F1E1F1F1E1F1E1F000000004D6000084A
:109C700005630008B16300084000400074660020DE
:109C8000746600200100000084660020800000004F
:109C9000400100000800000000010000001000006A
:109CA0000800000069646C65000000006D61696E69
:109CB000002C0438040438080C10141C2024252619
:109CC0000000000000006404010004000000000027
:109CD000000C0010283034009067FF7F0100000066
:109CE000D01B00000000000000001E00000000006B
:109CF000FF00000018490020F83900208C390020AE
:109D00002039002000000000309300088304000088
:109D10003B93000850040000499300080100000034
:109D200000000000009600000000080096000000FF
:109D30000008000004000000D89B0008000000009C
:109D40000000000000000000000000000000000013
:049D5000000000000F
:00000001FF
