:020000040800F2
:1000000000090020B1010008592A0008F52900085C
:10001000352A0008F5290008152A0008B301000850
:10002000B3010008B3010008B3010008313E000825
:10003000B3010008B3010008B3010008B3010008D0
:10004000B3010008B3010008B3010008B3010008C0
:10005000B3010008B30100087D4C0008A54C00085E
:10006000CD4C0008F54C00081D4D0008B3010008F8
:10007000B3010008B3010008B3010008B301000890
:10008000B3010008B3010008B3010008F928000813
:100090000929000819290008B3010008454D000886
:1000A000B3010008B3010008B3010008B301000860
:1000B000414E0008B3010008B3010008B301000875
:1000C000B3010008B3010008B3010008B301000840
:1000D000B3010008B3010008B3010008B301000830
:1000E000B94D0008B3010008B3010008B3010008CE
:1000F000B3010008B3010008B3010008B301000810
:10010000B3010008B3010008B3010008B3010008FF
:10011000B3010008B3010008B3010008B3010008EF
:10012000B3010008B3010008B3010008B3010008DF
:10013000B3010008B3010008B3010008B3010008CF
:10014000B3010008B3010008B3010008B3010008BF
:10015000B3010008B3010008B3010008B3010008AF
:10016000B3010008B3010008B3010008B30100089F
:10017000B3010008B3010008B3010008B30100088F
:10018000B3010008B3010008B3010008B30100087F
:10019000B3010008B3010008B3010008B30100086F
:1001A00049110008000000000000000000000000ED
:1001B00002E000F000F8FEE772B6374880F30888E6
:1001C000364880F3098836483649086040F2000016
:1001D000CCF200004EF63471CEF200010860BFF39D
:1001E0004F8FBFF36F8F40F20000C0F2F0004EF669
:1001F0008851CEF200010860BFF34F8FBFF36F8FBD
:100200004FF00000E1EE100A4EF63C71CEF2000114
:100210000860062080F31488BFF36F8F04F026FB7C
:1002200004F0E4FB4FF055301F491B4A91423CBF9C
:1002300041F8040BFAE71D49184A91423CBF41F8C6
:10024000040BFAE71A491B4A1B4B9A423EBF51F86E
:10025000040B42F8040BF8E700201849184A9142B1
:100260003CBF41F8040BFAE704F004FB04F0C4FBC4
:10027000144C154DAC4203DA54F8041B8847F9E7D7
:1002800000F042F8114C124DAC4203DA54F8041B52
:100290008847F9E704F0ECBA0009002000110020BB
:1002A0000000000808ED00E0000100200009002027
:1002B000E0500008001100206811002068110020A3
:1002C000283B0020A0010008A4010008A4010008A8
:1002D000A40100082DE9F04F2DED108AC1F80CD0D3
:1002E000C3689D46BDEC108ABDE8F08F002383F300
:1002F00011882846A047002003F01CFFFEE703F00A
:10030000A1FE00DFFEE70000F8B500F021FF04F0D9
:100310004BFA064604F0A0FA0746A8B92B4B9E42BA
:100320002AD001339E422AD026F0FF02284B9A425F
:1003300003D005464FF47A7408E0F0B200F018FEDE
:100340003D4642F2107401E00546002400F016FE1E
:1003500008B10024254601F097FB98B9B4F57A7FDF
:1003600016D017B11B4B9E4214D1002004F028FA7E
:10037000ADB900F03DFE24E005460024E6E7002488
:100380000125E3E7032000F02FF800242546E8E7E5
:100390000125E6E704F058FA00242546E5E700F0D9
:1003A00041F8E6E700F074FE4FF47A7003F0CAFEFD
:1003B000002CF7D002F058FB401BA042F2D900F00D
:1003C00031F802F051FB0546F2E700BF010007B02B
:1003D000000008B0263A09B0302383F3118885461F
:1003E00080F308880847704708B50C4B187003283D
:1003F00006D8DFE800F00A06020E022000F00CFF2B
:1004000008BD022000F006FFFAE7054B00225A6003
:10041000F6E7034B00225A60F2E700BF701100209C
:100420006811002008B501F02FFB034668B9072BBF
:100430000FD89A0002F1006202F520421268B2F170
:10044000FF3F05D00133DBB2F1E70320FFF7CCFF1C
:1004500008BD1A4B5A689A42FAD3194B9B6803F1AC
:10046000006303F520439A42F2D204F0BFF904F08E
:10047000D1F9002000F088FE0220FFF7B5FF114BF4
:100480009A6D00229A65996F9A67996FD96DDA65AE
:10049000D96FDA67D96F196E1A66D3F88010C3F86E
:1004A0008020D3F8803072B6044B4FF0E022C2F8BF
:1004B000083D59681868FFF78FFFC9E700A00008DA
:1004C0000011002000100240BFF34F8F0549CA6899
:1004D00002F4E062044B1343CB60BFF34F8F00BFC5
:1004E000FDE700BF00ED00E00400FA05094A1368CB
:1004F00099B21B0C49F2690000FB01331360064BF3
:10050000186882B2000C44F2506101FB02001860CE
:1005100080B27047141100201011002010B504465D
:10052000FFF7E4FFB0FBF4F304FB130080B210BD4F
:1005300070B50E4614461D4602F09CFF60B9022DB0
:1005400033D1012C01D0002030E019A3D3E90023DE
:10055000C6E90023012029E0282C1FD00CD8012C4B
:1005600015D0052C06D114A3D3E90023C6E9002336
:1005700001201BE0002019E0302C06D110A3D3E9A4
:100580000023C6E90023012010E000200EE00EA3A6
:10059000D3E90023C6E90023012007E00CA3D3E937
:1005A0000023C6E90023012000E0002070BD00BF49
:1005B000401DA12026812A0BF017304A39059E568E
:1005C00078F6339F93CACD8D9E6AC421818A46EE08
:1005D00026417272DF25D7B710B4034600220260AD
:1005E00042608260C260044C07CC186059609A6017
:1005F0005DF8044B704700BF9075FF1F70B58AB05F
:1006000006460D4602F030FA04464FF4C870FFF774
:1006100085FF044404F51674184B1C60EB7E23B967
:10062000174B00221A700AB070BD05A9284600F0C9
:10063000E7FF0028F7D101A8FFF7CEFF9DF816408D
:10064000224601A90DF1170004F052FC48B90F2C05
:100650000BD80B4B1C70094A1368A3F51673136073
:10066000E1E7074B00221A70DDE79DF8141000291E
:10067000D9D0304602F0F6FED5E700BFB016002014
:10068000AC1600202DE9F041ADF54E7D07460E4633
:100690000CAC4FF4C4720021204600F0D3FD02F0F0
:1006A000E3F9304BA3FB00239B092F4A136007CAD1
:1006B00084E80700022323744FF0000884F81180B7
:1006C0000DF15200FFF788FF052384F820307F23C7
:1006D00084F821300DF1180C244D0FCDACE80F003B
:1006E00095E803008CE80300172384F832310DF1FC
:1006F000180CBCE80F00CDF86301CDF86711CDF8F8
:100700006B21CDF86F31DCF80000CDF87301BCF837
:1007100004209CF80630ADF877218DF879316FAD63
:1007200001222946204600F0CDFE80B205900495B6
:10073000CDF80C80B37E029306F1190301930123D7
:10074000009306A3D3E90023F17E384602F046FF6A
:100750000DF54E7DBDE8F081AFF300809E6AC421A7
:10076000818A46EED34D6210B4160020704F000807
:10077000F0B5FDB006460D462B4B1C7A6CBB07A9A5
:10078000284600F0A9FF002845D19DF81D70C82F0C
:1007900041D84FF4A6620021234800F053FD09E040
:1007A0002202214B4FF48A7101FB0433C3F8E42089
:1007B0000134E4B2032CF3D91C4C3A460DF11E016E
:1007C000204600F02BFD093CE219002353729DF8EE
:1007D0001C3023720BB9EA7E2272812200213AA8D2
:1007E00000F030FD5BAC012221463AA800F0CEFFBC
:1007F00080B20590049400230393AB7E029305F12D
:10080000190301932823009305A3D3E90023E97E6C
:10081000304602F0E3FE7DB0F0BD00BFAFF30080D4
:1008200026417272DF25D7B77C1100208511002088
:10083000134BB3F82C35834200D9704710B50446EA
:10084000002100F0CBFC01340D4BA3F82C450C4BE0
:10085000B3F82C0500F0A6FC88B1094BB3F82C05C1
:1008600000F0B2FC58B9064C0021B4F82C0500F099
:10087000B5FCB4F82C350133A4F82C35E7E710BDEE
:100880007C1100202DE9F041F0B00646274C94F889
:10089000D8304FF48A7505FB004585F8DC30002719
:1008A00085F8E870D82239463AA800F0CBFC04F16C
:1008B0000908404600F0BCFC8DF8F000D5F8E430A3
:1008C0003A933B97C2B241460DF1F10000F0A6FC0D
:1008D00006AD012229463AA800F0AEFF80B205908D
:1008E0000495012303930823029304F1D803019391
:1008F000302300930BA3D3E90023217A0C4802F0A4
:100900006DFEB84203DC002070B0BDE8F08102F05B
:10091000ABF84FF48A7202FB0643C3F8E0000120F3
:10092000F2E700BF78F6339F93CACD8D7C1100208B
:10093000B437002038B502F097F80546002408E0E7
:100940000532B3EB420F02D3FFF79CFFF8B101343D
:10095000E4B2032C1BD80E4B93F8D900204400F0CE
:1009600003004FF48A7202FB003393F8E830002B47
:10097000EDD1074B02FB0033D3F8E030002BE3D07E
:10098000EB1A034A1268F92ADAD8FA22D8E738BDF6
:100990007C11002010B586B0BDF828400494099C55
:1009A00003949DF8204002940193009202460B4666
:1009B000024802F0B3FD06B010BD00BFB4370020FE
:1009C00010B58AB0244802F055FD08B10AB010BD38
:1009D00002F04AF8214B1B689842F7D302F044F822
:1009E00004464FF4C870FFF799FD044404F51674EB
:1009F0001A4B1C6000238DF82030194B1B7813B95B
:100A000001238DF8203004A8FFF7E6FD144B197878
:100A1000C1F11004E4B2062C00D90624224604AB2E
:100A200019440DF1210000F0F9FB0134029408ABE8
:100A30000193182300930B4B012205A1D1E900017A
:100A4000FFF7A8FF064B00221A70BFE7AFF3008044
:100A5000401DA12026812A0BB4370020B0160020AB
:100A6000AC160020C016002010B586B001F0FCFFC7
:100A70000F4BA3FB00239B090E48036004AC01222B
:100A8000214600F065FD80B2029001941823009386
:100A9000094B40F2551204A1D1E90001FFF77AFF9A
:100AA00006B010BDAFF30080F1C6A7C1D068080F33
:100AB000D34D6210B41600207811002010B5024604
:100AC0000B46094C204602F0C1FD204602F0D2FC44
:100AD00038B1064B1B7A2BB10322054B5A71FFF735
:100AE000C3FF10BD0222F8E7B43700207C110020BC
:100AF000B416002038B50025084C002D05DA084A48
:100B00000849002004F0DEF938BD204601F062FA01
:100B1000013D04F587540834EFE700BFC8160020F4
:100B20001C38002025110008002202600273427365
:100B300042608260704700BFF0B587B0234802F082
:100B400079FD044600283AD002A8FFF7EDFF237B89
:100B50008DF8143003AB6068A16803C3236843F0C9
:100B600000430293002425463CB10DB3174802F020
:100B700065FD174B00221A70E0E741F2E80304FB21
:100B800003F3144A9E18D3581F6901F071FF124AEB
:100B900082184FF00003009341F1000302A9304690
:100BA000B8470028C8BF45F001050134E4B2DBE7CF
:100BB000074B1B78072B04D80133054A137007B085
:100BC000F0BD024802F03AFDF9E700BFB43700205B
:100BD00079110020C816002040420F00CA7EA04BA9
:100BE0001B7A9A4240F03B812DE9F04700AF08465E
:100BF0000024032C0CD89A4B4FF48A7202FB043366
:100C000093F8DC20437E9A4211D00134E4B2F0E73D
:100C1000002373B9924B1B68FA3340F6B832934203
:100C200000D913468E4A1360BD46BDE8F087012304
:100C3000EFE74FF48A7104FB01F1E031884B19446E
:100C40000A3100F04BFE0028EED1854B4FF48A723A
:100C500002FB0434012384F8E83001F005FFD4F8E6
:100C6000E030C31A192B05D940F6B832934202D9A5
:100C7000134600E019237A4AD2ED007AF8EE677A3B
:100C80009FED787A27EE877A07EE903AF8EE677A4A
:100C9000DFED756A67EEA67A77EE277AFCEEE77AE3
:100CA000C2ED007A3CE013464FF48A7202FB053332
:100CB000002283F8E820C3F8E020C546684B5B6853
:100CC0009B0A0133694A1381AEE7002042F8040B06
:100CD000013B002BF9DA2246304600F09FFA604BC8
:100CE0005B68002B4BD05E4B93F8D20000F05AFAB1
:100CF0008246002847D05A4BD3F8D430002B4ED030
:100D0000574BD3F8D430234453454ED85FFA89F279
:100D10003146534B586800F09FFA00284CD1C54625
:100D20004F4B93F8D9504FF48A7202FB053393F876
:100D3000E830002BC2D0E846494A4FF48A7303FBDF
:100D40000523D3F8E41053689942ACD1444B4FF4D7
:100D50008A7105FB01F15A18B2F8EC40E21C4FEA27
:100D60009209E03119440E314A4609F1FF339200ED
:100D70000732D208A8EBC20295466E46A9E70120C9
:100D800000F002FAAFE70024354B1C7200F030FA95
:100D9000204600F0F9F9354B0B221A818DE7304BD4
:100DA00093F8D200FFF744FDAAE72D4B93F8D20049
:100DB0000130FFF73DFDA9E7294B5A6822445A60EC
:100DC000D3F8D4602644C3F8D46093F8D20000F07E
:100DD000E9F986420BD3224B93F8D220013283F8F3
:100DE000D220D3F8D420A2EB0A02C3F8D420FF2CDF
:100DF00023D91B4C4FF48A7303FB0543002283F86D
:100E0000E820C3F8E020D3F8E42002F58062C3F8BC
:100E1000E42094F8D900FFF735FDFFF78DFE94F834
:100E2000D93001335A4203F0030302F0030258BFE2
:100E3000534284F8D930C54672E70024084B1C722F
:100E400000F0D6F9204600F09FF900F01DFE074A99
:100E5000108108B1C546E7E6FFF7E4FAFAE7704704
:100E60007C1100206666663FCDCCCC3DB4160020D8
:100E700038B505460C4602F0FDFA50B1E38A282B3E
:100E80001ED016D8012B10D121462846FFF7FAFBB9
:100E900002E0237E022B00D038BDE38A012BFBD178
:100EA00021462846FFF7AAFBF6E7052BF4D1FFF70A
:100EB0000BFB302BF0D121462846FFF78FFEEBE7E6
:100EC00021462846FFF754FCE6E700BFF0B58FB097
:100ED0000AA8FFF729FE002426461CB1002EFAD1ED
:100EE0000FB0F0BD01238DF80C3000238DF80D30CC
:100EF00041F2E80204FB02F21B4955188A5800200F
:100F00000021CDE9000197680DF10D0203A92846E3
:100F1000B8479DF80C7027B30023069307930893F6
:100F2000099341F2E80304FB03F30F4AD3585E69C7
:100F30000DF10E0304AA0AA92846B04707AB0BAA75
:100F400092E8030083E803009DF834308DF82430E4
:100F50000A9B0693DDE9042306A9044802F040FD3C
:100F60003E460134E4B2B8E7C8160020B43700208A
:100F7000014B1870704700BFB02700204FF000539E
:100F80001A68184B9A4201D0002070474FF0005366
:100F9000587D08B90020704710B5FFF7E9FF4FF002
:100FA00000531A7D104B1A720023032B0AD8190222
:100FB0000D4A4FF48A7000FB0322C2F8E41001339B
:100FC000DBB2F2E74FF00054C92204F116010748E2
:100FD00000F024F9E0220021204600F033F901203E
:100FE00010BD00BF9AAD44C57C11002085110020C2
:100FF00030B583B000F048FD1C4B188102225A71B5
:1010000000240CB300230193194B0093194B4FF4A8
:1010100080521949194802F009FA194B197809BB8D
:1010200001F022FD04464FF4C870FFF777FA04443C
:1010300004F51674134B1C6003F00EFC10B10B4B3F
:101040000F221A8103B030BD41F2E80304FB03F321
:101050000D48C258556801220C491844A84701346C
:10106000E4B2CEE7054802F0FDF9D9E7B416002056
:1010700031050008710E0008B4270020B4370020A5
:10108000B0270020B0160020C816002040420F00F4
:1010900008B50CE0114B186001F0EAFCFFF70EFDFB
:1010A00013E0C82003F04EF80D4B1B7AA3B1FFF7F5
:1010B00043FDFFF70BFFFFF783FC01F0D5FC074B67
:1010C0001B68C31AB3F57A7FE4D2054B1B7A002B59
:1010D000E7D0FFF72FFCE4E708BD00BF7411002044
:1010E0007C11002038B5044603793BB905682DB161
:1010F000284600F0D7FC284600F030FE204638BDD8
:1011000010B50446064B036000F583500C30FFF722
:10111000E9FF04F58250183000F0C4FC204610BDF1
:10112000D04F000810B5064C064B9C4206D0A4F5E3
:101130008754083C2046FFF7E3FFF5E710BD00BFEA
:10114000B0270020C816002008B5FFF7D3FC08BD63
:1011500010B503F007FA0A4B1880002406E003F0EC
:10116000FDF90444074A136801331360B4F5204FB6
:1011700005D2034B1B88034A10688342EFD810BD89
:101180000C3800201038002008B503F035FA08BDEF
:1011900008B5920000F1006000F5204003F028FA45
:1011A00008BD00BF08B5064B1B88064A12689B1A8B
:1011B000834201D8002008BD104403F0CFF9FAE7BC
:1011C0000C3800201038002008B5034B1B68184469
:1011D00003F0CAF908BD00BF1038002008B5034B62
:1011E0001B68184403F0D8F908BD00BF1038002070
:1011F00008B5074B93F824300BB9012008BD04490A
:10120000002381F824300822086AFFF7C1FFF5E7C0
:10121000E4370020704700BF704700BF002304E0A0
:1012200011F803C000F803C001339342F8D37047AC
:101230000346002000E0013013F9012B002AFAD107
:10124000704700BF034602E003F8011B624602F14B
:10125000FF3C002AF8D170472DE9F84380460F463D
:101260001546224B93F824303BB3204A126A02EB16
:101270008303834221D0FFF7BBFF0346E8B931E087
:101280001A4E96F82400C0F10804AC4228BF2C4640
:10129000E4B24FEA84094A46394606EB8000FFF77C
:1012A000BDFFC8444F442D1BEDB296F824302344B3
:1012B000DBB286F82430082B0DD095B10B4B93F898
:1012C0002430002BDCD10948C0F820802022FF21E7
:1012D000FFF7B8FFD4E7FFF78BFF03460028ECD1F8
:1012E00000E001231846BDE8F88300BFE437002082
:1012F00070B506460C46154613462022096802F0D2
:10130000EBFA2168203121602B1D0222304602F0C9
:10131000E3FA2168023121606B1D0322304602F09E
:10132000DBFA216803312160AB1D0322304602F055
:10133000D3FA21680331216005F1080310223046F9
:1013400002F0CAFA23681033236070BD70B50646F8
:101350000C46154613460822096802F0BDFA2168BA
:10136000083121606B1C0822304602F0B5FA216872
:1013700008312160AB1C0822304602F0ADFA21682A
:10138000083121602B1D2022304602F0A5FA216889
:101390002031216005F108034022304602F09CFA1A
:1013A00023684033236070BD2DE9F04182B00746C9
:1013B0000C461646984613460822096802F08CFA35
:1013C000216808312160731C0822384602F084FA33
:1013D00023680833236000250AE0731902330822CA
:1013E0002168384602F078FA216808312160013519
:1013F0000F2DF2D9B37C8DF80730B8F1000F12D061
:1014000000259DF80730AB4218D905F1100333448D
:10141000033308222168384602F05EFA2368083355
:1014200023600135EDE70DF10703082221683846F6
:1014300002F052FA236808332360E1E702B0BDE806
:10144000F08100BFF0B583B007460D4616461C4636
:101450000023FFF74DFF002306F11002294638460E
:10146000FFF774FF002306F1200229463846FFF7F4
:101470009BFF96F83231502B28BF50238DF8073050
:101480000CB1002417E00DF1070307222968384644
:1014900002F022FA2B6807332B60F2E704F5987309
:1014A0003344033308222968384602F015FA2B68C2
:1014B00008332B6001349DF80730A342EED803B007
:1014C000F0BD00BF70B582B005460C46164600213F
:1014D000019140F279122046FFF7B4FE33462A46C6
:1014E00001A92046FFF7AEFF01980730C00802B0FF
:1014F00070BD00BF70B506460C4615461346202247
:10150000096802F0E9F92168203121602B1D0222CF
:10151000304602F0E1F92168023121606B1D03229F
:10152000304602F0D9F9216803312160AB1D032256
:10153000304602F0D1F921680331216005F108033A
:101540001022304602F0C8F923681033236070BDC2
:1015500000B583B08446084613460021019101601E
:10156000C0F80310624601A9FFF7C4FF01980730D5
:10157000C00803B05DF804FBF0B583B007460C4625
:1015800016461D46009200230722096802F0A6F8BD
:10159000216807312160731C009300230122384623
:1015A00002F09CF82168013121604DB1BB8AC1EB8A
:1015B000C301C908B170B378102B1FD8002517E0FC
:1015C000B31C009300230522384602F087F82368F5
:1015D00005332360EFE773190333009300230822D8
:1015E0002168384602F07AF8236808332360013511
:1015F000B378AB42EFD8002003B0F0BD0120FBE789
:1016000010B582B004460A46037F13B1818A1229BD
:1016100010D80021019101A92046FFF7ADFF034634
:1016200040B9019B0733DB08227F32B1A28AD31A6B
:1016300018BF0123184602B010BDA28A9A422CBFDF
:1016400000230123F6E700BFF0B583B007460D463F
:10165000164653B1828A0B68C3EBC203DB083370B2
:101660003378C82B1DD8002415E0009208220968A1
:1016700002F034F82B6808332B60F1E7331901339B
:101680000093002308222968384602F027F82B68C7
:1016900008332B6001343378A342EFD8002003B025
:1016A000F0BD0120FBE700BFF0B583B006460C4655
:1016B00015461F46009200230822096802F00EF822
:1016C0002368083323603B466A1C21463046FFF7F7
:1016D000BBFF03B0F0BD00BF10B582B004460A46A0
:1016E000037F13B1818ACA2910D80021019101A971
:1016F0002046FFF7D9FF034640B9019B0733DB08BB
:10170000227F32B1A28AD31A18BF0123184602B031
:1017100010BDA28A9A422CBF00230123F6E700BF26
:10172000F0B583B007460D4616461C461346082200
:10173000096802F0D1F8296808312960737896F9B0
:101740000120002A04DB8DF807301CB1002416E0CC
:101750007F23F8E70DF107030722384602F0BCF8B3
:101760002B6807332B60F1E733190233082229680D
:10177000384602F0B1F82B6808332B6001349DF82D
:101780000710A142F0D803B0F0BD00BF70B582B021
:1017900005460C4616460021019181222046FFF79E
:1017A00051FD33462A4601A92046FFF7B9FF0198AB
:1017B0000730C00802B070BDF0B583B007460D46D3
:1017C00016461278C82A28BFC8228DF807200BB108
:1017D000002414E00DF107030822096802F07CF8E8
:1017E0002B6808332B60F3E733190133082229688B
:1017F000384602F071F82B6808332B6001349DF8ED
:101800000730A342F0D803B0F0BD00BFF8B50646DC
:101810000C4615461F4613462822096802F05CF85C
:101820002368283323603B4605F1080221463046F1
:10183000FFF7C2FFF8BD00BF70B582B005460C4689
:10184000164600210191CE222046FFF7FBFC3346CD
:101850002A4601A92046FFF7D9FF01980730C008A2
:1018600002B070BDF0B583B007460D4616461C4663
:10187000009201231022096801F030FF296810311D
:10188000296054B1BB8AC1EBC301C9087180738858
:10189000B3F5807F1FD8002417E0B31C009300230A
:1018A0000922384601F01AFF2B6809332B60EEE756
:1018B000331904330093002308222968384601F0C5
:1018C0000DFF2B6808332B6001347388A342EFD8D7
:1018D000002003B0F0BD0120FBE700BF10B582B0CF
:1018E00004460A46037F1BB1818AB1F5827F10D876
:1018F0000021019101A92046FFF7B4FF034640B93A
:10190000019B0733DB08227F32B1A28AD31A18BFAA
:101910000123184602B010BDA28A9A422CBF0023B0
:101920000123F6E700B596460AE040F3000C0A4AA8
:101930000CEA020282EA50000133DBB2072BF4D931
:1019400073460EF1FF3E23B111F8013B58400023CE
:10195000F4E75DF804FB00BF2083B8EDF0B583B079
:101960001F4B6A4693E8030082E8030008231D49E1
:101970001D4803F0CDFA30B304460369B3F5583F70
:1019800023D8418B40F27F52914220D100F11807B9
:10199000164A024402F110018B421BD39B1AA3F199
:1019A000100511490020FFF7BDFF06462A463946BB
:1019B0000020FFF7B7FFA368B3420DD1E36883426D
:1019C0000CD1002004E00A2002E00B2000E00C20F3
:1019D00003B0F0BD1020FBE70D20F9E70D20F7E77D
:1019E000884F0008DC5F030000A000080860FFF7D4
:1019F000F0B583B0204B6A4693E8030082E8030009
:101A000008231E491E4803F083FA38B304460369CD
:101A1000B3F5583F24D8B0F8661040F27F52914297
:101A200020D100F16407174A024402F15C018B42A5
:101A30001BD39B1AA3F15C0511490020FFF772FF2D
:101A400006462A4639460020FFF76CFFA368B342DA
:101A50000DD1E36883420CD1002004E00A2002E0AB
:101A60000B2000E00C2003B0F0BD1020FBE70D20A0
:101A7000F9E70D20F7E700BF944F0008905F0300DF
:101A800000A000080860FFF710B5FFF767FF0446E5
:101A900008B9204610BDFFF7ABFF0028F9D1044676
:101AA000F7E700BF10B50446037C0BB1204610BD1C
:101AB000006803F015FAF9E7BFF35B8FC368BFF363
:101AC0005B8FBFF35B8F8268BFF35B8F9A4208D94D
:101AD0004268BFF35B8F8168BFF35B8F521AD018E7
:101AE0007047BFF35B8F8068BFF35B8F181A704736
:101AF000BFF35B8F0023C360BFF35B8FBFF35B8FCC
:101B00008360BFF35B8F70470346406800B970473E
:101B1000BFF35B8F9A68BFF35B8FBFF35B8FD968AE
:101B2000BFF35B8F914209D35868BFF35B8FDB68CB
:101B3000BFF35B8FD21A013A1044E8E70020F4E7C4
:101B400038B505460C46FFF7B7FFA04201D200208A
:101B500038BDBFF35B8FAB68BFF35B8F1C446B6812
:101B6000B4FBF3F203FB1244BFF35B8FAC60BFF333
:101B70005B8F0120ECE700BF70B504460E461546AA
:101B8000FFF7C2FFA84200D3284608B9002070BD65
:101B90002368BFF35B8FE268BFF35B8F134433604E
:101BA0006268BFF35B8FE368BFF35B8FD11A884233
:101BB00007D971602168B1609B1A0344F360022069
:101BC000E5E770600120E2E738B505460C46FFF70F
:101BD0009BFFA04201D2002038BDBFF35B8FEB68B2
:101BE000BFF35B8F1C446B68B4FBF3F203FB12443E
:101BF000BFF35B8FEC60BFF35B8F0120ECE700BFAE
:101C00002DE9F04385B0814688466946FFF7B4FF69
:101C10000746002425460EE004AB03EBC40656F845
:101C20000C2C08EB050156F8100CFFF7F7FA56F8E4
:101C30000C3C1D440134A742EEDC29464846FFF720
:101C4000C3FF284605B0BDE8F08300BFBFF35B8F3C
:101C5000C368BFF35B8FBFF35B8F8268BFF35B8F9B
:101C60009A4210D94368BFF35B8F8268BFF35B8FE2
:101C70009B1A0B6073B10368BFF35B8F8068BFF37F
:101C80005B8F18447047BFF35B8F8268BFF35B8F35
:101C90009B1AEEE700207047F0B583B007460E466A
:101CA0001546FFF709FF04460190A84200D32C46D1
:101CB00014B9002003B0F0BD01A93846FFF7C6FFF4
:101CC000019B6BB1A34200D901943060019B73600A
:101CD000A3420DD23A68B260E41AF4600220E9E748
:101CE0003B68336074600023B360F3600120E1E778
:101CF0000120DFE72DE9F04184B088466946FFF70F
:101D0000CBFF0746002425460EE004AB03EBC406D8
:101D100056F80C2C56F8101C08EB0500FFF77EFA5D
:101D200056F80C3C1D440134A742EEDC284604B0B2
:101D3000BDE8F08138B50546FFF7DCFF04460146F3
:101D40002846FFF7FDFE204638BD00BF08B500B9A4
:101D50000120012103F0BCF808BD00BF18B108B58F
:101D600003F0BEF808BD704710B5026854681A4603
:101D7000A04710BD0020704700207047704700BF8B
:101D8000002070470E20704700F5805090F8D80072
:101D9000C0F34000704700BF00F5805090F9E000AC
:101DA000704700BF00F58050C0F8DC10012070477C
:101DB000F0B583B0BDF820500C6814F0005F40F01F
:101DC00089800C7B082C00F28880302484F31188F1
:101DD000446AA66816F0806F0ED1A66816F0006FF0
:101DE0006BD1A66816F0805F02D04FF0020E05E0BE
:101DF000002080F311885EE04FF0000EF4460E687C
:101E0000002E5DDB76050EF1180E4FEA0E1E44F82B
:101E10000E600E6816F0804F06D00CF118063601E1
:101E2000A75947F00207A7510F7B0CF118064FEA9C
:101E3000061E04EB061677608E6804EB0C17C7F8D5
:101E40008C614E68C7F8886154F80E6046F0010650
:101E500044F80E6041F2780E0EEB4C14044400EB93
:101E60004C1CE644CEF80020CEF80430D1F800E057
:101E70004F688E68C4F808E0E76026618E89A68204
:101E80000CF5845C9CF8144065F300048CF8144055
:101E9000C5F34006E4B266F341048CF81440E4B2A2
:101EA00024F008048CF81440002484F31188009571
:101EB00000F052FE012003B0F0BD4FF0010E9DE78F
:101EC000F60046F004060EF1180E4FEA0E1E44F816
:101ED0000E609EE74FF0FF30EDE74FF0FF30EAE78E
:101EE00008B5302383F3118800F58050C06EFFF7EA
:101EF000FFFD002383F3118808BD00BF2DE9F041E9
:101F000006460F4603462F4A43F8042B002444603C
:101F10005C609C60DC601C615C612B4B40F8283B82
:101F2000FEF702FE00220023C6E90E23A6F8404079
:101F300006F14400FEF7F8FD06F1580844467F25F7
:101F40000BE000220023C4E900230023238104F1D5
:101F50000C00FEF7E9FD013D2034002DF1DA06F515
:101F60008053C3F858804FF48052DA6500221A6615
:101F70005A66012183F8681006F582521832DA6633
:101F800083F8701006F58354183402250AE02046C1
:101F900000220023E0E80223FEF7C6FD0023A36130
:101FA000013D2034002DF2DA06F5805383F8E0700D
:101FB00027B9064B73623046BDE8F081044800F053
:101FC0004DFD00BF2C500008D04F000800640040B9
:101FD000A04F000810B50446034B19784A1C1A702C
:101FE000FFF78CFF204610BD14380020002978D060
:101FF00070B582B00C46424B994211D90A2341492F
:10200000B1FBF4FC013BDBB29E46581CBCFBF0F17B
:1020100000FB11C131B1022B65D9013BDBB2F3E703
:102020001123ECE7BCFBF0FC0CF1FF31B1F5806F44
:102030005CD2C3EBC30E1EF103004DD4C0F3C70046
:102040008DF800001D1AEDB28DF80150461C4FF4BA
:102050007A7100FB0111701991FBF0F189B2ADF8B2
:102060000210B1F5617F18D9BEF1010E36D4CEF35E
:10207000C70E8DF804E0A3EB0E03DBB28DF805303C
:102080000EF101004FF47A710EFB0111034491FB34
:10209000F3F1ADF80610019B00939DF800104B1C66
:1020A0009DF801502B440CFB03F31648B0FBF3F3EF
:1020B000A3421DD10139C9B20F291BD8E5B1082DA2
:1020C0001CD80CF1FF3CA2F800C000239370D17023
:1020D000013D1571012007E00730AFE70EF1070E53
:1020E000C5E700207047002002B070BD0020FBE76C
:1020F0000020F9E70020F7E70020F5E70020F3E7EC
:102100003F420F0000B4C40470B506460D460024DB
:10211000B4F57A7F0BD2736A5B6803F00103AB42BC
:1021200007D04FF47A7002F00DF80134F0E7002088
:1021300000E0012070BD00BF03295FD8F0B589B071
:1021400004460D46164600F5805393F8D830C3F385
:10215000800113F0040F00D1114604F5805393F869
:10216000D82061F3820283F8D82041F2780303EB90
:102170004513E71804EB451303F5845310331B791B
:1021800013F0010F09D0CEB104EB451303F58453CE
:1021900010331B7913F0080F12D07EB104EB4513F6
:1021A00003F5845310331B7913F0080F06D104EBA9
:1021B000451404F5845443F00803237509B0F0BDB9
:1021C00000220023CDE900230023ADF8083003A846
:1021D000FEF7AAFC03ABB868F9683A6907C3BA8A84
:1021E0001A80DDE90E23CDE900230123ADF8083084
:1021F00023681B6C694620469847CEE7704700BFAE
:10220000426A936913F0700F25D00023936100E0B8
:102210000133022B1FDC00EB431202F58452103213
:10222000127912F0040FF3D000EB431202F584523E
:102230001032127912F0020FEAD0426A064951F8C0
:102240002310916000EB431202F58452117D41F09E
:1022500004011175DCE770471450000870B582B0B6
:10226000044616461D46436A9A6812F0010F16D1BD
:10227000636A9A6812F4807F1CD1636A9A6812F4C8
:10228000803F24D104F58053D3F8DC0010B10368FB
:102290001B6998472046FFF7B3FF02B070BD9A68EC
:1022A0000121996000960195C2F340020021FFF7D9
:1022B00043FFDDE79A684FF48071996000960195BD
:1022C000C2F3402201212046FFF736FFD5E79A6886
:1022D0004FF48031996000960195C2F3404202218B
:1022E0002046FFF729FFCDE710B50B4B1C5604B174
:1022F00010BD00F0BDFB02460B4652EA030102D0BE
:10230000013A43F1FF33054951F824000028EFD08A
:10231000FFF7A4FFECE700BF2050000818380020AA
:1023200038B50446084600297CD1616A01F10C0CDD
:10233000DCF8001011F0030F73D0DCF80010616AB4
:1023400000F11B052D014D5915F0040F6ED100F160
:102350001B052D014D596D0DA56200F11B052D01C9
:102360004D5915F0020F03D0A56A45F08045A562CE
:1023700000F11B0501EB05156D6805F00F0E84F8E3
:1023800034E001EB0011D1F8B80184F82C00D1F849
:10239000B801000A84F82D00D1F8B801000C84F8C7
:1023A0002E00D1F8B801000E84F82F00D1F8BC013E
:1023B00084F83000D1F8BC01000A84F83100D1F86B
:1023C000BC01000C84F83200D1F8BC11090E84F86D
:1023D00033103821CCF80010A56AE06A216B6564DF
:1023E000A064E164A18EA4F85010A263E36300230B
:1023F000A4F8403023681B6C04F13801204698474C
:1024000004F5805393F8D82042F0040283F8D820D2
:10241000D3F8DC0010B103681B6998472046FFF72A
:10242000EFFE38BD616A01F1100C81E700F11B0578
:102430002D014D59ED08A56245F00045A5628CE7D8
:1024400038B50C4B1D5605B138BD0C4600F010FBDD
:1024500002460B4652EA030102D0013A43F1FF3330
:10246000054951F825000028EED02146FFF758FF16
:10247000EAE700BF2050000818380020302181F31F
:1024800011880021022937DC30B502E00131022930
:102490002EDC00EB411C0CF5845C0CF1100C9CF85C
:1024A00004C01CF0040FF1D100EB411C0CF5845C5E
:1024B0009CF8144014F0100FE8D000EB411C41F2DE
:1024C00078040CEB040E5CF80450DEF804409542EE
:1024D0009C41DBD2446A0A4D55F82150A5600CF5A9
:1024E000845C9CF8144044F004048CF81440CDE75C
:1024F000002383F3118830BD002383F311887047D4
:102500001450000808B5302383F31188FFF778FED4
:10251000002383F3118808BD436A9B6803F0E053EE
:10252000B3F1E05F2CD070B505460E4653B33023AF
:1025300083F31188002400E00134022C1BDC05EB3E
:10254000441303F5845310331B7913F0080FF3D1B0
:1025500005EB441303F5845310331B7913F0040F78
:10256000EAD104F1840105EB4111304600F046FB4D
:102570000028E1D100E00120002383F3118870BD21
:10258000012070470020FAE708B5302383F3118853
:1025900000F58050C06EFFF78FFA002383F3118897
:1025A0001F288CBF0020012008BD00BFF8B50746DA
:1025B0000E4614461D4600231370FFF7E5FF80F01A
:1025C0000103337025B129463846FFF7A5FF207077
:1025D000F8BD00BFF8B504460D4616461F4600F08C
:1025E00047FA02460B46297809B9307860B120468F
:1025F000FFF744FF2046FFF785FF3B46324629465A
:102600002046FFF7D3FF0120F8BD00BF302383F33E
:1026100011881B4B9A6D42F000729A659A6B42F0DA
:1026200000729A639A6B22F000729A63002383F31C
:10263000118800F5805393F8D83013F0010F1ED1A4
:1026400010B5044601B910BD302383F3118803216E
:10265000132001F067FC0321142001F063FC032127
:10266000152001F05FFC04F5805494F8D83043F055
:10267000010384F8D830002383F31188E3E770471F
:102680000010024000F5805393F8E030012B00F277
:102690002E812DE9F0418AB004460E461746954A30
:1026A00052F82320002A37D0E66184F82070914B3D
:1026B0001B68002B34D004F5805393F8E030012BD5
:1026C00006D18C4B186803681B6B9847002836D0DE
:1026D00001212046FFF79AFF302383F31188626AB5
:1026E000136823F002031360626A136843F0010366
:1026F0001360626A0023536183F31188012120462D
:10270000FFF702FD034648BB626A4FF400411160C7
:1027100018460AB0BDE8F081764A42F82300C3E7C4
:1027200041F2E800FFF712FB054610B10021FFF768
:10273000E5FB704B1D60002DBDD10023E8E76D4D1A
:1027400000212868FFF762FF286803685B683A4643
:102750003146984703460028BAD1D9E704F580539B
:10276000D86EFFF7C5F94FF0000827E020220021BE
:102770006846FEF767FD02A8FEF7D6F90023069328
:1027800041F2780505EB481504EB050EEC46BCE874
:102790000F006051CEF80410CEF80820CEF80C30AF
:1027A000BCE80700CEF81000CEF81410CEF81820C0
:1027B0009CF800308EF81C3008F10108B8F1020FC7
:1027C000D4D904F5805292F8D83023F0040382F86B
:1027D000D8300023ADF820308DF822308DF823302A
:1027E0008DF8243008AA31462046FFF7FFFB034648
:1027F00000286FD0636A61221A609DF822301B06A0
:1028000003F040739DF82320120402F47022134356
:102810009DF82420120502F4E0021343BDF82020A5
:10282000C2F309021343022F59D00021626A0B43FD
:10283000D361636A13225A61626A136823F0010349
:10284000136000212046FFF75FFC0346002849D0B3
:1028500004F5805292F8E0209ABB616AD1F8002218
:1028600042F00102C1F80022616AD1F8002222F48C
:102870007C5222F00E02C1F80022616AD1F80022D7
:1028800042F46062C1F80022616A0022C1F8142299
:10289000616AC1F80422616A41F6FF70C1F80C0256
:1028A000616AC1F84022616AC1F84422626A01216A
:1028B000C2F81C12616AD1F8002222F00102C1F8AC
:1028C000002204F5805494F8D82042F0020284F8E3
:1028D000D8201DE7626A4FF40041116018E74FF0FD
:1028E0000041A3E7626A4FF40041116010E7002342
:1028F000184670471838002008B50020FFF7F4FC90
:1029000001F0CAFA08BD00BF08B500210846FFF76C
:1029100097FD01F0C1FA08BD08B501210020FFF7BD
:102920008FFD01F0B9FA08BD38B504460D460068C0
:10293000FFF7EAF81F2801D8002038BD20222946D9
:102940002068FFF75DF9202814BF00200120F4E77C
:1029500008B500F583500C30FFF7E6FF08BD00BF57
:1029600038B504460D460068FFF7A6F81F2801D8C1
:10297000002038BD202229462068FFF7DBF92028F7
:1029800014BF00200120F4E7F0B589B005460C46DD
:1029900016461F46302383F3118800220023CDE919
:1029A00000230023ADF8083003A8FEF7BDF8694600
:1029B00005F583500C30FFF7D3FF18B980F3118869
:1029C00009B0F0BD03AB07CB20606160A2601B883B
:1029D000A381DDE90023C6E90023BDF808303B8070
:1029E000002383F311883B4632462146284600F0F7
:1029F0004DF8E5E700B59BB0EFF309816822684622
:102A0000FEF70CFCEFF30583014B9B6BFEE700BF69
:102A100000ED00E000B59BB0EFF309816822684645
:102A2000FEF7FCFBEFF30583014B9B6BFEE700BF5A
:102A300000ED00E000B59BB0EFF309816822684625
:102A4000FEF7ECFBEFF30583014B5B6BFEE700BF8A
:102A500000ED00E0FEE700BFFEE700BF0FB408B5E1
:102A6000029801F021FBFEE708B501F033FE08BD36
:102A700008B501F00BFE08BD00207047012070472B
:102A80000020704700207047704700BF2DE9F043D9
:102A900083B01E461B8813F0040F1ED105468946DD
:102AA000041D00F11C080CE02B68DB6B28469847DE
:102AB000338843F004034A46C1B220686768B847C8
:102AC0000834444509D00020009001902368002B71
:102AD000EAD16368002BE7D1F2E7012003B0BDE83B
:102AE000F08300BF84B0EC468CE80600002201E0D1
:102AF0000132D2B2022A18D800210291039100EBD0
:102B0000C20149680029F3D100EBC201896800299C
:102B1000EED100EBC20000F1040C694603C98CE859
:102B2000030001321A70012000E0002004B0704759
:102B30000139C9B202290DD882B000230093019354
:102B400000EBC100031D02AA12E9030083E80300A1
:102B500002B07047704700BF2DE9F0478AB00546C4
:102B60008A46BDF84870041D00F11C084FF00009AA
:102B700006E0636863B902E0B9F1000F16D00834CB
:102B8000444537D00023089309932368002BF0D0E5
:102B900017F0040FF0D12B68DB6B284698473B46B3
:102BA0005246C1B220686668B047E8E700220023B9
:102BB000CDE900230023ADF8083003A8FDF7B4FFEA
:102BC00003ABDAF80000DAF80410DAF8082007C3DB
:102BD000BAF80C201A80FFF74BFFCDE9000104235F
:102BE000ADF808302B681B6C6946284698474FF0B3
:102BF0000109C4E701200AB0BDE8F087026822F0AD
:102C0000604C0B6823F06041D80F92EA030F0AD49E
:102C1000C2F38072C3F380708C4514D08C452CBFF6
:102C2000002001207047002A08DB002B09DB8C45BF
:102C3000F8D08C452CBF0020012070474FEA9C4CF7
:102C4000F3E7890CF3E78242ECD1E7E708467047E7
:102C5000084670470846704708467047401A83B2D6
:102C6000002800DB7047203318B2FBE703780133FC
:102C7000DBB203701F2B01D900230370704700BF24
:102C80000E2809D8DFE800F01515151515151515CE
:102C9000150A0C0E10121400402070470C207047CB
:102CA000102070471420704718207047202070476C
:102CB00030207047082818D90C280BD910280BD9B8
:102CC00014280BD918280BD920280BD930280BD958
:102CD0000F207047092070470A2070470B2070476B
:102CE0000C2070470D2070470E207047034621F0DE
:102CF000604C20F06042C00F91EA030F0AD4C1F388
:102D00008071C3F38070944514D094452CBF00208B
:102D100001207047002908DB002B09DB9445F8D01F
:102D200094452CBF0020012070474FEA9C4CF3E7EC
:102D3000920CF3E78142ECD1E7E700BF2DE9F041C7
:102D400007460D46D0F82480B8F1000F0CD0464657
:102D50004446A4B169686068FFF7C8FF30B92368CA
:102D600026465BB11C46F4E7796208E0A04502D034
:102D700035602C6003E02C607D6200E02560BDE8DA
:102D8000F08100BFC37DC3F38402013262F3860386
:102D9000C375C38A6FF30903C382C37D23F0800325
:102DA000C375704738B504460D46006A04E00168F3
:102DB00004F10C00FFF74EFF10B10369AB42F6D1EE
:102DC00038BD00BF2DE9F043079ECD0803EBD604C4
:102DD00001F0070E06F0070372442AE00EF0070820
:102DE00003F00706C446B04538BFB446CCF1080C22
:102DF000A2EB0E018C4528BF8C464FF47F4121FA8F
:102E00000CF1C9B241FA06F74FEADE0100EB050901
:102E100019F8011001FA08F1F140C9B24FEAD308DC
:102E200014F80860714039404E4004F80860E644E8
:102E300063449645D2D1BDE8F08300BF2DE9F04F41
:102E400087B00393838AB1EBC30F80F087808246FB
:102E50000E461546DA0069188A4203D2D3B2F2B29E
:102E60009B1ADDB2DAF80C3043B3272E36D8C6F100
:102E700028039D4230D35FFA86FBCBF1280B5FFA23
:102E80008BFB00230093039B5A463146DAF8080077
:102E9000FFF798FF5E44A5EB0B04E4B2BAF8147098
:102EA00007F10057053FFF00DAF80C9028214B4648
:102EB000B946CDF810A005951F4626E0DAF8103087
:102EC000002BD2D100230093039B2A463146DAF827
:102ED0000800FFF777FF35E0AB46D2E72C464FF00E
:102EE000000BDBE72546CDF800B0039B2A46711A9C
:102EF000381DFFF767FF2E44AB445FFA8BFB651B61
:102F0000ECB2A9EB0A093F684146A7B19CB1CA4699
:102F1000B9F1E00F28BF4FF0E00A0AEB010846457F
:102F2000EFD2A8EB06039C42DCD35FFA88F5F3B23C
:102F3000ED1AEDB2D7E7DDF810A0059DDAF8100024
:102F400000B11CB928B207B0BDE8F08FCDF800B0D1
:102F5000039B2246711AFFF735FFF3E70020F2E7E3
:102F6000002070470139002307E0C25C10F801C05F
:102F700000F803C04254013301398B42F5D3704746
:102F800080EA0120002303E0400080B20133DBB27D
:102F9000072B09D810F4004FF6D0400080B280F41F
:102FA000815080F00100F1E7704700BF70B5164610
:102FB0001D46002411E0C4F12003A4F1200C26FAE0
:102FC00004F105FA03F3194325FA0CFC41EA0C015C
:102FD000C9B2FFF7D5FF0834A4B23F2CEBD970BDBE
:102FE00038B50C4604E014F8011BFFF7C9FF2A4668
:102FF000551E002AF7D138BD38B5058C072D0BD9E1
:103000000446D0E902234FF6FF70FFF7CFFF2A46B0
:10301000E169FFF7E5FF38BD4FF6FF70FBE700BF42
:1030200010B4016100F1040C002305E001EB43142E
:10303000CCF80040A44601339A42F7D80023CCF8DC
:10304000003002814381838103605DF8044B704747
:103050000346406848B102685A605A89013292B208
:103060005A8199898A4200D99A81704708B5FFF739
:10307000EFFF08B10023036008BD00BF2DE9F84F42
:103080008246894617461D46CB8AC3F30903052BA2
:1030900032D018460024042B0AD8A54208D9395D3D
:1030A00009EB0302D17601339BB20134A4B2F2E7FB
:1030B000A54218D9B9F816B0CBF3090BABF105024C
:1030C00093083D49A1FB0313C3EBC303A2EB8302A7
:1030D0001FFA82F8D9F8041081B15046FFF7B6FD07
:1030E000064601231CE02844B9F8163060F30903B2
:1030F000A9F81630012054E00024DBE75046FFF722
:10310000B5FF064601465046FFF7A2FDC9F8040088
:10311000002E48D04FF000082CE001339BB2164639
:103120003268002AF9D105EB0B02053A92082249D0
:10313000A1FB021292B2013292B293421AD2B8F1BA
:10314000000F17D15046FFF791FF306070B306466D
:1031500010E03A5D06EB0C031A710CF1010C1FFA3A
:103160008CFC0134A4B2BCF11B0F01D8A542F0D8ED
:10317000A54203D8A5420AD9C446F4E75046FFF752
:1031800075FF3060A8B106464FF00008F2E7B9F8C5
:103190001630C3F30902154465F30903A9F8163084
:1031A0000120BDE8F88F6FF00200FAE76FF002002F
:1031B000F7E76FF00200F4E72549922443680B60BB
:1031C00041604389013B4381704700BFF8B5064623
:1031D0000D460EE006F10C042046FFF737FD0146D0
:1031E00007682046FFF7EAFF39462046FFF730FD23
:1031F000686069680029EDD1EB8A6FF30903EB82FF
:1032000000200021F8BD00BF08B5FFF721FF0346ED
:1032100028B10022026042608260C26002611846EA
:1032200008BD00BF2DE9F04F83B001921D465B69D8
:10323000002B00F0998081468B462B8C1BB1EA69EC
:10324000002A00F09480072B18D902339BB2063372
:103250004D4A82FB03121344C3F38F03B9F81420C1
:10326000B9F81610521A92B2934200F286804FF0CB
:10327000800A4FF000084446474654E009F10C002C
:10328000FFF7C2FF0446002874D02A8CE969083091
:10329000FDF7C4FF288C013080B2FFF70BFDFFF76C
:1032A000EFFC431E9BB22B84013323746B691B78A4
:1032B00003F01F032A8C43F0C003224413724BF027
:1032C0000043636021464846FFF738FD0127384632
:1032D00003B0BDE8F08F002035E02B8CA34240D036
:1032E000013080B2FFF7E6FCFFF7CAFC431E9BB239
:1032F0004FEA4812D2B242EA0A026969097801F03B
:103300001F010A43F1180A724BF000427260013348
:10331000337431464846FFF711FD01373FB288F05C
:1033200001084FF0000A2B8CA342D0D009F10C0009
:10333000FFF76AFF064618B3002CCCD1019B03723D
:103340001B0A437202200628C7D82B8CA342C4D97B
:10335000EB691A5D33181A72013080B20134A4B2DD
:10336000F1E74FF0400ABBE76FF00107AFE76FF0FE
:103370000107ACE76FF00207A9E76FF00207A6E7C5
:103380006FF00207A3E700BF9324499230B589B0DC
:1033900004460D46202200216846FDF753FF0495A0
:1033A0002046FFF755FE8646A0B1EC46BCE80F006C
:1033B000CEF80000CEF80410CEF80820CEF80C307D
:1033C000BCE80F00CEF81000CEF81410CEF818208C
:1033D000CEF81C30704609B030BD00BF70B5044651
:1033E00000F10C063046FFF7D1FF054628B1216AEF
:1033F0003046FFF731FC28602562284670BD00BFCB
:1034000038B504460D46036A1BB1FFF7CBFC38B153
:1034100038BD0C30FFF7BAFF0028F9D02062F7E77B
:1034200029462046FFF7DAFFF2E700BFF8B5044669
:103430000E4615461F4630220021FDF703FFA76008
:10344000069B6360079BA3626A09B5F5001F01D361
:103450004FF6FF7292B2314604F10C00FFF7E0FD27
:10346000F8BD00BF037823B919B111F0800F00D166
:1034700001707047007870472DE9F84305460C4607
:10348000D1F81C90B9F1000F22D094F81880B8F14F
:103490001F0F3AD82846FFF7EDFF0646F0B9228CF9
:1034A000072A35D8278A032F35D849464FF6FF70AB
:1034B000FFF796FD47F6FE7303405B0243EA08639D
:1034C0003F0207F440773B431E434FF6FF720EE086
:1034D0000B8C002BD9D06FF001050FE0238A1B0263
:1034E00043EA08631E432046FFF786FD0246234653
:1034F00031462846FFF796FE051E02DC2846BDE849
:10350000F8836069FFF7B2FBF8E76FF00105F5E7B4
:103510006FF00305F2E76FF00105EFE770B58AB0D1
:10352000044616461D46282200216846FDF78AFEFD
:1035300002960395BDF83830ADF810300F9B059317
:103540009DF840308DF81830119B0793BDF8483036
:10355000ADF8203069462046FFF78EFF0AB070BDF7
:103560002DE9F04106460F461546D3692BB395F871
:103570001880B8F11F0F2AD83046FFF77BFF48B3F9
:103580002C8A240444EA08642A7844EAC23444EACF
:103590000724044344F080042846FFF72DFD02462B
:1035A0002B4621463046FFF73DFE041E02DD2B78F8
:1035B000012B08D02046BDE8F081138C002BD6D01B
:1035C0006FF00104F6E76869FFF750FBF2E76FF070
:1035D0000104EFE76FF00304ECE700BFF0B58BB038
:1035E00004460D4617461E46282200216846FDF770
:1035F00029FE9DF84C30012B14BF002301238DF8C8
:103600000030029703969DF84030ADF81030119BC2
:1036100005939DF848308DF81830149B0793BDF83A
:103620005430ADF820306A4629462046FFF798FF0F
:103630000BB0F0BD406A00B10430704708B5416A74
:103640000B6843620C30FFF7B9FD08BD2DE9F0416E
:10365000054616469846076A3C4619E02146284624
:10366000FFF7B4FD05F10C072B6A19683846FFF720
:10367000F1FA286221463846FFF7A0FD2C6A27465A
:1036800006E0216805F10C00FFF7E4FA274604463E
:1036900004B3A168E368711A68EB03030E4A8A4217
:1036A0004FF000029A41ECD22B6AA342D6D02146B9
:1036B0002846FFF78BFD23683B6005F10C0321468C
:1036C0001C461846FFF77AFD39682046FFF7C2FA14
:1036D0000446DDE7BDE8F08180841E002DE9F0415D
:1036E00082B0089E002800F0DF8014461D46074681
:1036F000002E00F0DC80013AD2B23F2A00F2DA80DC
:10370000012C02D1002B40F0D880002300930193BC
:103710006B4622463846FFF791FB071E3ADD14F050
:10372000070F0AD002AB03EBD40111F8083C624248
:1037300002F00702134101F8083C012C0BD0082CC1
:103740002CD9102C2DD9202C2ED9402C00F2B88049
:103750004FF0080800E0A046FFF702FC38BB002D40
:1037600072D0B4EBC80F10D0082C25D89DF80020DB
:10377000631E22FA03F313F0010F06D00123A340C6
:103780005B42DBB21A438DF80020082C64D89DF907
:1037900000303370384602B0BDE8F0814FF00108C8
:1037A000DAE74FF00208D7E74FF00408D4E74146C4
:1037B0006846FFF7D7FBD2E7102C0FD8BDF80020E2
:1037C000631E22FA03F313F0010FDED00123A3409E
:1037D0005B429BB21A43ADF80020D6E7202C0CD8F0
:1037E000009A631E22FA03F313F0010FCDD00123D8
:1037F000A3405B421A430092C7E73F2C63D8009D69
:10380000019A631EC4F12100A4F1210125FA03F3FA
:1038100002FA00F0034322FA01F10B4313F0010F07
:10382000B3D00123A4F12001C4F1200003FA01F177
:1038300023FA00F00143A3405B4261EB41011D43C9
:103840000A4300950192A0E7012C17D0082C19D843
:103850009DF8003033709DE7102C03D8BDF900307F
:10386000338097E7202C02D8009B336092E7402CEE
:103870002CD8DDE90023C6E900238BE79DF8003052
:10388000337087E7102C03D8BDF80030338081E710
:10389000202C02D8009B33607CE7402C19D8DDE94E
:1038A0000023C6E9002375E76FF0010772E76FF0A8
:1038B00001076FE76FF001076CE76FF0010769E739
:1038C0006FF0080766E76FF0080763E76FF0080717
:1038D00060E76FF008075DE7F0B585B005460E4676
:1038E000402A03D8144612B9012400E040240022E3
:1038F00002920392012C06D0082C22D81B788DF856
:103900000830012703E01B788DF808302746FFF7C1
:1039100027FB68BB14F0070F0AD004AB03EBD401FC
:1039200011F8083C624202F00702934001F8083C9B
:1039300000962B462246002102A8FFF743FA05B065
:10394000F0BD102C04D81B88ADF808300227DEE744
:10395000202C03D81B6802930427D8E7402C05D8F5
:10396000D3E90023CDE902230827D0E70027CEE7DB
:10397000394602A8FFF7F6FACCE700BF70B5064655
:103980000C4605E00D6806F10C00FFF717FCE5603A
:10399000E1680029F6D10023E360A3602361A382DC
:1039A00070BD00BF10F0800F04D010F4004F03D0A2
:1039B00001207047022070470020704710B5044670
:1039C000FFF7F0FF022802D0C4F3074010BDC4F394
:1039D0000F2014F07F0FF9D100F00300F6E700BFCD
:1039E0002DE9F04F99B006460D4603920493D1F8A5
:1039F00000904846FFF7D6FF0746022800F0E48013
:103A0000C9F30628B9F1000F80F2F38119F0C04F15
:103A100040F0F2812C7B002C00F0F181022F05D0C8
:103A20003046FFF727FD404540F0EC81C9F30463C1
:103A3000099309F07F0105914846FFF7BFFF0A90FF
:103A400040EA0749059949EA814949EA4869013C40
:103A50002C4494F8048000220023CDE916235FEA69
:103A6000D813029300F0B380746800913B4602467D
:103A700016A93046A047002800F0C78149463046C5
:103A8000FFF7BEFC0446002800F0C281A368D4F80A
:103A90000CA0039A0693D21A0792049860EB0A00CE
:103AA00008906A7B0B92A07E0C9094F81790C9F353
:103AB000840908F01F0B59464846FFF7CFF80D90D0
:103AC00049465846FFF7CAF86268069B53EA0A0A55
:103AD00017D0974B07998B424FF0000308998B4101
:103AE0000FD30B9B0C998B427CD0924B079A93423D
:103AF0004FF00003089A934114D2029B93B10F2810
:103B000010DCE37D68F38603E375DBB223F080030A
:103B1000E37521463046FFF759FB6B7BA376029B8A
:103B2000002B69D06A7BA37E9A4240F07481029B8D
:103B300013B118F0400F69D1C8F34013E27DB3EB25
:103B4000D21F40F06C81C2F384039B4540F06A8130
:103B5000029B002B00F0948018F0400F40F09380FF
:103B60002B7B032B40F26181039BA360049BE360EA
:103B7000E38A6FF30903E382AF1D2B7B033BDBB2C8
:103B80003A46214606F10C00FFF778FA00286DDB73
:103B90002B796A7943EA02232383DDE916234FF662
:103BA000FF70FFF703FAA0822A7B033AD2B23946AC
:103BB000FFF716FAA082E37DDA43C2F3C01262F384
:103BC000C713E375002027E14FF000081AE74946C4
:103BD0003046FFF7E7F8044600287FF457AF6FF050
:103BE0000C0019E1029B002B3FF47FAF0D9B012BD2
:103BF00087DC002A85D178E7E37DC3F384020132B4
:103C000062F38603E3756FF00C0005E1039BA3608C
:103C1000049AE260202200210EA8FDF713FB039B0B
:103C20000E93049A0F922B1D10932B7B013BDBB25A
:103C3000ADF84C300A9BADF84E308DF850708DF8D1
:103C400051B0099B8DF85230059B8DF8533096F892
:103C50002C3083F001038DF85430B3680EA9304640
:103C600098472046FFF78EF80020D5E021463046E1
:103C7000FFF7ACFA2046FFF785F86FF00200CBE0C3
:103C800018F0400F1ED095F80C9009F1FF395FFA3B
:103C900089F9B4F81680C8F30908B8F1040F30D8D0
:103CA00043464FF00008042B54D8C84552D205EBC8
:103CB00008021179E218D176013308F101085FFAA0
:103CC00088F8F0E72F1D2B7B013BDBB23A462146FB
:103CD00006F10C00FFF7D2F9002808DB2A7B013A35
:103CE000D2B23946A08AFFF77BF9A08263E721466A
:103CF0003046FFF76BFA2046FFF744F86FF00200FA
:103D00008AE0616806F10C00FEF7A0FF024608B1E8
:103D1000052104E04FF000081CE01C311A4613682E
:103D2000002BFAD1A8EB01034FF000080EE000BF12
:103D300080841E0040420F0005EB08010879D1186D
:103D40000871013308F101085FFA88F81B2B01D8CC
:103D5000C845F1D3039B0E93049B0F9304F11B03FF
:103D60001093616806F10C00FEF770FF1190C845D2
:103D700036D2A84408F104031293E38AC3F309037B
:103D80009944ADF84C900A9BADF84E308DF85070C8
:103D90008DF851B0099B8DF85230059B8DF853304A
:103DA00096F82C3083F001038DF8543000236360C3
:103DB0002A7B013A291DA08AFFF712F9A082238BE2
:103DC00098420FD00EA93046FFF7D8FD2046FEF7E7
:103DD000D9FFA28A238B9A4209D06FF010001BE012
:103DE0000023C9E7B3680EA930469847EAE70020E8
:103DF00012E06FF009000FE06FF009000CE06FF0C7
:103E0000090009E06FF00A0006E06FF00B0003E024
:103E10006FF0020000E0002019B0BDE8F08F6FF0F5
:103E20000D00F9E76FF00E00F6E76FF00F00F3E713
:103E3000EFF30983683305494A6B22F001024A63B4
:103E400083F30988002383F31188704700EF00E0B3
:103E5000302080F3118862B60C4BD96821F4E06100
:103E60000904090C0A4A0A43DA60D3F8FC2042F03C
:103E70008072C3F8FC2007490A6842F001020A6018
:103E80002022DA7783F82200704700BF00ED00E0BF
:103E90000003FA05001000E0302383F31188104B73
:103EA0005B6813F4006F03D1002383F3118870471C
:103EB00010B5F1EE103AEFF30984683C4FF08073CF
:103EC000E361084BDB6B236684F3098800F0AEF8EE
:103ED00010B1054BA36110BD044BA361FBE700BF0C
:103EE00000ED00E000EF00E0FF0200080203000820
:103EF00010B44FF0E0235C6800230BE0084A03F1A4
:103F000020004FF0FF3142F8201003F1600042F82A
:103F100020100133A342F1D95DF8044B704700BF74
:103F200000E100E00901C9B2074A131883F8001341
:103F300000F01F01400901238B4000F1600142F8AD
:103F4000213042F82030704700E100E00023037583
:103F500003691B68996882689142FAD203605A68C3
:103F6000426010605860704708B50846302383F3FC
:103F700011880B7D032B05D0042B0FD02BB983F3B5
:103F800011880AE08B6900221A604FF0FF338361C9
:103F9000FFF7DCFF002383F3118808BD4A680B6834
:103FA00013604A685A60F0E70023037503691B68D1
:103FB000996882689142FAD803605A68426010603A
:103FC0005860704708B5FFF7C1FF08BD08B5064B3C
:103FD000D9680875186802681A6053600122027572
:103FE000D860FCF777F908BD303A002030B587B0CB
:103FF00004460C4BDD68B1F1FF3F0FD02B460A4A57
:10400000684600F025F92046FFF7E0FF009B13B15A
:10401000684600F02BF9A86907B030BDFFF7D6FF5E
:10402000F9E700BF303A0020693F0008044BDA6826
:104030001B6898689368984294BF002001207047DD
:10404000303A002010B5084BD8681C6822681A6006
:10405000536001222275DC60FFF7A6FF014620466F
:10406000FCF738F910BD00BF303A002008B50B4B03
:1040700001221A70002353B109490A4800F030FCAC
:10408000064B02221A70002383F3118808BD034AED
:1040900002EB8302002151600133ECE7883A0020F3
:1040A00070500008303A002008B572B6044B18650D
:1040B00000F0BAFA00F098FB024B03221A70FEE7F8
:1040C000303A0020883A002008B500F009F908BD10
:1040D0008B6002230B7500234B75086108467047FF
:1040E00008B58168A1F1840341F8143C026941F8E4
:1040F000442C426941F8402C044A41F8242CC368FE
:10410000026820390248FFF7E3FF08BDED0200080E
:10411000303A002008B5FFF7E3FFFFF753FF08BD73
:1041200008B5034BDB6898610F20FFF74FFF08BD10
:10413000303A002008B5302383F31188FFF7F0FFF1
:1041400008BD00BF08B50146302383F3118808205D
:10415000FFF74CFF002383F3118808BD10B40368F8
:1041600001E0121B1B689C68A242FAD88A600B60AF
:104170005C684C60216059609968891A99604FF0B9
:10418000FF3383605DF8044B704700BFF8B51546F8
:104190001C46C2608B60486003680B605960016018
:1041A000092C00D80A24C068204400F085FB0A27A7
:1041B00000F07EFB0646431B9C4202D90A2F07D81B
:1041C000F8BD7C1C281900F085FB27463546EFE733
:1041D000012000F0C5FBF3E770B504460D46092940
:1041E00000D80A250A26601900F074FB00F060FB75
:1041F000041BA54202D90A2E04D870BD01363546EB
:104200000446F0E7012000F0ABFBF6E7F8B5054601
:104210000F46164600F04CFB2B689D420DD0EC6813
:10422000041B341900D334469B68A3420CD82246A1
:1042300039462846FFF792FFF8BD33460246394615
:104240002846FFF7A3FFF7E73146FFF7C5FFEEE784
:1042500008B50361C260002343610A460146024873
:10426000FFF7D4FF08BD00BF403A002008B51B4B44
:104270001B69984210D042680368136042685A6014
:104280000268936881680B44936000230360134BBA
:104290004FF0FF329A6108BD1968104A134643F87F
:1042A000101F4B600021016012699A4212D093687E
:1042B00081680B44936000F0FBFA084AD369A0EBD5
:1042C000030C126991686145E5D91B1A1944FFF77F
:1042D00083FFE0E700F0F8FADDE700BF303A0020A6
:1042E000F8B50BE0002383F31188E36821692046C9
:1042F0009847302383F311886369CBB9244D2C6927
:1043000000F0D6FAED69411BA2688A4232D8154402
:104310001F4BDD61616822680A606168516000229C
:10432000226053F8102F9A42DCD100F0CDFAD9E781
:1043300000F0BEFA0746461B6269B2420ED32B1A42
:104340001A44134B53F8101F99420CD0961900D2FF
:10435000324621460F48FFF701FFCFE7022000F069
:10436000FFFA0022EDE713463A4621460948FFF7D7
:104370000DFF0CE0064A52F8101F914207D0044A84
:10438000D061A2682B1A9918A160FFF725FFF8BD2C
:10439000303A0020403A002038B500F089FA054A4A
:1043A000D2E90845031B181945F10001C2E90801CB
:1043B00038BD00BF303A002000207047FEE700BF44
:1043C000704700BF4FF0FF30704700BFBFF34F8F03
:1043D000024B1B6913F4803FFAD170470020024062
:1043E000014BF3221A6170470020024008B50B4BC5
:1043F0001B7803B108BDFFF7E9FF094B5B69002B90
:1044000005DB074A136823F480631360F2E7044B6B
:10441000044A9A6002F188329A60F2E7A03A0020DA
:10442000002002402301674508B50C4B1B7803B1FF
:1044300008BDFFF7CBFF0A4B5A6942F000425A61B0
:104440001A6842F480521A601A6822F480521A6084
:104450001A6842F480621A60EAE700BFA03A0020BE
:10446000002002402DE9F04112F0070F0FD1054660
:104470000C46164610F0070F09D102442D4B9A4204
:104480000FD92D4B40F287321A60002004E02A4BEE
:1044900040F282321A600020BDE8F081083E083503
:1044A0000834072E08D92B6822689A4204D12B1DA4
:1044B0001B6862689A42F1D00EB90120ECE7FFF761
:1044C00095FFFFF783FF012E2FD9DFF87C800123B2
:1044D000C8F8143023682F4647F8043B63686B60C4
:1044E000FFF774FFD8F8103043F00103C8F810301C
:1044F0000023C8F814302B6822689A4207D13F681D
:104500006368BB4203D1083E08340835DBE70A4B39
:1045100040F2AF321A60094B1D60094B1E60094B17
:104520001C60FFF781FF0020B6E7FFF77DFF012049
:10453000B2E700BF000004089C3A0020983A00202F
:10454000943A0020903A0020002002407F2803D8AF
:1045500000F58030C0027047002070474FF40060C3
:10456000704700BF802070477F2811D838B50546B6
:10457000FFF7ECFF04462846FFF7F0FF30B1236851
:10458000B3F1FF3F06D104380434F7E7012038BD0A
:10459000002070470020FAE77F2801D900207047EB
:1045A00038B50446FFF712FFFFF720FFFFF718FFAB
:1045B0000E4B02225A615A6942EAC4025A615A6990
:1045C00042F480325A61FFF701FF2046FFF7BEFF39
:1045D00005462046FFF7C2FF0146284600F000F9D5
:1045E000FFF722FF2046FFF7BFFF38BD0020024043
:1045F00008B5FFF737FF08BD08B548B1094B1B7870
:1046000003B108BDFFF7F2FE064B01221A70F8E76E
:10461000044B1B78002BF4D0024B00221A70FFF7DA
:1046200003FFEEE7A03A002010B5002404B110BD4E
:10463000064804EB44039A00134603445968805823
:1046400000F0D0F80134E4B2F0E700BF7C5000087D
:1046500008B50846114600F03BFC08BD08B5084601
:1046600000F03EFC08BD00BF302383F31188704783
:10467000002383F311887047302383F31188704738
:10468000002383F311887047FFF786BE38B5EFF338
:104690001183D3B9EFF30583C3F3080353B9FFF7CD
:1046A000E3FFFFF7F1FF05460C46FFF7E1FF284661
:1046B000214638BDFFF7E0FFFFF7E6FF05460C4651
:1046C000FFF7DEFF2846214638BDBDE83840FFF73A
:1046D000DBBF00BF38B5FFF7D9FF104C104AC00848
:1046E00040EA4170A0FB025EC908A0FB040C1CEB71
:1046F00005004FF00003A1FB04455B410019A1FB3D
:10470000021043EB050311EB0E0140F100005B18B2
:1047100040F100001B0943EA007038BDCFF753E3B6
:10472000A59BC42009E000F1010C064A52F82020A4
:1047300041F8042B1A465FFA8CF0531EDBB2002AB4
:10474000F1D170475028004010B4144BD3F890308A
:1047500013F4004F0AD1114BD3F89040C3F89040A6
:10476000D3F8904044F40044C3F890400C4C2368C4
:1047700043F48073236009E000F1010C51F8044B0D
:10478000084A42F820401A465FFA8CF0531EDBB20A
:10479000002AF1D15DF8044B704700BF00100240C1
:1047A000007000405028004000B583B0012201A9EC
:1047B0000020FFF7B7FF019803B05DF804FB00BFCE
:1047C00010B582B00446FFF7EFFFA04201D102B05E
:1047D00010BD0194012201A90020FFF7B5FFF6E703
:1047E000704700BF704700BF704700BF074B45F2DE
:1047F00055521A6003225A6040F2FF729A604CF6DA
:10480000CC421A60024B01221A70704700300040FF
:10481000A13A0020034B1B781BB1034B4AF6AA2296
:104820001A607047A13A002000300040054B1B6819
:104830003BB903F1804303F50433D3F89420014BD3
:104840001A607047A43A0020024B4FF40002C3F8EC
:10485000942070470010024008B5FFF7E7FF024BB5
:104860001868C0F3407008BDA43A0020704700BF2C
:10487000FEE700BF084B094903E051F8042B43F859
:10488000042B074A9342F8D302E0002243F8042B9A
:10489000044A9342F9D37047283B0020485100084E
:1048A000283B0020283B002008B500F0AFF808BDE9
:1048B0004FF08043586A70474FF08043586300229E
:1048C0001A610222DA6070474FF080430022DA60FA
:1048D000704700BF4FF0804358637047FEE700BF4A
:1048E00070B586B004460E46194B586000258562A7
:1048F0000163FFF7ADFA24606460A560E56204F12E
:104900001003236163614FF0FF33A361E561FFF79B
:10491000CFFF02462B46C4E90823256580230D4AB4
:1049200004F134012046FFF7D3FBE0600123037557
:10493000094A009272680192B26802920393074B8F
:10494000049305956846FFF7E5FB06B070BD00BF10
:10495000883A0020B84F0008C04F0008DD48000822
:10496000024AD36A0343D362704700BF303A002043
:104970004B6843608B688360CB68C3600B6943619D
:104980004B6903628B6943620B680360704700BF29
:1049900010B5124BDA6A42F00702DA62DA6A22F0E4
:1049A0000702DA62DA6ADA6C42F00702DA64DA6E77
:1049B00042F00702DA66DB6E094C21464FF0904068
:1049C000FFF7D6FF04F11C010648FFF7D1FF04F101
:1049D00038010548FFF7CCFF10BD00BF00100240B2
:1049E00088500008000400480008004808B5FFF798
:1049F000CFFF00F0A9F808BD08B500F049FAFFF7AD
:104A000035FBFFF713FF08BD704700BF0F4B9A6DD2
:104A100042F001029A659A6F42F001029A679B6F19
:104A20000B4A936843F0010393604FF080434F2299
:104A30009A624FF0FF32DA6200229A615A63DA60BA
:104A40005A6001225A611A60704700BF001002408C
:104A5000002004E008B54FF080421369D168C9B264
:104A60000B40D943116113F0020F00D108BD302370
:104A700083F31188FFF728FB002383F31188F5E700
:104A80000C4A136823F0F00343F0600313601368CB
:104A900043F001031360074B1B6813F0020FFAD0B9
:104AA000044B00229A60034B9B6813F00C0FFAD161
:104AB000704700BF001002400D4B61221A600C4B82
:104AC0001B6813F0020FFAD0094B00229A60084BC2
:104AD0009B6813F00C0FFAD1054A69231360D2F8D2
:104AE000943023F4706343F4C063C2F89430704789
:104AF00000100240064B074ADA601A6842F08072E2
:104B00001A60034B1B6813F0007FFAD0704700BF98
:104B10000010024023140001064B074A1A611A686C
:104B200042F080621A60034B1B6813F0006FFAD0EA
:104B3000704700BF00100240200C100008B5FFF7BE
:104B4000D7F900F083F908BD10B5484B9A6A4FF0C9
:104B5000FF3199629A6A00229A62986AD86A60F074
:104B60000700D862D86A00F00700D862D86A186BCC
:104B70001963186B1A63186B986B9963986B9A6337
:104B8000986BD86BD963D86BDA63D86B186C1964DF
:104B9000196C1A641A6C364A4FF4E06111601A6E8F
:104BA00042F001021A66D3F8802022F00102C3F815
:104BB0008020D3F880209A6D42F080529A659A6FD7
:104BC00022F080529A679B6F2A4B4FF440721A6012
:104BD000284B5B6913F4806FFAD1264B00225A6090
:104BE000FFF74EFF214BD3F8903013F4407F07D0EE
:104BF0001E4B4FF48032C3F890200022C3F890205F
:104C0000FFF75AFF194A136843F4A0231360174BA8
:104C10001B6813F4003FFAD0144CD4F8903023F002
:104C20000323C4F89030FFF765FFFFF775FF0023FB
:104C3000A360114BC4F888300D4A136823F00703B2
:104C400043F0040313600A4B1B6803F00703042BB3
:104C5000F9D1064A936843F003039360034B9B68C2
:104C600003F00C030C2BF9D110BD00BF0010024063
:104C700000200240007000405555013408B5074A35
:104C8000536903F0010353612BB1054B1B6813B14A
:104C9000034A50689847FFF7FFF808BD0004014039
:104CA000A83A002008B5074A536903F0020353618C
:104CB0002BB1054B9B6813B1034AD0689847FFF7A7
:104CC000EBF808BD00040140A83A002008B5074AE7
:104CD000536903F0040353612BB1054B1B6913B1F6
:104CE000034A50699847FFF7D7F808BD0004014010
:104CF000A83A002008B5074A536903F00803536136
:104D00002BB1054B9B6913B1034AD0699847FFF754
:104D1000C3F808BD00040140A83A002008B5074ABE
:104D2000536903F0100353612BB1054B1B6A13B198
:104D3000034A506A9847FFF7AFF808BD00040140E6
:104D4000A83A002010B51A4B5C6904F478725A61D5
:104D500014F0200F05D0174B9B6A13B1154AD06A87
:104D6000984714F0400F05D0124B1B6B13B1114A3A
:104D7000506B984714F0800F05D00E4B9B6B13B10E
:104D80000C4AD06B984714F4807F05D0094B1B6CFC
:104D900013B1084A506C984714F4007F05D0054BB6
:104DA0009B6C13B1034AD06C9847FFF775F810BDA0
:104DB00000040140A83A002010B51F4B5C6904F4C0
:104DC0007C425A6114F4806F05D01C4B1B6D13B1EB
:104DD0001A4A506D984714F4006F05D0174B9B6D1D
:104DE00013B1164AD06D984714F4805F05D0134B69
:104DF0001B6E13B1114A506E984714F4005F05D032
:104E00000E4B9B6E13B10D4AD06E984714F4804F31
:104E100005D00A4B1B6F13B1084A506F984714F422
:104E2000004F05D0054B9B6F13B1044AD06F9847D4
:104E3000FFF732F810BD00BF00040140A83A00207F
:104E400008B5FFF707FEFFF727F808BD08B50621EC
:104E50000846FFF767F806210720FFF763F80621E9
:104E60000820FFF75FF806210920FFF75BF806210D
:104E70000A20FFF757F806211720FFF753F80621FD
:104E80002820FFF74FF807211C20FFF74BF808BD3B
:104E900008B5FFF753FE00F005F8FFF7B5FDFFF783
:104EA00003FD08BD002307E0054A002142F8331046
:104EB00002EBC302516001330F2BF5D9704700BFDD
:104EC000A83A00200B460146184600F043B80000FF
:104ED000024B0A4601461868FFF7BABB18110020BA
:104EE000024B01461868FFF7B9BB00BF181100203C
:104EF00010B501390244904201D1002005E0037849
:104F000011F8014FA34201D0181B10BD0130F2E788
:104F10002DE9F041A3B1C91A17780144044603F101
:104F2000FF3C8C42204601D9002009E00578BD42B3
:104F300004F10104F5D10CEB0405D618A54201D10A
:104F4000BDE8F08115F8018D16F801EDF045F5D0BA
:104F5000E7E7000010B504460448134620B10A46AE
:104F600002202146AFF3008010BD00BF000000000A
:104F7000636F6D2E76696D64726F6E65732E7065EA
:104F8000726970685F626C0040A2E4F16468910627
:104F90000000000041A3E5F26569920700000000EF
:104FA0004261642043414E496661636520696E64D5
:104FB00065782E00633000006D61696E00000000AE
:104FC00069646C6500000000000000000000000043
:104FD000691D000885260008D5250008A51D0008C4
:104FE000B11D000889290008751D0008851D0008ED
:104FF000791D0008811D00087D1D0008E11E0008C4
:10500000891D0008E52A0008312B0008991D0008B9
:10501000512900088000000000800000000080008E
:1050200000FFFF000000000000000000691D0008F4
:10503000552A0008792A00087D2A0008592B000803
:105040008D2A0008751D0008812A0008791D0008B6
:10505000852A00087D1D0008892A0008552A0008B5
:10506000E52A0008312B0008552A0008552A0008B7
:10507000B44F000820380020303A00200001002002
:1050800000FF0000010000000000802A0000000076
:10509000AAAAAAAA00000024FFFF00000000000046
:1050A000009009000000000000000000AAAAAAAABF
:1050B00000000000FFFF00000000000000000000F2
:1050C0000000000000000000AAAAAAAA0000000038
:1050D000FFFF0000000000000000000000000000D2
:1050E0007F050000000000000060030000000000D9
:1050F000FE2A0100D20400001C1100200000000064
:105100000000000068000000D00000000000000067
:10511000000000000000000000000000000000008F
:10512000000000000000000000000000000000007F
:10513000000000000000000000000000000000006F
:08514000000000000000000067
:00000001FF
